:020000040000FA
:1000000008680020494000003D39010035400000EB
:10001000354000003540000035400000354000000C
:10002000000000000000000000000000E5410000AA
:1000300035400000000000004D4100003540000048
:10004000F9430000F9430000F9430000F9430000C0
:10005000F9430000F9430000F9430000F9430000B0
:10006000F9430000F9430000F9430000F9430000A0
:10007000F9430000F9430000F9430000F943000090
:10008000F9430000F9430000F9430000F943000080
:10009000F9430000F9430000F9430000F943000070
:1000A000F9430000F9430000F9430000F943000060
:1000B000F9430000F9430000F9430000F943000050
:1000C000F9430000F9430000F9430000F943000040
:1000D000F9430000F9430000F9430000F943000030
:1000E000F9430000F9430000F9430000F943000020
:1000F000F9430000F9430000F9430000F943000010
:10010000F9430000F9430000F9430000F9430000FF
:10011000F9430000F9430000F9430000F9430000EF
:10012000F9430000F9430000F9430000F9430000DF
:10013000F9430000F9430000F9430000F9430000CF
:10014000F9430000F9430000F9430000F9430000BF
:04015000F94300006F
:1001580080EA101404F0F01480EA0410604081EA88
:10016800111404F0F01481EA0411614082EA1214B7
:1001780004F0F01482EA0412624083EA131404F0D3
:10018800F01483EA0413634080EA102404F47F44E3
:1001980080EA0420604081EA112404F47F4481EA63
:1001A8000421614082EA122404F47F4482EA042292
:1001B800624083EA132404F47F4483EA04236340FF
:1001C80081EA500404F0553480EA4400614083EA2F
:1001D800520404F0553482EA4402634082EA9004EF
:1001E80004F0333480EA8400624083EA910404F026
:1001F800333481EA84016340704700BF82EA900487
:1002080004F0333480EA8400624083EA910404F005
:10021800333481EA8401634081EA500404F05534A0
:1002280080EA4400614083EA520404F0553482EACB
:100238004402634080EA102404F47F4480EA0420E6
:10024800604081EA112404F47F4481EA042161407A
:1002580082EA122404F47F4482EA0422624083EA98
:10026800132404F47F4483EA0423634080EA1014CF
:1002780004F0F01480EA0410604081EA111404F0DC
:10028800F01481EA0411614082EA121404F0F014B7
:1002980082EA0412624083EA131404F0F01483EA39
:1002A80004136340704700BF2DE9F14F94464FEAAD
:1002B800930B8A68CB6808684968FFF749FF0BF118
:1002C800060E33E083EA134480EA134582EA1347B3
:1002D80046BA96EA3444604000F00F1684EA0634C1
:1002E80020F00F1684EA161054BA94EA01067240F8
:1002F80002F00F1486EA043622F00F1486EA14126C
:100308004CBA6540694001F00F1485EA043521F0C4
:100318000F1485EA14115CBA67407B4003F00F1490
:1003280087EA043723F00F1487EA1413BCE8F000B7
:100338006040694072407B4000F0E03400F01035C6
:1003480000F00F3040EA540040EAC50080EA90040B
:1003580004F0332480EA8400604001F0E03401F0C6
:10036800103501F00F3141EA540141EAC50181EA33
:10037800910404F0332481EA8401614002F0E034FE
:1003880002F0103502F00F3242EA540242EAC50286
:1003980082EA920404F0332482EA8402624003F081
:1003A800E03403F0103503F00F3343EA540343EA13
:1003B800C50383EA930404F0332483EA8403634087
:1003C80081EA324787EA134581EA354690EA06040E
:1003D80084EA034B82EA1B4280EA044484EA054427
:1003E80083EA144A85EA14448BEA044B84EA3744C6
:1003F80081EA0B4181EA164104EA0A00454082EA93
:1004080004082BEA080041408AEA0B0602EA0600C3
:1004180084EA34438AEA3A4603EA060778404540C4
:10042800414088EA38478BEA3B4007EA000985EAF9
:10043800090583EA0709464006EA0906714085EA84
:10044800010005EA3546464006EA314181EA304175
:1004580081EA364606EA304686EA3546344008EAF6
:10046800010886EA01052A4086EA364003405A40D8
:1004780081EA31431F407C4080EA030709EA070903
:1004880088EA0908544088EA020806EA0A0601EAE6
:100498000B018AEA0B0215408AEA3A4210404540AD
:1004A8008BEA3B4003405E404240174079404D4054
:1004B8004E40E443F64386EA18435D4085EA05402A
:1004C80083EA134386EA034183EA384284EA114304
:1004D80083EA04435FEA3343BEF1010E3FF6F2AE0E
:1004E8001ED4BCE8F0006040694072407B4020BCEC
:1004F800FFF784FE28606960AA60EB60BDE8F08FB2
:100508002DE9E0414FF2F00280EA1031114080EA13
:100518000130484041088208C3084FF0000E4FE7F9
:1005280000F0113001F0113102F0113203F01133F3
:1005380040EA410040EA820040EAC3004FF2F0027C
:1005480080EA1031114080EA01304840BDE8E0817E
:100558002DE9F04F02F11C050646074600EB850819
:1005680051F8040B043A46F8040BF9D14FF0010C8A
:10057800FFF7C6FF5FEA302080EA0C001ECF41403B
:100588004A4053405C401EC62000464517D04FEAFB
:100598004C0C1CF4807F18BFACF1E50C2C2DE7D077
:1005A8003C2D06D1FFF7ACFF06CF41404A4006C6B6
:1005B800100006CF41404A4006C61000D8E736E989
:1005C8000F00FFF7C5FD043D86E80F00F7D1BDE831
:1005D800F08F00BF2DE9F14F03F11C0402EB840CEE
:1005E8004FEA930B8A68CB6808684968FFF7B0FD43
:1005F8003CE9F0006040694072407B400BF1060E18
:100608004EE083EA134480EA134582EA134746BA68
:1006180096EA3444604000F00F1684EA063420F06D
:100628000F1684EA161054BA94EA0106724002F0D2
:100638000F1486EA043622F00F1486EA14124CBA14
:100648006540694001F00F1485EA043521F00F1464
:1006580085EA14115CBA67407B4003F00F1487EAFF
:10066800043723F00F1487EA141344BA44404DBAF0
:100678004D4056BA56405FBA5F4087EA174886EA47
:10068800174B84EA17464FEA38488BEA1B4485EA39
:100698001B4788EA1B4580EA3440694072407B402A
:1006A80000F0703400F0803500F00F3040EA44006C
:1006B80040EAD50080EA900404F0332480EA8400FC
:1006C800604001F0703401F0803501F00F3141EAEB
:1006D800440141EAD50181EA910404F0332481EA16
:1006E8008401614002F0703402F0803502F00F326C
:1006F80042EA440242EAD50282EA920404F0332430
:1007080082EA8402624003F0703403F0803503F01B
:100718000F3343EA440343EAD50383EA930404F01E
:10072800332483EA84036340C943DB4381EA00043A
:1007380083EA044686EA020183EA014382EA3345F2
:1007480083EA14435C4084EA00077FEA040A8AEAE1
:10075800024A8AEA010B87EA11488AEA374A80EA9C
:10076800060181EA1A418AEA030A04EA0A004540B6
:1007780088EA040707EA0B0041408AEA0B0608EA00
:10078800060084EA34428AEA3A4602EA06035840F6
:100798004540414087EA37438BEA3B4003EA00097A
:1007A80085EA090582EA0309464006EA0906714016
:1007B80085EA010005EA3546464006EA314181EA04
:1007C800304181EA364606EA304686EA3546344004
:1007D8000F4086EA010508EA050886EA3640024025
:1007E80088EA020881EA314213405C4080EA020349
:1007F80009EA030987EA0907674088EA040806EA5C
:100808000A0601EA0B018AEA0B0425408AEA3A44FF
:10081800204045408BEA3B4B02EA0B02564084EAF3
:100828000B04234059406E40694087EA364080EA0D
:10083800384080EA060380EA104481EA134585EAD5
:10084800344585EA17427D4082EA354180EA054011
:100858003CE9F0006040694072407B40BEF1010E07
:100868003FF6CFAE20BCFFF7C9FC28606960AA60DC
:10087800EB60BDE8F08F00BFFFF76ABE30B44FF001
:10088800000310F8014B11F8015B013A84EA0504F2
:1008980043EA0403F5D1A3F101034FEAD37030BC56
:1008A800704700BF4FF0000310F8012B013943EAED
:1008B8000203F9D1A3F101034FEAD370704700BFD7
:1008C80030B411F8014B12F8015B6C4000F8014B91
:1008D800013BF6D130BC704781F0004102E000BF17
:1008E80083F0004330B54FEA41044FEA430594EAE8
:1008F800050F08BF90EA020F1FBF54EA000C55EA23
:10090800020C7FEA645C7FEA655C00F0E2804FEAF3
:100918005454D4EB5555B8BF6D420CDD2C4480EAD5
:10092800020281EA030382EA000083EA010180EA05
:10093800020281EA0303362D88BF30BD11F0004F53
:100948004FEA01314FF4801C4CEA113102D0404289
:1009580061EB410113F0004F4FEA03334CEA1333C4
:1009680002D0524263EB430394EA050F00F0A780DC
:10097800A4F10104D5F1200E0DDB02FA0EFC22FAD7
:1009880005F2801841F1000103FA0EF2801843FACB
:1009980005F359410EE0A5F120050EF1200E012ABC
:1009A80003FA0EFC28BF4CF0020C43FA05F3C018FA
:1009B80051EBE37101F0004507D54FF0000EDCF173
:1009C800000C7EEB00006EEB0101B1F5801F1BD31C
:1009D800B1F5001F0CD349085FEA30004FEA3C0C20
:1009E80004F101044FEA445212F5800F80F09A8016
:1009F800BCF1004F08BF5FEA500C50F1000041EB1A
:100A0800045141EA050130BD5FEA4C0C404141EB1D
:100A18000101013C28BFB1F5801FE9D291F0000F18
:100A280004BF01460020B1FA81F308BF2033A3F1C7
:100A38000B03B3F120020CDA0C3208DD02F1140CBE
:100A4800C2F10C0201FA0CF021FA02F10CE002F1F9
:100A58001402D8BFC2F1200C01FA02F120FA0CFCF2
:100A6800DCBF41EA0C019040E41AA2BF01EB04513B
:100A7800294330BD6FEA04041F3C1CDA0C340EDC39
:100A880004F11404C4F1200220FA04F001FA02F37C
:100A980040EA030021FA04F345EA030130BDC4F13A
:100AA8000C04C4F1200220FA02F001FA04F340EA2F
:100AB8000300294630BD21FA04F0294630BD94F0E0
:100AC800000F83F4801306BF81F480110134013DC7
:100AD8004EE77FEA645C18BF7FEA655C29D094EA38
:100AE800050F08BF90EA020F05D054EA000C04BFB6
:100AF8001946104630BD91EA030F1EBF00210020A1
:100B080030BD5FEA545C05D14000494128BF41F03F
:100B1800004130BD14F580043CBF01F5801130BDA3
:100B280001F0004545F0FE4141F470014FF000002E
:100B380030BD7FEA645C1ABF194610467FEA655CDF
:100B48001CBF0B46024650EA013406BF52EA033581
:100B580091EA030F41F4002130BD00BF90F0000F6F
:100B680004BF0021704730B54FF4806404F13204AB
:100B78004FF000054FF0000150E700BF90F0000F64
:100B880004BF0021704730B54FF4806404F132048B
:100B980010F0004548BF40424FF000013EE700BF5B
:100BA80042004FEAE2014FEA31014FEA02701FBFEB
:100BB80012F07F4393F07F4F81F06051704732F01D
:100BC8007F4208BF704793F07F4F04BF41F4002174
:100BD800704730B54FF4607401F0004521F00041D2
:100BE8001CE700BF50EA010208BF704730B54FF05C
:100BF80000050AE050EA010208BF704730B511F05D
:100C0800004502D5404261EB41014FF4806404F194
:100C180032045FEA915C3FF4D8AE4FF003025FEA1A
:100C2800DC0C18BF03325FEADC0C18BF033202EB9E
:100C3800DC02C2F1200300FA03FC20FA02F001FAF8
:100C480003FE40EA0E0021FA02F11444BDE600BF9B
:100C580070B54FF0FF0C4CF4E06C1CEA11541DBF4A
:100C68001CEA135594EA0C0F95EA0C0F00F0DEF815
:100C78002C4481EA030621EA4C5123EA4C5350EAFA
:100C8800013518BF52EA033541F4801143F480134B
:100C980038D0A0FB02CE4FF00005E1FB02E506F0DC
:100CA8000042E0FB03E54FF00006E1FB03569CF031
:100CB800000F18BF4EF0010EA4F1FF04B6F5007F37
:100CC80064F5407404D25FEA4E0E6D4146EB0606A9
:100CD80042EAC62141EA55514FEAC52040EA5E5032
:100CE8004FEACE2EB4F1FD0C88BFBCF5E06F1ED8DC
:100CF800BEF1004F08BF5FEA500E50F1000041EB13
:100D0800045170BD06F0004646EA010140EA0200BF
:100D180081EA0301B4EB5C04C2BFD4EB0C0541EAE1
:100D2800045170BD41F480114FF0000E013C00F3F6
:100D3800AB8014F1360FDEBF002001F0004170BD1A
:100D4800C4F10004203C35DA0C341BDC04F1140433
:100D5800C4F1200500FA05F320FA04F001FA05F2BF
:100D680040EA020001F0004221F0004110EBD3708C
:100D780021FA04F642EB06015EEA430E08BF20EAB8
:100D8800D37070BDC4F10C04C4F1200500FA04F35B
:100D980020FA05F001FA04F240EA020001F00041ED
:100DA80010EBD37041F100015EEA430E08BF20EA60
:100DB800D37070BDC4F1200500FA05F24EEA020EA8
:100DC80020FA04F301FA05F243EA020321FA04F0D7
:100DD80001F0004121FA04F220EA020000EBD3708E
:100DE8005EEA430E08BF20EAD37070BD94F0000F8E
:100DF8000FD101F00046400041EB010111F4801FC2
:100E080008BF013CF7D041EA060195F0000F18BF72
:100E1800704703F00046520043EB030313F4801FAE
:100E280008BF013DF7D043EA0603704794EA0C0F68
:100E38000CEA135518BF95EA0C0F0CD050EA41067E
:100E480018BF52EA4306D1D181EA030101F00041FB
:100E58004FF0000070BD50EA410606BF1046194623
:100E680052EA430619D094EA0C0F02D150EA01362F
:100E780013D195EA0C0F05D152EA03361CBF104670
:100E880019460AD181EA030101F0004141F0FE410F
:100E980041F470014FF0000070BD41F0FE4141F493
:100EA800780170BD70B54FF0FF0C4CF4E06C1CEA93
:100EB80011541DBF1CEA135594EA0C0F95EA0C0F48
:100EC80000F0A7F8A4EB050481EA030E52EA033503
:100ED8004FEA013100F088804FEA03334FF0805524
:100EE80045EA131343EA12634FEA022245EA111551
:100EF80045EA10654FEA00260EF000419D4208BF02
:100F0800964244F1FD0404F5407402D25B084FEAAE
:100F18003202B61A65EB03055B084FEA32024FF45A
:100F280080104FF4002CB6EB020E75EB030E22BFB7
:100F3800B61A754640EA0C005B084FEA3202B6EB77
:100F4800020E75EB030E22BFB61A754640EA5C0026
:100F58005B084FEA3202B6EB020E75EB030E22BFB6
:100F6800B61A754640EA9C005B084FEA3202B6EBB7
:100F7800020E75EB030E22BFB61A754640EADC0076
:100F880055EA060E18D04FEA051545EA16754FEAD8
:100F980006164FEAC30343EA52734FEAC2025FEAF6
:100FA8001C1CC0D111F4801F0BD141EA00014FF085
:100FB80000004FF0004CB6E711F4801F04BF014356
:100FC8000020B4F1FD0C88BFBCF5E06F3FF6AFAE72
:100FD800B5EB030C04BFB6EB020C5FEA500C50F102
:100FE800000041EB045170BD0EF0004E4EEA113185
:100FF80014EB5C04C2BFD4EB0C0541EA045170BD8C
:1010080041F480114FF0000E013C90E645EA060ECF
:101018008DE60CEA135594EA0C0F08BF95EA0C0FFD
:101028003FF43BAF94EA0C0F0AD150EA01347FF445
:1010380034AF95EA0C0F7FF425AF104619462CE71C
:1010480095EA0C0F06D152EA03353FF4FDAE10467F
:10105800194622E750EA410618BF52EA43067FF4D0
:10106800C5AE50EA41047FF40DAF52EA43057FF460
:10107800EBAE12E74FEA4102B2F1E04324BFB3F509
:10108800001CDCF1FE5C0DD901F0004C4FEAC002F7
:101098004CEA5070B2F1004F40EB830008BF20F0DB
:1010A8000100704711F0804F21D113F13872BCBF95
:1010B80001F00040704741F480114FEA5252C2F1EA
:1010C8001802C2F1200C10FA0CF320FA02F018BF33
:1010D80040F001004FEAC1234FEAD32303FA0CFC86
:1010E80040EA0C0023FA02F34FEA4303CCE77FEA15
:1010F800625307D150EA01331EBF4FF0FE4040F45F
:101108004000704701F0004040F0FE4040F400000D
:10111800704700BF7BB972B90029BEBF00204FF0ED
:10112800004106E008BF00281CBF6FF000414FF0E7
:10113800FF3000F057B8ADF1080C6DE904CE002976
:1011480009DB002B1ADB00F061F8DDF804E0DDE9CB
:10115800022304B07047404261EB4101002B1BDBC6
:1011680000F054F8DDF804E0DDE9022304B0404261
:1011780061EB4101524263EB43037047524263EB18
:10118800430300F043F8DDF804E0DDE9022304B08E
:10119800404261EB41017047524263EB430300F068
:1011A80035F8DDF804E0DDE9022304B0524263EBD0
:1011B8004303704753B94AB9002908BF00281CBF28
:1011C8004FF0FF314FF0FF3000F00CB8ADF1080CD4
:1011D8006DE904CE00F01AF8DDF804E0DDE9022339
:1011E80004B07047704700BF10F8012B11F8013B9D
:1011F800012A28BF9A42F7D0D01A7047034613F83D
:10120800012B002AFBD1181A013870472DE9F04745
:1012180086468C460846089E154674461946002B95
:1012280040F0C1808542B2FA82F245D94AB1C2F192
:10123800200300FA02FC954094402EFA03F343EA97
:101248000C0C4FEA154EA8B2230CBCFBFEF80EFBA3
:1012580018CC08FB00F943EA0C43994528D9EB1848
:1012680008F1FF3704D2994502D9A8F102072B44A7
:10127800A3EB0903A4B2B3FBFEFC0EFB1C330CFB6F
:1012880000F044EA0344A04214D92C190CF1FF33AE
:1012980004D2A04202D9ACF102032C44241A43EA36
:1012A80007401EB1D440002334607360BDE8F08766
:1012B8004746DDE76346F1E792BB431B01214FEA4E
:1012C800154EAFB2200CB3FBFEFC0EFB1C330CFB1F
:1012D80007F840EA0343984561D9EB180CF1FF3051
:1012E80004D2984502D9ACF102002B44A3EB0803C1
:1012F800A4B2B3FBFEFC0EFB1C330CFB07F744EA5D
:101308000344A7424DD92C190CF1FF3304D2A7424C
:1013180002D9ACF102032C44E41B43EA0040C0E7C5
:10132800C2F120039540944020FA03F12EFA03F30A
:101338004FEA154E9040AFB20343B1FBFEFC0EFBE3
:101348001C10190C0CFB07F841EA0041884522D90A
:1013580069180CF1FF3004D2884502D9ACF10200BB
:101368002944A1EB08019BB2B1FBFEFC0EFB1C114A
:101378000CFB07F743EA01439F420ED9EB180CF127
:10138800FF3104D29F4202D9ACF102012B44DB1B8E
:1013980041EA004193E76046E3E76146F7E76046C4
:1013A800A4E76346B8E7834206D916B90021084680
:1013B8007CE7C6E900E0F9E7B3FA83F78FB983421F
:1013C80001D3724508D8BEEB020460EB0303012089
:1013D8009C461EB9002169E73846FAE7C6E9004C81
:1013E800F8E7C7F1200CBB400EFA07F522FA0CF417
:1013F8002EFA0CF1BA401C4320FA0CF3B8404FEA1D
:10140800144901431FFA84FEB3FBF9F809FB1830AD
:101418000B0C08FB0EFA43EA00439A4540D9E3183F
:1014280008F1FF3004D29A4502D9A8F102002344FA
:10143800A3EB0A0389B2B3FBF9F809FB183308FBDD
:101448000EFE41EA03418E452CD9611808F1FF339D
:1014580004D28E4502D9A8F10203214443EA004090
:10146800A1EB0E01A0FB02984145CE46434602D3AC
:1014780006D14D4504D20138B9EB020E68EB0403DE
:10148800002EA7D0B5EB0E0261EB030101FA0CFCAC
:1014980022FA07F3F9404CEA0303C6E9003199E759
:1014A8004046C5E74346D9E72DE9F04F2DED028BBD
:1014B80089B016F069FF002405460E4627469FEDC1
:1014C8005E8ADFF878A1013546F1000616F05CFF68
:1014D800A842B14117DA55EA06036FF0010000F09F
:1014E800A4806FF0004CA8427CEB06022B4638BF64
:1014F8000346314638BF6146C01A4FF0FF3363EBED
:10150800010116F08BFEDAF8000083684021DB68E1
:1015180098470028D7DBDAF80000836802AA1B691D
:10152800032198470398FFF729FB41A3D3E9002338
:10153800FFF7B8FC804602988946FFF71FFB024672
:101548000B4640464946FFF7CDF9FFF793FD07EEF6
:10155800100AC7EE087AFEEEEA7A17EE903A059876
:101568000FFA83FBFFF70AFB31A3D3E90023FFF748
:1015780099FC804604988946FFF700FB02460B4613
:1015880040464946FFF7AEF9FFF774FD07EE100A2B
:10159800C7EE087AFEEEEA7A17EE903A07981BB281
:1015A8000093FFF7EBFA22A3D3E90023FFF77AFCB5
:1015B800804606988946FFF7E1FA02460B46404600
:1015C8004946FFF78FF9FFF755FD07EE100AC7EEFA
:1015D800087AFEEEEA7A0E2217EE903A6243DFF8B6
:1015E80060800FFA83F9013708EB0203019348F88A
:1015F800027016F0C9FE0134019B009AE4B2102C67
:101608005860A3F808B05A81A3F80C907FF65BAF36
:1016180000F060FF044600283FF455AF1122414610
:10162800002000F027FF00244DE74FF0FF3168E766
:101638000000000080842E41C3F51C41F8160020EC
:1016480064320020000000002DE9F04F8246174662
:101658001C4600259FB00391387810B9284600F041
:10166800A9BD252809D00399D0470028C0F2A28532
:101678007B1C01350593059FEEE71822002110A871
:1016880017F028FB7B78252B00F0BC8000239846B8
:101698009E469C461846791C0E4611F8012B2B2AAB
:1016A80000F0E38000F2DA80202A00F0E180232AAB
:1016B80000F0E1802BB19DF8483043F040038DF8ED
:1016C8004830B8F1000F05D09DF8483043F02003AA
:1016D8008DF84830BEF1000F05D09DF8483043F032
:1016E80010038DF84830BCF1000F05D09DF8483044
:1016F80043F008038DF8483028B19DF8483043F08E
:1017080004038DF848309DF8483003F0440144291B
:1017180003D16FF386138DF848309DF848302A2A94
:1017280043F080030E968DF8483040F0A9809DF86C
:10173800493043F001038DF84930731C1A782E2A7A
:101748000CBF012100219DF8492061F341028DF869
:1017580049200CD15A1C0E925A782A2A40F0A080AF
:101768009DF84920023342F004028DF849201A7886
:101778006C2A00F0C18000F2A380682A00F0A980DA
:101788006A2A00F0C2804C2A00F0C78013F8012BA7
:10179800782A05938DF84B2000F209816D2A00F212
:1017A800C980692A00F20381572A00F2E280412A9F
:1017B80004D0A2F14503022B00F2F98004219DF820
:1017C8004A3002F0DF02A2F1410961F30203D9F1C4
:1017D80000029DF8491042EB090262F3C7110A069C
:1017E8008DF84A308DF84910CBB200F11F8103F013
:1017F8007802182A40F009816FF3C6038DF8493042
:101808000023F8E08DF84B30BB1C05939DF8493058
:101818009DF84A20DE0702F0070040F1098154F8DC
:10182800041B0029049108DA9DF8481041F00401CE
:101838008DF84810049949420491590740F10081F4
:1018480054F8046B002E80F2FF809DF849306FF346
:1018580041038DF849304FF0FF36F5E02D2A0DD0C1
:10186800302A7FF427AF012316E74FF0010C13E766
:101878004FF0010E10E74FF001080DE701200BE7CC
:101888000EA800F067FE0E9BB3423FF457AF9DF8D9
:1018980048201390C00F60F341028DF848204DE7AF
:1018A8000EA800F057FE9DF848301490C3F340028C
:1018B80042EAD07262F341038DF848300E9B56E736
:1018C800742A26D07A2A7FF461AF06219DF8492030
:1018D8000CE05A78682A9DF8492006D1012161F365
:1018E800C6028DF84920023350E7022161F3C6028F
:1018F8008DF84920013349E75A786C2A9DF8492028
:1019080001D10421EBE70321F0E705219DF84920E7
:10191800ECE707219DF84920E8E7BDF8482022F4C4
:10192800F04222F0020242F4804242F00202ADF894
:101938004820DFE76E3AD3B201229A4040F2824350
:101948001A429DF8493039D112F0240F61D1D107DC
:101958002DD503219DF84A2003F07803A3F1400810
:1019680061F30202D8F100038DF84A2043EB080323
:1019780041E00120A2F15801C9B200FA01F111F4C5
:10198800624F7FF41BAF40F6010319429DF84930BE
:101998001AD111F4043F0AD09DF84A2060F30202DC
:1019A80003F07803402B8DF84A207FF429AF9DF887
:1019B800483043F001038DF8483021E702219DF8B3
:1019C8004A2061F30202EBE702209DF84A1003F077
:1019D800780360F30201402B8DF84A1002BF9DF88E
:1019E800481041F001018DF84810632A7FF408AFD0
:1019F800003B18BF01239DF84820C2F340010B4368
:101A080063F341028DF8482000E713F0380FCED178
:101A1800F6E603219DF84A2013F0780F61F30202DD
:101A280014BF012300238DF84A20E4E70123E2E7ED
:101A38009DF948100029ACBF4FF0FF311399FBE620
:101A48009E077FF508AF149E00230428CDE91333C1
:101A58009DF8493007D1990705D49DF94910002907
:101A6800ACBF06260D2602F00702012AC3F3C30302
:101A780032D1DA1E042A04D8DFE802F020454520D6
:101A880020002268012B4FEAE271CDE910211BD119
:101A98009DF94020D117CDE9102104349DF8482044
:101AA800069292074FD03A465046059B039910F08C
:101AB80063FD0028C0F27E830544DCE554F8042B5E
:101AC800D117CDE91021E9E7022BE6D111B242F393
:101AD800C032CDE91012E0E7022A24D1DA1E042A26
:101AE80004D8DFE802F0181010181800012B4FF086
:101AF800000154F8042B14D0022BCDE91021CDD1CC
:101B080092B21092CAE7073424F00704F4E80201FD
:101B1800CDE91001C2E754F8042B1092002211926B
:101B2800BCE7D2B2CDE7042A08D1073424F0070471
:101B3800D4E900010834CDE91001AFE7032AADD19B
:101B480054F8042BDDE79DF84B80B8F1780F3FF689
:101B580092ADB8F1570F5CD8B8F1250F00F0A4800A
:101B6800B8F1240F7FF687ADB8F1410F04D0A8F182
:101B78004503022B3FF67FADDDE91023002BC0F2B1
:101B88004D810699080700F14C81C1F300194FEA0D
:101B98004919C3F30A51C3F31303002940F04481E0
:101BA80052EA030014BF4FF0010C4FF0000CD802AA
:101BB80040EA5250D702CDE90C70B8F1460F47EA17
:101BC800010740EAE17008BF4FF06608384300F0AB
:101BD800B781BCF1000F10D01B0343EA125317035F
:101BE8003A4618464FF0000C002880F25681BCF1A6
:101BF800000F40F05981CDE90C730D9BA1F2FE3B1B
:101C080043F000430D930021DDE90C230F46052026
:101C180060E1A8F15802202A3FF62DAD01A151F844
:101C280022F000BFF71D00007F1600007F1600009D
:101C38007F1600007F1600007F1600007F16000048
:101C48007F1600007F160000811B00007F16000031
:101C5800A31D0000B71D0000811B0000811B0000B0
:101C6800811B00007F160000B71D00007F160000D2
:101C78007F1600007F1600007F160000FD1D000083
:101C8800F71D0000471D00007F1600007F160000AA
:101C9800C11C00007F160000F71D00007F16000021
:101CA8007F160000F71D000040460399D047002822
:101CB800C0F280820135DEE4002E109F3BDB314606
:101CC800384617F03CF8002F3FF4D5AC4FF0000928
:101CD8003E18F31B9DF84A2012F01001069100F0FF
:101CE8005E82023312F04002DDF84C80089218BF81
:101CF800149A434418BF9B18049ACDF81C80002AF4
:101D080040F36882D31A9DF8482004935007C2F321
:101D1800800B00F15F82510640F14F82B9F1000F4C
:101D280007D048460399D0470028C0F24382D946D5
:101D38000135302242E23846FFF760FAC6E71098CC
:101D4800002800F027820DF175030093002117ABDE
:101D580012AA00F015FC4FF000090746BDF84A30FA
:101D680003F0EF0343F4F04343F01003ADF84A30B7
:101D7800002E0CDB9DF848200DF17503DB1B6FF37B
:101D880086129E428DF8482001D9F31A1393002F2A
:101D98003FF471AC0DF175066DE0109B4FF0000932
:101DA8008DF85C300DF15D06012317AF92E7069BB5
:101DB8001F0754BFC3F300194FF02B09DDE91023A7
:101DC80058BF4FEA4919002B06DA4FF02D09524245
:101DD80063EB4303CDE91023DDE910010DF1750331
:101DE800009312AA17AB00F0CBFB0746C0E74FF0F1
:101DF8000009F1E7109A072B3FF63DACDFE803F046
:101E08000C04060C08080C0C157034E4158032E438
:101E1800EB17C2E900532EE415602CE44FF02D09AE
:101E2800B7E64FF02B09B4E640F2FF70814231D19A
:101E3800A34908F101085FFA88F811F8081013435C
:101E480001F003011ED101290BBF492369234E214B
:101E58006E210CBF462266228DF85C309DF8483012
:101E68008DF85D106FF386138DF85E208DF848307D
:101E78000DF15F0617AFF31BB9F1000F3FF42AAF5E
:101E8800013327E7012915BF6E234E236121412124
:101E98001A46E1E74FF0000C89E692184FF0010C62
:101EA80001F1FF3140419FE6CDE90C20A5E652083B
:101EB80042EAC3725B08B3F1333F59460BF1010B99
:101EC800F5D201F1020B012100FB03FCA2FB002368
:101ED800013F63441BF1020FE9DB09B1CDE90C2393
:101EE800DDE90C32BBF1000F2DDCCBF10401A1F1CF
:101EF80020000BF11C0B02FA0BFB22FA00F0CA407F
:101F0800CB40079208F0DF0243EA0B03472A43EA73
:101F180000037BD1F91C01DBBE422ADAA8F10208D2
:101F2800002E5FFA88F87ADD9DF84820013E920677
:101F380075D4B6F1000B18BF4FF0010B721C26E0E8
:101F48004FF0000B5FE6023342F100020CA80BF1E0
:101F5800FF3B0137CDE90C3210F0DFFADDE90C3236
:101F6800DB185241002A0BF1FF3BF9DACDE90C32BC
:101F7800B6E79DF84820F61B90064DD4B6F1000B45
:101F880018BF4FF0010BF2194FF066084AD4102A17
:101F9800A8BF10229FED487B10208DED0E7B0B9083
:101FA800DDE90E01002A3FD1079A1B1842EB010117
:101FB800B1F1805F47D2CDE90C31069BB8F1660FCD
:101FC80003F0200240F0C680002F47DC30238DF854
:101FD8005C30002A76D1002E40F3BD812E238DF887
:101FE8005D3087B17B42B342A8BF3346002B1393C1
:101FF800A6EB0306D4BF002301239DF84A2063F310
:1020080045128DF84A200DF15E0340E0B8F1660FE5
:102018004FF0000BB7D091E74FF0000BB3E74FF04C
:10202800000B8BE70022B5E7400840EAC170490879
:10203800CDE90E010EA8CDE9082310F06EFA089A32
:10204800099B013AACE75B0843EAC1730CA849084D
:10205800CDE90C31013710F060FAAEE717AB0B99F8
:1020680000290BDD0BA90CA8CDE9063210F06DFA9A
:10207800069B013F079A03F8010BF0D11397AAB901
:10208800002E40F366812E2103F8011B0027002E45
:1020980021DD0B9A002A1EDD0BA90CA8069310F06F
:1020A80054FA069B013E03F8010BF0E72E2203F8D1
:1020B800012BEBE7AFF300800000000000000008F0
:1020C800A5A701002E238DF85D30002F9BD0002E90
:1020D80088DC0DF15E03BBF1000F4FD114961E464C
:1020E80008F0DF03452B24D1002FBABF7F422D23F0
:1020F8002B23632FC8BF64227370C4BFB7FBF2F3EE
:1021080002FB13774FF00A02C8BF03F13001B7FB97
:10211800F2F3C8BFB17003F1300102FB137386F804
:10212800008003F13003D4BF023603363170737078
:102138000236139B002B2BDC149B002BD4BF0023EF
:1021480001239DF84A2063F3861200238DF84A2064
:1021580033708FE60BA90CA8069210F0F6F9069AD0
:1021680030288DF85C0018BF07F1FF3712B9002E30
:1021780040F3F1802E238DF85D3044E71E4616F8B3
:10218800012C013B302AF9D02E2A08BF1E46A7E7AA
:102198000123D6E7714E81460523771F9AE511077B
:1021A80048BF01339EE5104609920399D04700289D
:1021B800099A05DA1FB0BDE8F08F2022DDF810B0CB
:1021C800594600290BF1FF3BEDDC049BCDF810B01C
:1021D8002B445D1AB9F1000F05D048460399D04742
:1021E8000028E7DB0135089B002B77D09DF94930A3
:1021F800002B28DB3B46DFF8689118789B4619F8D6
:102208000020013352073FD49DF84A30EF1B98064F
:102218005F4407D44246002A08F1FF383BDC079B9D
:102228003B449F1A9BF800002E280AD10399D047F7
:102238000028BFDBB8F1000F07F1010731DC0BF113
:10224800010B5D4638E0B94699F80000C846702889
:1022580009F1010913D1EF1B149D47443D44EB1BC1
:10226800002B33DC334642465046039910F084F97C
:1022780000289FDB3844049E0546064464E0039921
:10228800D0470028E0DA95E706930399D04700285D
:10229800069BB2DA8EE730200399D0470028B9DAD6
:1022A80088E730200399D04708F1FF38C0E7039941
:1022B800D0470028FFF67EAF2878A84619F80030E6
:1022C80001355907F3D4A7EB0B07C5E7302003996D
:1022D800D0470028FFF66EAF0137C0E79DF84A30B7
:1022E800DA0601D41B0706D530200399D047002809
:1022F800FFF660AF0135069B3BB103999DF84B0093
:10230800D0470028FFF656AF0135A84406E0302034
:102318000399D0470028FFF64DAF0135A8EB050318
:10232800002BF4DC33463A465046039910F024F962
:102338000028FFF63FAF28449DE720200399D047A7
:102348000028FFF637AF0135731B002BF5DCFFF7CC
:1023580092B91746BFE60DF15D03BCE6E59D0100A5
:10236800A6A7010030B51B481B4C8BB0206015F0A8
:102378002EFC50B34FF47A7300222068CDE9033263
:1023880083681C6814B1032103ABA047002003F045
:1023980047FCE0B911F084F90FF045FEB8B90F4DCC
:1023A80005AC0FCD0FC42B680222236001230C4912
:1023B800009305A80B4B04F057F840B94FF0FF31D4
:1023C8004FF0FF3015F02AFFF8E76FF012000BB05E
:1023D80030BD00BF908F0100F8160020D093010097
:1023E80040940100389401004B1E59425941014B59
:1023F80019707047423400204B1E59425941014B15
:1024080019707047413400201FB522240294044CEF
:102418000194BDF81840009413F047FA04B010BDB9
:102428002F0600201FB502240294044C0194BDF825
:102438001840009413F039FA04B010BD1C060020AF
:10244800F0B5044685B00D4616461F4615F09CFFAC
:102458000422074B29461860CDE90132BDF828301F
:102468003246009320463B4613F01FFA05B0F0BDF4
:10247800FC16002070B5134B05461B7886B0F3B1E7
:1024880010B9114B1D68D5B10E23104E03FB02F491
:10249800304600F8012B224616F0F5FB00211822E1
:1024A800684616F017FC0A4B013469462846CDE900
:1024B8000136ADF80C4006F0E7FF06B070BD6FF0CE
:1024C8007F00FAE742340020001700205233002032
:1024D80064940100014B1878704700BF4234002013
:1024E80038B5064D0446286808B104F039FA1CB11D
:1024F800204612F048F804462C6038BD001700202A
:10250800014B1B68184700BFD002002007B50B46D7
:102518000021024600910348FFF796F803B05DF8E2
:1025280004FB00BF0925000030B5002587B0CDE9C0
:1025380003010446009503A905480595FFF784F8AB
:10254800DDE904309842B8BF255407B030BD00BF5C
:10255800B7240100F0B5024601680A270020074E9B
:102568000B461C780131355D6D0701D41360F0BD51
:1025780007FB0043A3F13000F2E700BFA6A7010064
:102588002DE9F84F15469A46D378234A6F2B12F84F
:1025980003B081460F460BF0030B2BD026D8582BDF
:1025A8000CBF10260A26DDF828803246002348464C
:1025B8003946FEF7FFFD092A08F1FF38D4B21ED8C4
:1025C8003034B145E4B277F1000788F8004001D310
:1025D800D04511D82B789B0605D5082E15D1AB7898
:1025E80043F00803AB704046BDE8F88F03F0F703EB
:1025F800702BD5E70826D6E781460F46D5E7BBF10D
:10260800010F0CBF37345734DBE7102EEBD1AB7812
:1026180043F01003E6E700BFA6A701002DE9F04745
:10262800058B04462807904611D4022905F00705B2
:1026380040F0CC80204610F03CF878B10138218B6E
:10264800042811D8DFE800F0C2106D859500012933
:102658000CBF45F0100545F02005258388F3118847
:10266800BFF36F8FBDE8F08701F0070AAA4500F0B5
:10267800A5800027B9463E46A368002B00F0BC8021
:1026880041F00801218388F31188BFF36F8FA16897
:10269800002900F0BA800D68002900F0B6803346A2
:1026A80052462046D1F80480C047002D76D02B68CA
:1026B80029461D46F0E701F007035A1F012A1BD8D7
:1026C800002221F00701062B276889B2C4E90022FD
:1026D80009D13B4603E0628B013262831B68002B01
:1026E800F9D141F00201204621830FF0E2FF0028D2
:1026F8007AD041F0200176E0042B0AD121F00701BD
:1027080089B2204621830FF0D4FF10B141F0200197
:102718002183218B01F0070AAA454FD00027B9462B
:10272800AAE7236921F0070141F00601062DD3F835
:10273800009021832DD1B9F1000F3FD041F008015D
:10274800218388F31188BFF36F8F20463949C84722
:1027580029E021F00701236941F0040189B2042D21
:10276800D3F804902183E6D000274FF0040A3E46B0
:1027780082E721F00701236941F0050189B2052D9F
:10278800D3F808902183D6D000274FF0050A3E469B
:1027980072E700274FF0060A3E466DE72B4687E7AB
:1027A800B9F1000FD1D1EFF31188202383F31288F8
:1027B800BFF36F8F238B23F008032383258BEA064F
:1027C8002ED525F01003238305F007056669218BB4
:1027D800002EBFF670AF00232768C4E9003321F04C
:1027E800070141F001012183218B4FF0000901F01D
:1027F800070AAA457FF440AF002F9CD041F008019A
:10280800218388F31188BFF36F8F002FC8D03D68EC
:1028180039463346524620460FF077FF2F46F4E7F5
:10282800AB067FF51BAF25F02003238305F00705D2
:1028380000E700BF3F2701002DE9F7430F46064692
:102848000821C06A10F0A9F880463C68DFF8489073
:10285800241A3C6004EA0905AC4203D8002003B0FE
:10286800BDE8F08308236A462146304610F02DF86B
:102878000028F4D16946304610F099F840B1BDF807
:102888000230BDF8042005EA090513441D443C60E4
:10289800A4EB0804E0E700BF0000FFFF73B504469F
:1028A8004FF6FF72C06A082110F077F800256368B8
:1028B8000F4EADF800208DF80620E2681918334055
:1028C8001344181A60606846ADF80210ADF8045059
:1028D80010F05AF86946204610F029F92046211DC3
:1028E80010F02CF8284663683340A36002B070BD2E
:1028F8000000FFFF2DE9F047044688B000F11407F7
:10290800384615F012FAA06A8368DB689847E062D7
:1029180028B96FF01505284608B0BDE8F087A06A09
:102928008368DB6898470368013B1F2BF1D8E3688D
:10293800B3F5803FEDD8A06A216805AA13F088FA9C
:102948000028E6D1E568002DE3D0069BB5FBF3F23D
:1029580003FB1255002DDCD1238A012BD9D9E36A58
:10296800009593F805904FF0FF334FF0FF3238464B
:102978000AF0A4F90821E06A10F00FF8A846064604
:10298800238A1FFA85FA534508D8238A434523D159
:1029980038460AF00BFA6FF02C05BCE7E1682B0407
:1029A800891B13FA81F14A460823204600910FF04B
:1029B8009AFF78B1694620460FF0C0FF08F1010878
:1029C80008234A46204600991FFA88F80FF08BFF23
:1029D8000028DAD00135D3E79A450BD100990823AE
:1029E8004A462046891B0FF07EFF18B969462046E3
:1029F8000FF0A4FF69462046FFF71EFF054618B1F1
:102A080038460AF0D3F986E7009B4FEA13484FEAA5
:102A180008486360C4F80880D4E9011399420FD3C9
:102A28000823204601AA0FF050FF05460028E7D1E9
:102A380001AB13F8012B914533D10135082DF8D19D
:102A4800636869461B0C1B04204600930FF076FF51
:102A58004A462046E36800990FF045FF051ECFDB84
:102A6800636876D04FF6FF7906EB0308E3681FFA30
:102A780088F29B1B9A42CDF800802ED30023616810
:102A8800002B43D0090C09042046009169460FF039
:102A980055FF204600990FF05EFF0546002D74D0C3
:102AA800AEE7204601A90FF082FF626810B9921BB9
:102AB8006260B1E7BDF80850BDF80610E06AC4F8D6
:102AC800088029440FF069FF40449042A060EED18D
:102AD800002DECD06FF01C0568E008234146204625
:102AE80003AA0FF0F2FE0546002889D1204603A963
:102AF8000FF05DFF30B1BDF80C304B4502D1BDF889
:102B080010300BB1B044B1E70123B8E720460FF00D
:102B180022FF054600287FF473AF6368264AE16800
:102B280013400B44A3EB4603636013402046A360A5
:102B380010F025F8B1E74A4620465B1A0FF0D3FE9D
:102B4800051EFFF65DAF08D0E26AA3681268134459
:102B5800A360D4E901318B42EDD86168E36801EBE9
:102B680046029A429AD1DFF85080A26801EA080327
:102B78009A4293D020460FF0EEFE054600287FF4D7
:102B88003FAF636803EA0803A360E368A288A3EB86
:102B980046039A4206D038460AF008F90123002570
:102BA800A374B8E620460FF0D3FF054638460AF06E
:102BB800FDF8002DF2D0AEE60000FFFF034A1368CF
:102BC8000BB9526813600020704700BFD402002080
:102BD80030B50C460E4985B00291D0F8D41105469F
:102BE800CDE9003100F1F0014FF0FF33204609F044
:102BF80057FC50B9012384F86C30D5F8D03123B193
:102C0800204605B0BDE83040184705B030BD00BFCC
:102C18004331010038B50C461146054610F08FFACD
:102C2800034638B92846044910F089FA03460020BB
:102C3800236038BD0120FBE7FAA201002DE9F04F1F
:102C4800012381460569466891B005F57F77D7E885
:102C5800EF2F002A03D1C7E8E13F0029F7D10CBFC5
:102C68001A46002240F0BD80B368B16A05F5F878CD
:102C78001C1F104610F0EAFA84427BD8013A00F093
:102C8800AA80B2FA82F24FF00044D440726820461B
:102C9800073222F00302C5F83C22B16A10F0D6FAD6
:102CA800C5F84002B36A40466343033323F0030385
:102CB80002EB4302230103EB4403093323F003032C
:102CC80003EBC403C5F834221A440832C5F830228D
:102CD8007368C5F83842C5F82C32434BC5E9AD6373
:102CE800316800F0F3F90446002841D1D9F810B052
:102CF800D9F804A0D9F800300BF53479CDE90600ED
:102D080005934846DAE90734012B08BF103C15F053
:102D18008DF9DAF82400354905AB009301EB8021E1
:102D2800234648464FF480620AF09AFA2021DAF8DE
:102D380024302F4A0DEB01000FF0D8FB08A94846B4
:102D48000AF06EFB2B490BF5307015F028F9DAE91B
:102D5800050183685C684CB15B46274AA047044676
:102D680030B9DAE9050183681B692BB96FF057049C
:102D7800002129E001327CE7012298470446002817
:102D8800F6D11E4B2846C5F8D0311D4BC5F8D431B5
:102D98001C4B0393D5F840320293D5F83C32CDE969
:102DA800008305F51173B26AD5F8F81300F056F9E7
:102DB80004460028DCD105F1F00009F017FC0028D2
:102DC800C5F800040ADB0221384610F0ECF9204669
:102DD80011B0BDE8F08F6FF00B04C9E76FF0150470
:102DE800C6E76FF07704F2E799310100603E0020F2
:102DF800E69D01007F31010073310100112E0000B2
:102E08002B330100DF31010013B5044640B1002324
:102E18000122CDE90032074BD0E9091209F014FB71
:102E2800236F1B6823B1606F02B0BDE810401847DC
:102E380002B010BDFAA2010013B504460846216984
:102E480001F57F71D1E8AF1F022910D193B1A0B16C
:102E58000121CDE900311346D0E9091209F0F4FA4D
:102E6800074B984208BF6FF00B0002B010BD6FF01F
:102E78000F00FAE76FF04C00F7E76FF00100F4E796
:102E88002EF8FFFF2DE9F34789461546066906F532
:102E98007F73D3E8AF3F022B64D1136823B96FF077
:102EA800150002B0BDE8F0871B78002BF7D0D6F8E4
:102EB800F8A3BAF1000F36D106F5EC774FF0FF32E0
:102EC8004FF0FF33384609F0F9FE30462A6801A969
:102ED800FFF7A0FE019C80461CB9384610F061F946
:102EE800DDE705F108032367AB6984F86CA0636725
:102EF800646460B1384610F054F921463046A36E38
:102F08002A68FFF765FE0020C9F80040C9E71F22BC
:102F1800296804F1480015F0FFFE384684F86780F8
:102F280010F03FF9EFE73046104910F008F9044671
:102F38000028B4D0002705F108030367AB6980F8BF
:102F48006C70436740641F222968483015F0E4FE1E
:102F580022460121304684F8677000F061F80028A5
:102F6800D1D09CE76FF00F009BE700BFFAA20100E9
:102F780010B50C46006900F57F73D3E8AF3F022B0C
:102F88000FD189B10A4900F5307015F034F82046A0
:102F980014F023FB78220021204615F09BFE002028
:102FA80010BD6FF00F00FBE76FF00100F8E700BFFE
:102FB800041700202DE9F04F05460E4690460027DD
:102FC800D0F8C4A085B0AAF5BE7421463046FEF7F5
:102FD8000BF9E0B9114BA4F1480B0293DAF8103061
:102FE8003246CDE9008329464FF0FF335846AAF50B
:102FF800E27909F055FA60B97823012203FB0793B7
:1030080083F86C20DAF80C300BB1584698477834BE
:1030180017B105B0BDE8F08F0127D6E75933010095
:103028001FB5144690B18AB1012912D10A4B00F19B
:10303800F0010293D0F8D431483201934FF0FF33B6
:103048002046009309F02CFA04B010BD6FF015006B
:10305800FAE70020F8E700BF593301002DE9F043F3
:1030680087B00E46DDE90E811446DDE910251F46BE
:1030780030B329B3DFF850C000F1F009002D08BFC4
:1030880065469EB9CDE9034400F5E27420460596ED
:1030980014F03BFD03ABCDE900432A463B464146CD
:1030A800484609F01BFB07B0BDE8F0830022414603
:1030B8000E9248462A4607B0BDE8F04309F064BCC2
:1030C8006FF01500EFE700BFBD2F0000F0B5044614
:1030D8002B4A87B004AB0E4692E8030083E803004E
:1030E800002C49D0184609F0B5F80546B0B94FF09C
:1030F800FF33E16C04F15407A163CDE901000093AB
:103108003846236D04F1380213F017FFA06C10F055
:103118004EF9C4F8BC0020B96FF00B05284607B07B
:10312800F0BDA06C10F043F9C4F8C0000028F3D03B
:10313800236CD4F8BC10C4F890300423C4F894303D
:10314800C4F8AC300223E3620E4BB4F84820C4F84C
:103158008C10616C236204F18C03C4F8A070A4F88D
:103168009820C4F8B870C4F8A810A4F8B020C4F81F
:10317800A400A6612363D1E76FF01505CEE700BF71
:10318800E493010058950100014B0360002070474B
:10319800849501002DE9F74F056A064625B90024F4
:1031A800204603B0BDE8F08F0521284610F0B4F999
:1031B8000028F4D00821306A10F0AEF9074660B351
:1031C800EFF31187202383F31288BFF36F8F356ADB
:1031D800EA682B68E2B95A070AD401213046AB687D
:1031E8009847041E0EDA87F31188BFF36F8FD7E76D
:1031F8002869036A1B68DB050CD5FFF7CBFF041EA3
:10320800EBDAF0E700232B71EB680133EB60EAE7B8
:103218000024F9E76FF00A04E5E7DFF8108198F871
:10322800004054B114F058FF421E67F1000305F145
:10323800180010F077F9041E74DB14F04DFF10B17C
:103248002B79022B13D02F6927B30221306A10F093
:1032580063F9F8B93846FFF79DFF044648B90121DC
:10326800284610F059F968B1384610F05FF96FF048
:103278000A0498F80030002B92D005F1180010F0DD
:1032880053F98DE7D5E8EF3F43F00403C5E8E23F83
:10329800002AF7D1EB680133EB602B79022B08D1B8
:1032A80005F1400014F0D5FE10F0010001D128719D
:1032B800DFE798F8003043B14FF0FF3A4FF0FF3B9B
:1032C80005F130062B79022B11D0EB68012BD0D8F1
:1032D8000121AB6868699847041E20DAEB68013B56
:1032E800EB60002FC5D0384610F020F9C1E7032164
:1032F800304605F1180915F056F9484610F014F94A
:10330800002203213046CDE900AB15F050F94FF00B
:10331800FF324FF0FF33484610F004F9D2E700239C
:103328002B71A6E76FF00A043AE700BF5B3600206E
:103338002DE9F047056A064689462846052110F01A
:10334800EBF890461F46044640B3DFF8A4A09AF86D
:10335800001031B314F0C0FE4FF0FF33421E43F1AA
:10336800000305F1180010F0DDF8041E3DDB4946A6
:10337800EB68002B36D0013BEB6043B999B10223CF
:1033880042462B7105F140003B460AF00FF89AF8C7
:1033980000301BB105F1180010F0C6F82046BDE852
:1033A800F0870C46E4E7AB6868699847041E03DABF
:1033B800EB680133EB60EAE701232B710221306AE5
:1033C80010F0AAF80028E2D0336A186910F0AEF8B5
:1033D800336AD3E8EF1F21F00401C3E8E21F002A93
:1033E800D5D0F6E76FF07704D1E76FF00F04D5E793
:1033F8005B360020F8B5056A0646002D5DD005212C
:10340800284610F089F800285AD1304610F010F8F4
:103418000446002856D10821306A10F07DF8E0B142
:10342800356AEFF31187202383F31288BFF36F8F78
:10343800297931B93046AB689847041E07DB012368
:103448002B712B6843F020032B600023EB6087F37C
:103458001188BFF36F8F2046F8BD1C4F3B783BB1F6
:103468004FF0FF324FF0FF3305F1180010F05AF813
:103478006B692BB916496E6105F1400014F0DDFD4A
:103488002979C1B9AB6868699847041E0BDB012329
:103498002B710023EB60D5E8EF3F43F02003C5E82C
:1034A800E23F002AF7D13B78002BD4D005F1180071
:1034B80010F03AF8CFE70024EBE76FF08504CAE78D
:1034C8000024C8E76FF00F04C5E700BF5B36002093
:1034D8007335010070B5104B0D461C68B4B10F4B25
:1034E800196800238B4202DB6FF0010070BD224691
:1034F80012F8106B864202D014460133F2E7E068F6
:1035080014F065FB28B100202C60EFE76FF00C0089
:10351800ECE76FF01200E9E754030020B0950100D2
:1035280010B5436888B0029383680C46CDE903322E
:1035380000230A68C068CDE90623054901AA059356
:1035480012F08AFC079808B9059B236008B010BDE3
:10355800333601002DE9F0410C4B05461C680E4638
:1035680017467CB100F01AF963682046D3F810803A
:1035780032463B462946C047044600F019F9204622
:10358800BDE8F0816FF00104F9E700BF2C170020B7
:1035980000230360044B5A6812B9C3E9000070475E
:1035A80010605860704700BF30170020014B18604A
:1035B800704700BF2C170020002330B585B0CDE937
:1035C80002330546019000F0E9F8094B1C6844B93C
:1035D800284600F083F8044600F0EAF8204605B0D3
:1035E80030BD636820461B6801A998472468EEE748
:1035F800301700201FB5CDE90101039200F0CEF885
:10360800074B1C6824B900F0D3F8204604B010BD5D
:10361800636820461B6801A998472468F2E700BF41
:10362800301700200022024BC3E90022704700BF78
:10363800301700200022024BC3E90022FFF7F2BF37
:10364800381700202DE9F74307460C4609B1002337
:103658000B6000261E4DDFF880904D450FD31D4BA3
:103668001D6885B355F8188C3846414601AA183D9F
:1036780010F01DF810B3D6B914BB2E461EE0D5F8CD
:1036880000803846414601AA10F011F850B116B929
:1036980054B92E4606E000224046316810F007F87B
:1036A8000028F5D11835D8E7019B2360F1E70022FF
:1036B800404631680FF0FBFF0028DDD1AD69D0E747
:1036C800019B2360D9E7304603B0BDE8F08300BF13
:1036D8005893010038170020D09301002DE9F047D6
:1036E80080464FF000470026DFF8A890DFF8A8A032
:1036F8003D46274C4C450DD3DAF80040002C42D00B
:10370800183CB8F1000F25D122695ABBA469F5E726
:103718002F46EDE7B8F1000F03D122694AB91834F2
:10372800E8E70022414620680FF0C1FF0028F4D1E5
:10373800F5E76368BB4205DDAF4209D09D42A8BFEB
:103748001D46ECE7EBD19047002E08BF0646E6E79A
:103758001D46E4E70022414620680FF0A8FF002834
:10376800D2D1D3E76368BB4205DDBD4209D09D4293
:10377800A8BF1D46CAE7C9D19047002E08BF064614
:10378800C4E71D46C2E7AF42C2D13046BDE8F08764
:1037980058930100D0930100381700204FF0FF32F2
:1037A8004FF0FF33014809F089BA00BF4C070020E9
:1037B800014809F0FBBA00BF4C07002038B5094D95
:1037C800FFF7ECFF2B783BB9FFF734FF00F06AF8FE
:1037D800044610B901232B700024FFF7E9FF2046A7
:1037E80038BD00BF433400202DE9F047064689461E
:1037F800048FDFF8ACA0013498B0A4B200F1080738
:10380800651EADB2B5F5004F47D04A23294605AA33
:1038180038460FF0B3FB04F57F543F34A4B280461A
:103828002146012338460DF10B020FF0A7FBB8F132
:10383800000F014610DC002810DC338FAB4209D1A1
:1038480032466B1E22F8383F4FF4004102233846B7
:103858000FF062FA2C46D3E7002808DC29463846E0
:103868000FF028FB214638460FF024FBE5E708F166
:1038780060030DEB03080023524608F84C3C05A8EA
:10388800CDF8009003AB0397ADF810400FF045FF5B
:103898000028DFD018B0BDE8F0870020FAE700BFA5
:1038A800913701007FB50125694628460195FFF744
:1038B80011FE044660BB284602AA01A90FF0D7FEF4
:1038C800044610B110F10C0F22D10399B1F5803FD5
:1038D80023D200231846009A9468084484421AD3D5
:1038E8000133082BF9D10E4D69612B8353682846A3
:1038F800AB60D368EB630FF0DFFF044640B9094EB5
:1039080028466E60FFF744FE28466E60FFF74EFEBD
:10391800204604B070BD9BB2E5E76FF02004F7E7DE
:10392800401700200003002008B504480EF0D1FD20
:10393800BDE8084002480EF0CCBD00BFF29D010072
:10394800279E010001480BF0DDBD00BF84950100F2
:1039580038B5044618B90F4B0F485B68984761683B
:10396800B1F5683F10D0B1F5680F0DD00B4DA942E5
:103978000AD011F46861206807D00146084814F09D
:1039880089F900232360656038BD142215F0A2F977
:10399800F9E700BF54050020559E01002C5F5CA983
:1039A800801C002008B560B34368B3F5683F0ED0AB
:1039B800B3F5680F18D0144A934220D000684FF02E
:1039C800FF324FF0FF3309F079F958B115E00122C1
:1039D8000368D3E8EF1F002903D1C3E8E02F0028CC
:1039E800F7D10AD1002008BD0368084A1B7803F5FF
:1039F800807352F82330002BF4D00548F3E70548CC
:103A0800F1E76FF4E040EEE72C5F5CA9000003509B
:103A1800E98FFFFFEA8FFFFF08B520B34368B3F5CE
:103A2800683F09D0B3F5680F13D0114A93421DD0EF
:103A3800006809F0BBF914E000220368D3E8EF1F1F
:103A4800012903D1C3E8E02F0028F7D109D009489C
:103A580008BD00210368084A1B7803F5807342F803
:103A680023100020F4E76FF4E040F1E70348EFE7A4
:103A78002C5F5CA9E98FFFFF00000350EA8FFFFF6E
:103A880010B5044618B91D4B1D485B689847636814
:103A9800B3F5683F2FD0B3F5680F2CD0194A93427D
:103AA80019D1236803BB4FF0FF324FF0FF33214693
:103AB800154809F0D5F808B923681BB90F4B134806
:103AC8005B68984714220021206815F003F94FF429
:103AD8006863636008E0B3F5683F0DD83A2B03D0FC
:103AE80040F6BA629342DED1206814F01EF963688A
:103AF80043F03A03636010BD054AF3E7540500201C
:103B0800559E01002C5F5CA9801C00207B9E010053
:103B18003A00003A08B5064940231422054814F033
:103B2800ABF8BDE80840044904480BF0AFBD00BF3E
:103B380080170020801C00208C950100A0950100B2
:103B480008B50348034A0021121A0FF0EBFE08BD1E
:103B58003009002060360020074808B5074A0849A0
:103B6800121A0FF0E1FEBDE808400648064A074968
:103B7800121A0FF0D9BE00BF000000203009002043
:103B8800A8A801000000002000000020A8A801004B
:103B98002DE9F04107460C4686B000292FD0D1E91F
:103BA80001231E4809680EF094FCD4E90423E16857
:103BB8001B480EF08EFCE1691A480EF08AFC264676
:103BC8000025DFF87080F36A29460493EB1C039301
:103BD800B36A40460293AB1C0193736A1036009394
:103BE80032696B1C04350EF074FC102DEBD1216E7C
:103BF8000D480EF06EFCA1690C480EF06AFC012F0E
:103C080005D1EFF305810A4810390EF062FC214610
:103C1800384606B0BDE8F04108F0CCBEA89E0100C9
:103C2800D89E0100089F01005C9F01006C9F010065
:103C38009B9F0100189F010030BFFFF7FDBF00BF29
:103C4800054B9A699B689A421FBF044A536843F020
:103C580080535360704700BF9021002000ED00E0C2
:103C680010B5204C20480EF034FCA36A990137D5D2
:103C78001E480EF02EFC1E20A36ADA0103D51C484C
:103C88000EF027FC1F20174CA36ADB0203D5194846
:103C98000EF01FFC0220A36A1C0303D516480EF081
:103CA80018FC21200F4CA36A590303D513480EF0C2
:103CB80010FC2220A36A9A0303D511480EF009FCD0
:103CC8002320084CA36ADB0303D50E480EF001FC41
:103CD8002420A36A6FEA03436FEA1343A36210BD6B
:103CE8001D20C9E700ED00E0AF9F0100C89F01005B
:103CF800DC9F0100F79F010022A0010041A0010004
:103D080067A0010082A0010070B5244C0646244833
:103D18000D460EF0DEFBA36AD90435D521480EF016
:103D2800D8FB1720A36A1A0503D51F480EF0D1FB4C
:103D380018201A4CA36A9B050FD51C480EF0C9FB26
:103D4800A16BA36A180407D519480EF0C2FB1EB16F
:103D5800A36A23F40043A3621920104CA36A5905EF
:103D680003D514480EF0B5FB1A20A36ADA050DD561
:103D780011480EF0AEFB1B20084A936A43F47F43B8
:103D8800936200232B7070BD1620CBE7A36A9B04B7
:103D9800F2D50A480EF09DFB1C20EDE700ED00E08F
:103DA800AEA00100C5A00100D7A00100EBA0010052
:103DB80005A101001BA1010037A1010050A10100CC
:103DC80070B5264C064626480D460EF082FBA36ABF
:103DD800D80640D523480EF07CFB1120A36A1907AA
:103DE80003D521480EF075FB12201C4CA36A9A07D4
:103DF8000FD51E480EF06DFB616BA36A1B0607D535
:103E08001B480EF066FB1EB1A36A23F08003A36271
:103E18001320124CA36ADE0703D516480EF059FB8F
:103E28001420A36A9C0603D513480EF052FB1520F4
:103E38000A4B9A6AD10658BF9A6A9A6A920642BF92
:103E48005A6A22F400525A629A6A42F0FF029A624F
:103E580000232B7070BD1020C0E700BF00ED00E00C
:103E680080A1010097A10100D7A00100CBA101000A
:103E7800E4A10100FBA1010050A101002DE9F041DE
:103E8800574B05465F6800269CB0C7F3080486F3C5
:103E98001188BFF36F8F02F07F43B3F17F4F06D1D4
:103EA80002F00C03082B12D14E480EF012FB00262C
:103EB80035464FF00008E31E8DF80780092B7ED8A1
:103EC800DFE803F00A73776F7D7D7D7D7D7B1007CA
:103ED8004CBF0D460126ECE74348414C0EF0F9FA79
:103EE8008DF80780E36A9A0704D540480EF0F1FA86
:103EF80000242FE0E36A002B01DA3D48F6E7E36A85
:103F08005B00F5D53B480EF0E4FA6369AA6943F40F
:103F180080736361BFF34F8FBFF36F8F636932F8AC
:103F2800022C23F480736361BFF34F8FBFF36F8F4D
:103F38004DF602739A4208D0A36ADBB21BB3012084
:103F48000DF10701FFF73CFF2DE029682A480EF024
:103F5800C0FA2C689DF8073093B96822294602A850
:103F680014F091FE099BB6B3C3F3080222B96FEAB5
:103F780053236FEA43230993204602A9FFF708FE5B
:103F88001CB0BDE8F081A36A13F47F4F05D001206F
:103F98000DF10701FFF7B8FE05E0A36AB3F5803F0E
:103FA800A6D3FFF75DFE0446D4E700200DF1070114
:103FB800C8E700200DF10701ECE7104896E7104B21
:103FC80017F4F87F0F49104818BF1946A4F11002DA
:103FD8000EF07FFA8CE723F4FF7323F00103CAE79E
:103FE80000ED00E049A2010075A201008DA20100C8
:103FF800AFA20100BEA20100DEA20100FBA20100E7
:1040080030A201001BA2010020A30100064B5A693F
:1040180042F010025A615A6942F480625A615A6940
:1040280022F008025A61704700ED00E0EFF30880C3
:10403800EFF3098101B57246FFF720FF01BD00BF0C
:10404800002080F31488BFF36F8F002080F30A8864
:1040580080F30B88104880F3088800200F49087007
:1040680006F010FE00200E490860BFF34F8F00F0E5
:104078002DF8202080F311880A484FF40061401879
:1040880080F30988EFF314800221084380F3148831
:10409800BFF36F8F00F008F9086800205B36002036
:1040A80094ED00E0C84E0020002318460649D1F8D8
:1040B8009020C2F30722934200DB7047C1F8983082
:1040C800C1F8A0000133F6E700ED00E010B572B6C4
:1040D800002484F31388FFF7E7FF23464FF0FF30EF
:1040E8000C4A03F120010133102B42F82100F8D1CA
:1040F80000234FF0FF30074A03F160010133102B12
:1041080042F82100F8D162B6BFF34F8FBFF36F8F2B
:1041180010BD00BF00E100E0084B9B6883420BD153
:10412800EFF3058343B1064B5A6842F080525A6058
:104138005A6A22F400425A6209F0B2BC9021002067
:1041480000ED00E023498A6882F805E14FF030006D
:104158001044EFF3098C80E8F01F1EF0100F03D114
:1041680002F1C40080EC108A202080F31288BFF38B
:104178006F8F194F4FF000668A698A603E6092F926
:1041880005E1D2F8BC000023C2F8BC3080F31188E6
:104198001EF0100F03D00023E1EE103A03E002F105
:1041A800C40090EC108AEFF3148323F0040383F324
:1041B8001488BFF36F8F02F1300090E8F01F8CF382
:1041C800098802F1000004B50FF0BFFBBDE8044008
:1041D800704700009021002004ED00E01EF0040F5D
:1041E8000CBFEFF30880EFF30980816911F8021C16
:1041F8000229FFD001B572460FF098FB01BD00BF40
:1042080040B2002807DB01234109034A00F01F00E0
:10421800834042F82130704700E100E040B20028B6
:104228000CDB01220649430900F01F0082402033BD
:1042380041F82320BFF34F8FBFF36F8F704700BF44
:1042480000E100E0054B420953F82220012300F069
:104258001F0003FA00F01040704700BF00E100E0C3
:1042680040B2002801F10101ACBF00F16040064BEB
:104278004FEA4111C9B2ABBF00F5614000F00F0031
:1042880080F800131954704714ED00E0044B054AF8
:1042980023F07F039360BFF34F8FBFF36F8F704797
:1042A8000000000000ED00E008B5FFF7EFFF104B3D
:1042B800D3F8882022F47002C3F88820D3F8882025
:1042C80042F4A002C3F888204FF04042C3F83422D9
:1042D800BFF34F8FBFF36F8F0023E1EE103AFFF764
:1042E8002FFCFFF739FC00F077F808F02DFC00BF31
:1042F80000ED00E042F8203C009B0D4942F81C3CD0
:10430800019B21F0010142F8183C029B42F8081C6D
:1043180042F8143C4FF0807342F8043C0023C0F884
:10432800BC304FF47D43203A0265C0F80431704731
:104338000F250100104B9B6883421AD1EFF30580CB
:10434800B8B9EFF31181202282F31288BFF36F8F7F
:104358001A7B22F002021A73EFF3148323F004038A
:1043680083F31488BFF36F8F81F31188BFF36F8FC6
:1043780070476FF015007047902100200E461546D3
:10438800002300B5E1EE103AEFF3148323F00403A1
:1043980083F31488BFF36F8FBFF36F8F0A4B986056
:1043A800D0F8AC3083F30B882C4686F309880020BC
:1043B800034B98472046002100220023014C204748
:1043C800613901000F250100902100201022014BC6
:1043D8001A61704700ED00E0002320210348C2184D
:1043E8000133452B82F80013F9D1704700E100E052
:1043F80008B5EFF30583064A103B02EBC30152F8F8
:10440800330049688847BDE80840FFF719BC00BF7A
:10441800B48F01001FB5094C094A234601210948F8
:1044280000F0FAF800230393074B0121E41A01A8CE
:104438000193029400F0FAF804B010BD00000720C0
:1044480000000020E49501003009002010B50C7A26
:104458000B6804F01F0223F01F031A43CB6864099A
:1044680023F01F03054943EA440343F00103C1F85D
:104478009800C1F89C20C1F8A03010BD00ED00E004
:1044880010B5074BD3F89030C3F30723013B98428C
:1044980002D8FFF7DBFF10BD6FF01500FBE700BF88
:1044A80000ED00E02DE9F04F0F46144606464FF0A8
:1044B80000084D4D85B0B84580F29280D6F804903A
:1044C800B9F1000F36D0B9F11F0F40F2878019F00B
:1044D8001F0F40F08380D6F800A01AF01F0F7DD17F
:1044E80050460FF075FA834609EB0A0001380FF0C1
:1044F8006FFA834572D11BF1160F6FD05C456DDDE5
:10450800C5F898B0D5F89C10C5F898B0D5F8A03083
:1045180021F01F0143F01F0AD6E900321A449942DC
:1045280002F1FF391ED1CA4508D131465FFA8BF036
:104538000FF057FA08F101080C36BCE73146C5F808
:1045480098B0D5F89C3022F01F0203F01F031343E4
:10455800C5F89C30E0B20FF044FA10F1160F3DD0C8
:10456800441CE7E7C5F898B0D5F8A020013B23F034
:104578001F0302F01F021343CA453146E0B2C5F8D3
:10458800A030E8D00FF02DFA10F1160F26D0C5F89C
:1045980098B0D5F89C209DF808300AF1FF3A62F3EC
:1045A80004038DF80830D5F8A0309DF808205B0882
:1045B80063F347128DF80820D6E9003213440093BC
:1045C80023F01F035344A3EB0903013023F01F0317
:1045D8006946C0B20393FFF753FFBEE76FF01504B7
:1045E800204605B0BDE8F08F00ED00E00522044B41
:1045F800C3F89420BFF34F8FBFF36F8F704700BF8E
:1046080000ED00E0BFF35F8F0022024BC3F8942057
:10461800704700BF00ED00E010B5034C2278FFF7AB
:1046280041FF207010BD00BF443400202DE9F74F32
:10463800294D8A4606464FF00008AB46274FD0451D
:104648001BDAD6F80490B9F1000F3FD0316808465C
:1046580001910FF0BDF90199044609EB01000138F9
:104668000FF0B6F984424FF014021D4B08D002FB3C
:1046780008F36FF015024BF8032003B0BDE8F08F84
:1046880014F1160F2C60F8D01978A142F5DD02FB61
:1046980008B0C7F89840C7F89840D7F89C4000F190
:1046A8000801007B64F304000871D7F8A0000C79B6
:1046B800400860F347140C71D7F89C1021F01F01D3
:1046C8006960D7F8A01021F01F01296108F10108DD
:1046D80014350C36B3E700BF9C1C002000ED00E049
:1046E80044340020F0B54149414CD1F89030256858
:1046F800C3F307239D4287B075D80020FFF782FFD8
:104708003C4BC1F8C030854216D13B4C01A82570FE
:10471800FEF73AFD00250646384FAE4213D1002079
:1047280023783249D1F89020C2F30722934254DB10
:10473800FFF75CFF00202FE0616801EB0011FFF735
:1047480085FE0130DFE70199280101EB0513DA68DE
:104758003A40B2F5001F21D0B2F5800F2BD0B2F548
:10476800801F38D15A689B680958013B22F01F0006
:1047780003440120844623F01F0340EA4C10CDE98E
:1047880002218DF8100002A920780593FFF778FE22
:1047980000281DDA6FF0150007B0F0BD5A689B6855
:1047A8000958013B22F01F0003444FF0020C01207E
:1047B80023F01F03E1E75A689B680958013B22F080
:1047C8001F0003444FF0000C022023F01F03D4E71E
:1047D80023780133237001359FE7C1F89830C1F879
:1047E800A00001339EE74FF0FF30D5E700ED00E071
:1047F800F0950100AAFF4400443400200000F0FFB7
:10480800F8B50D46094F461EC0F10104A3199D4293
:1048180001DC2846F8BD73780A2B02D10D203B68CD
:1048280098473B6816F8010F9847EFE758030020B0
:1048380008B505210148FFF7E3FFFEE743A30100A0
:1048480070B541690446867A0A4D59B1437ADB0747
:1048580006D42C2303FB06535B6A1B689B689847A6
:10486800002363612C20214606FB0050BDE8704000
:1048780013F003BBA40700202C22024B02FB0030DC
:10488800704700BFA40700202C21827A054B01FB4A
:1048980002339A6A1B7F801A1B3323F00303B0FB91
:1048A800F3F07047A407002038B52C24827A064B11
:1048B80004FB02335B6AD3E901240C601568FFF737
:1048C800E3FF04FB005038BDA40700202DE9F043A6
:1048D80085B00546684690461C46039113F056FD80
:1048E800DDE90067EFF31189202383F31288BFF312
:1048F8006F8F6B8B002B41D02A8B9A4225D90022CF
:104908000023284608F0A2FA0446F0B189F311887A
:10491800BFF36F8F039B002B41D032463B4668465E
:1049280013F059FD2C21A27A254B204601FB0233B6
:104938005B6A03A91B681D68DDE90023A84760615D
:1049480070BB2046FFF77CFF24E0698B4B1E6B830E
:1049580089F31188BFF36F8F2B7F2A8BAC6A1B33C7
:1049680023F00303521A02FB0344154B154AEB1AB2
:104978009B105343A3722B7FE372CBE789F3118813
:10498800BFF36F8F23464246284608F05FFA044675
:104998000028BFD10024204605B0BDE8F08363613C
:1049A800012300252381039B29466382E27A6560FF
:1049B80004F1180014F08EF963692582E360EAE7D0
:1049C800A4070020A38B2EBA70B52C250C4C00B977
:1049D80070BD037A4668002BFAD0013BDBB2037244
:1049E800002BF5D1C3604360837A05FB03431B6A40
:1049F80013B198473046EAE7FFF722FFFAE700BF0E
:104A0800A4070020054B03EB8000D0F8003223F008
:104A1800E04343F04053C0F800327047002584500B
:104A2800052370B5144D154E2C780134B4FBF3F3FF
:104A380003EB8303E41A12F061F8114A137823B1E7
:104A480056F82430C01A072814D94FF05023D3F849
:104A5800141141B10021C3F81411D3F814312C708A
:104A68000CB9012313702C7812F048F846F824008A
:104A7800012070BD0020FCE746340020B01C002057
:104A880045340020012108B5114B124AC3F800151E
:104A980002230020C2F8D036FFF7B4FF0846FFF71C
:104AA800B1FF4FF47F03D3F8203CC3F344131B0139
:104AB800603B9B0943F48073C2F8C435C2F80417FD
:104AC800C2F80419C2F8001BBDE8084000F098B805
:104AD800001000500040005007B54FF480620B4BA7
:104AE8000B49C3F8B8254FF400620A48C3F83C25BF
:104AF8000DF1070212F044F8002803DB9DF80700C7
:104B080006F0C0F903B05DF804FB00BF00A0025036
:104B18002CA0025028A1025048B1054B054A1B6839
:104B2800B3FBF2F35843044B43F0010318477047B3
:104B38000005002040420F0030940100002170B5AC
:104B4800104C114D114E000714F8013B03F01F02E1
:104B58005B090FD0012B0FD1334603EB8203D3F847
:104B68000022013122F0E04202430429C3F8002266
:104B7800EAD170BD2B46F0E70023803253F822308B
:104B8800FFDE00BF4DA3010000258450002884509B
:104B98002DE9F041064601200D46FFF7CFFF4FF4FF
:104BA8007F03D3F83021D3F83431072A20D1023BD0
:104BB800032B02D8114AD35CD3B14FF050244FF0E5
:104BC800010800270520C4F81886C4F8147611F0E7
:104BD800BBFF4046C4F8148611F0B6FFC4F814763B
:104BE800C4F8187630462B46BDE8F0410021184736
:104BF8004FF050230022C3F81426F3E749A301001D
:104C0800014902480DF0A5BD24960100C41C0020EE
:104C18001FB578B10023019303930123694608481F
:104C280002930DF0A9FD029B9B0700D1039B05B0E1
:104C38005DF804FB024805B05DF804EB0DF0F3BD28
:104C4800C41C002008B54FF0FF323F230348C0E9D9
:104C5800002306F003F9002008BD00BFE01C002077
:104C680008B5044812F0B3FF00280CBF6FF012001B
:104C7800002008BD708E01002DE9F3410446174657
:104C88009846174DD5E8AF3FDA0727D520B96FF01A
:104C9800010002B0BDE8F08101A90EF02CFD114918
:104CA8000246204614F026F80028F0D1D5E8AF3F98
:104CB800C3F3C0061B0711D4A5F1D404072221466B
:104CC8004046B847062887BF0723B0FBF3F045F8EE
:104CD800D46CE67194BFC4F80360E0710020D8E793
:104CE800D400002068A501002DE9F04188B0DDF866
:104CF80038809C795D791E79DF7893F802C093F843
:104D080001E01B78B8F1000F0ED0CDE90638CDE9E7
:104D180004CE1346CDE90267CDE90045084A0DF0F7
:104D2800E5FB08B0BDE8F081CDE905E3CDE9037CFA
:104D38001346CDE90156034A00940DF0D7FBF0E77E
:104D48006BA301008FA3010070B504461E461546EB
:104D58008CB0A2B129B10A4602A804210DF030FC9A
:104D680002A900912B462246242103A8FFF7BCFF85
:104D78003146109A03A8FEF7EDFB0CB070BD034650
:104D88002421044A03A80DF0B1FB0028F0DA6FF0E3
:104D98001500F2E7B0A3010007B5064B0648DA791B
:104DA800C2EBC202009200221146FFF7CDFF03B00A
:104DB8005DF804FB0000002068A5010030B504463A
:104DC80015468DB092B129B10A4602A804210DF00A
:104DD800F7FB02A900912B462246242103A8FFF7DE
:104DE80083FF03A80EF05FFC0DB030BD03462421FD
:104DF800044A03A80DF07AFB0028F2DA6FF01500D8
:104E0800F2E700BFB0A3010007B5009313460A46B6
:104E180001460348FFF798FF03B05DF804FB00BFA5
:104E2800B7A501000A4601460148FFF7C7BF00BF02
:104E3800B7A5010007B5009313460A460146034883
:104E4800FFF782FF03B05DF804FB00BFB1A50100C6
:104E580007B5009313460A4601460348FFF774FF57
:104E680003B05DF804FB00BFA2A5010007B500224E
:104E78000346009103481146FFF766FF03B05DF84B
:104E880004FB00BFA9A5010008B5024808F0E2F933
:104E9800002008BD5C03002070B5154CD4E8AF3F76
:104EA80013F0010F254616D014F8CD3CA4F1D40612
:104EB8009BB1D4E8AF3F5A0701D400F01DFBD5E8F9
:104EC800EF3F23F40062C5E8E12F0029F7D11B0565
:104ED80001D5FFF7D9FF002009E001F053F930B9F7
:104EE800F379002BE5D101F05DF90028E1D070BD20
:104EF800D400002030B500240A4D0B4B87B028465B
:104F08000393CDE9044413F091F803AB28460093CA
:104F18004FF4E1620A23054908F0A2F9204607B0D8
:104F280030BD00BF400E0020B9A301006042002040
:104F38000146014808F010BA400E0020037830B549
:104F4800012B13D0022B27D07BB90A46184B03F14B
:104F5800100453F8045BA34242F8045BF9D11B78B0
:104F6800137043884B731B0A8B7330BD0A46104B72
:104F780003F1100453F8045BA34242F8045BF9D12F
:104F88001B7813704368C3F307224B731B0CCB7356
:104F98001B0A8A730B74E8E700F1100350F8042B1E
:104FA800984241F8042BF9D103780B70DDE700BF74
:104FB800C2A3010070B5044613F08EF80A4D18B16B
:104FC800D5E8AF3F63B970BD08F070FCD5E8AF3FD6
:104FD8001BB9BDE8704008F07DBC20469847F8E74B
:104FE8002046BDE870401847E81C0020022838B564
:104FF800054607D10E480EF018FD044698B900245E
:10500800204638BD0B480EF010FD04460028F6D0A7
:10501800681EC0B21F2808D8074B195C04F10C00A1
:105028000EF072FDECE70120F6E70021F6E700BF7D
:1050380054080020A4070020D3A301000F2810B5AE
:105048000CD80D280CD90A480EF0EFFC044618B10C
:1050580004210C300EF058FD204610BD1328F2D064
:1050680009B10448F0E70220BDE81040FFF7BEBFD1
:10507800040900202808002070B5C6683378B6F8FF
:10508800014083B90F21204601F040FDF378054621
:1050980050B90A4A118831B96FEA04506FEA1050C2
:1050A8001080074A137070BD4372012101F09AFC09
:1050B8002846BDE8704001F053BC00BF3C320020D8
:1050C8004734002010B5084C0146062294F86F00BA
:1050D80001F0F4FF38B994F86F000522BDE81040DC
:1050E800024901F0EBBF10BD0000002051A30100F0
:1050F80010B5012104460C300EF033FD2146BDE801
:1051080010400023014A00780EF0CFBE1897010026
:1051180010B5012104460C300EF023FD2146BDE8F0
:1051280010400723014A00780EF0BFBEE096010048
:1051380010B5012104460C300EF013FD2146BDE8E0
:1051480010400223014A00780EF0AFBEB09601006D
:105158002DE9F04788461646824600286AD0002383
:10516800DFF8D890D9E8EF4FC9E8E23F002AF9D133
:10517800002C5FD02046FFF787FB0C232E4D2746D7
:1051880003FB0050438853450DD0D9E8EF3FC9E8E9
:10519800E27F002AF9D1002B4CD01F463846BDE8E3
:1051A800F047FFF711BCA64208D020460EF038FCA5
:1051B800328AF16804F10C000EF09DFC2046FFF7DE
:1051C80063FB0C2606FB00504368ABB1B8F1000F37
:1051D80012D12046FFF758FB012106FB0050426818
:1051E800D2E90003127A03F01F06B1405B09DAB175
:1051F80000EB83000EF0FCFD2046FFF745FB0C2674
:1052080006FB00508368002BC8D02046FFF73CFB04
:10521800704305F800802046FFF736FB06FB005573
:10522800A86807F045FEB9E7C94300EB83000EF014
:1052380053FEE1E7BDE8F087EC1C002048010020A0
:105248002DE9F8430C4608F031FBE368228A197807
:10525800022964D0042905D02046FFF7B5FB6FF07A
:10526800150405E0022A08D82046FFF7ADFB002404
:1052780008F030FB2046BDE8F88358783E2808D16E
:10528800032AF1D0DB78012B01D00A2B47D1032662
:1052980004E00EF09BFD0646F0073ED504F10C0530
:1052A80028460EF076FC012107462846B4F81090EF
:1052B8000EF04FFC022128460EF053FC8046007881
:1052C8003E2816D1E3681B78012B31D00A2B2FD04A
:1052D800022541F24513194A19491A480DF063F994
:1052E800002383F31188BFF36F8F0323184602DF6F
:1052F80004E00EF06BFDC1070546EAD5124A062305
:10530800214698F800000EF0D0FDAA0712D563696F
:10531800A4F8109013FA87F7E760B307A7D52146DA
:105328000A480EF086FB0A490A4812F054FE9EE726
:105338000325E3E72046FFF747FBEEE7F3A3010069
:1053480027A4010040A40100809601004C01002020
:105358007C030020680F002070B531480EF07EFBFA
:10536800044600285AD000F10C0528460EF001FC2E
:10537800022805D004282FD02046FFF725FB21E07E
:10538800238A032BF8D9042128460EF0EAFBFF22D2
:10539800438806882276228AC6F30B009A426083E5
:1053A800EAD10F2101F0B2FB05460028E4D001F054
:1053B800C9FB21462076320B28460FF096F828467E
:1053C80001F0CEFA174BD3F84C313BB3BDE870402F
:1053D8001549164812F0FFBD284602210EF0C1FB00
:1053E800054600783E2812D00EF0F0FC10F00206B8
:1053F8000DD140F6A8430E4A0E490F480DF0D3F8D8
:1054080086F31188BFF36F8F0323184602DF042346
:1054180021460A4A28780EF048FDADE770BD00BF66
:105428004C010020000000207C030020680F0020B1
:10543800F3A301005DA4010040A40100C09601008F
:10544800054BD3E8AF2F02F00B02D3E8EF1FC3E8F8
:10545800E02F0028F9D17047D400002010B5C1E929
:1054680000239DF808300C460B72FFF70DFA0C224A
:10547800024B02FB00335C6010BD00BFEC1C002037
:10548800F8B502460B4610480EF0CFFA0446C0B1F4
:1054980004210C300EF01EFB2046FFF7F5F90C270F
:1054A80000260A4D07FB005046802046FFF7ECF91E
:1054B80007FB005086602046FFF7E6F907FB00551A
:1054C8006E602046F8BD00BFAC080020EC1C002030
:1054D8000138C0B202289ABF014B185C00207047FF
:1054E80050A50100034B0146D3F86C01826892680D
:1054F800104700BF00000020042101480EF078BCCE
:10550800D400002000487047289D0100014807F09A
:10551800A1BE00BF6C03002070B505460C4659B902
:105528004FF0FF304FF0FF31FFF7AAFF044618B9DC
:105538006FF06805284670BD2046FFF7A5F90C22D4
:10554800154BA61802FB003330465D800EF021FB98
:1055580003280BD9032130460EF0DEFA0580238A92
:105568000121033B837030460EF0EAFA40F63543DA
:105578009D4208D12046FFF7B5FF054648B12046B1
:10558800FFF722FAD6E72146044812F06BFCFFF732
:10559800BDFF0025CEE700BFEC1C00205401002011
:1055A800F8B50446458B077E807AFFF765F961698F
:1055B800064649B1637ADA0704D4436A20461B6871
:1055C8009B689847002363612146304612F055FCDA
:1055D800194B93F88A309B062CD5384601F034FED7
:1055E80040B3837A073B012B03D9BDE8F84001F0AB
:1055F800B7B901F0B5F94FF0FF304FF0FF31FFF7C1
:105608003FFF0446B0B100F10C07012138460EF007
:105618006CFA01260421067038460EF066FA00235B
:1056280005808670C3702146BDE8F84040F63540D5
:10563800FFF772BFF8BD00BF0000002038B5024672
:105648000B46244DD5F8541109B9002038BD05F58D
:10565800987007F067FC0028F7D10022002305F5B1
:10566800AA7007F0F3FB044668B940F6B8431A4A33
:105678001A491B480CF097FF84F31188BFF36F8F0A
:105688000323184602DFD5F8480120B1FFF79CF93B
:105698000023C5F8483120460EF0F6F9C5F8480150
:1056A8002046FFF71FFF98B10E4807F001FC20467F
:1056B800FFF7EAF80C220C4B1F2102FB00302246B0
:1056C8004088FFF745FD2046FFF77EF9FFF71EFFEC
:1056D8000120BBE700000020F3A301008BA4010018
:1056E80040A4010030010020EC1C00202DE9F04FFF
:1056F800064617460C4687B069B94FF0FF304FF0A1
:10570800FF31FFF7BDFE044658B96FF0680528461B
:1057180007B0BDE8F08F887AFFF7AEF8444B8342B4
:105728007FD101220021684612F0B5FB2046FFF721
:10573800ABF80C23DFF818A103FB00A0C0F808D0D1
:1057480020460EF0A1F901463046FFF7E5FE054672
:1057580018B12046FFF738F9D9E708F09BF9354B1F
:10576800834220D1DFF8ECB0334812F090FB0021DF
:10577800814642F21070FFF761FF804688B94FF406
:10578800F97359462D4A2E480CF00DFF31462D4825
:105798000CF009FF88F31188BFF36F8F03231846B5
:1057A80002DF4C45E0D142F210720023684607F050
:1057B800B9FB804698B14FF4FC73204A224920482F
:1057C8000CF0F1FE4246314620480CF0ECFE002376
:1057D80083F31188BFF36F8F0323184602DF204637
:1057E800FFF752F80C2358431AF80060AEB1204670
:1057F800093EFFF7E9F8092E0CD8DFE806F0150B8B
:105808000B08050B0B0B0B126FF00B057FE76FF006
:105818000C057CE76FF0040579E7002F99D03C6010
:1058280075E76FF0150572E76FF06E056FE700BF5B
:10583800AC080020A814002054010020F3A30100A4
:1058480040A40100E2A40100AEA4010002A50100E9
:10585800EC1C0020DAA40100F7B5002240F6034052
:105868001146FFF743FF0446002840F09680FFF7F3
:10587800E7FD214641F2030001AAFFF737FF04467E
:10588800002840F08A80019AAC4DD16805F1780370
:10589800D1F80100D1F8051003C31046FFF794F8BA
:1058A800214641F2010001AAFFF720FF0446002823
:1058B80073D10198C3685A7885F870205A88A5F87A
:1058C80072201A7985F87120B3F80720A5F874209A
:1058D800B3F80530A5F87630FFF776F8214641F29F
:1058E800020001AAFFF702FF0446002855D1019FD4
:1058F80005F18006FA68531C413234461868596825
:10590800083303C493422646F7D13846FFF75CF8BC
:105918000EF0A3FD044600283FD195F88A309E0674
:1059280035D54FF0FF304FF0FF31FFF7A9FD0646A0
:10593800002800F0FB8007210C300EF0D6F86FF03D
:10594800040303700A23C0F8024084714470047190
:105958002246C370314640F63340FFF7C7FE04467F
:10596800D8B94FF0FF304FF0FF31FFF789FD0646F9
:10597800002800F0DB8001210C300EF0C5F822462B
:10598800314640F63140FFF7B1FE044628B995F894
:105998007C305C0604D46FF01204204603B0F0BDDE
:1059A800002142F2030001AAFFF7A0FE04460028E6
:1059B800F3D1019B624EDA68D2F80100D2F80510E3
:1059C80003C61846FFF700F8214642F2020001AA72
:1059D800FFF78CFE04460028DFD1019CE368B3F88A
:1059E800012091B249B1D97839B1A5F80421DA7802
:1059F800114606F1280012F04EFA2046FEF7E4FFA1
:105A08001F2395F87C60A5F8203116F0200619D1DF
:105A18004FF0FF304FF0FF31FFF732FD044600280A
:105A280000F0848002210C300EF05FF8012321463B
:105A380003704670324640F66D40FFF757FE044645
:105A48000028AAD195F89C30180712D5002142F2F7
:105A58001C0001AAFFF74AFE044600289DD10198C0
:105A6800C368D3F80120D3F80530C5E93823FEF719
:105A7800ABFF4FF0FF304FF0FF31FFF701FD044659
:105A8800002853D008210C300EF02FF895F8D820B4
:105A980012F0020F14BF2F230F23910695F8D92077
:105AA80048BF43F0400312F0090F4FF0000218BF3F
:105AB80043F400630370C3F30723214643708270E5
:105AC800C270027142718271C27142F20100FFF725
