:020000040000FA
:1000000010B00020756E0000FBE80100616E00007A
:10001000616E0000616E0000616E0000616E0000A4
:10002000000000000000000000000000117000004F
:10003000616E000000000000796F0000616E00003A
:100040005D7200005D7200005D7200005D72000074
:100050005D7200005D7200005D7200005D72000064
:100060005D7200005D7200005D7200005D72000054
:100070005D7200005D7200005D7200005D72000044
:100080005D7200005D7200005D7200005D72000034
:100090005D7200005D7200005D7200005D72000024
:1000A0005D7200005D7200005D7200005D72000014
:1000B0005D7200005D7200005D7200005D72000004
:1000C0005D7200005D7200005D7200005D720000F4
:1000D0005D7200005D7200005D7200005D720000E4
:1000E0005D7200005D7200005D7200005D720000D4
:1000F0005D7200005D7200005D7200005D720000C4
:100100005D7200005D7200005D7200005D720000B3
:100110005D7200005D7200005D7200005D720000A3
:100120005D7200005D7200005D7200005D72000093
:100130005D7200005D7200005D7200005D72000083
:100140005D7200005D7200005D7200005D72000073
:040150005D720000DC
:1001580080EA101404F0F01480EA0410604081EA88
:10016800111404F0F01481EA0411614082EA1214B7
:1001780004F0F01482EA0412624083EA131404F0D3
:10018800F01483EA0413634080EA102404F47F44E3
:1001980080EA0420604081EA112404F47F4481EA63
:1001A8000421614082EA122404F47F4482EA042292
:1001B800624083EA132404F47F4483EA04236340FF
:1001C80081EA500404F0553480EA4400614083EA2F
:1001D800520404F0553482EA4402634082EA9004EF
:1001E80004F0333480EA8400624083EA910404F026
:1001F800333481EA84016340704700BF82EA900487
:1002080004F0333480EA8400624083EA910404F005
:10021800333481EA8401634081EA500404F05534A0
:1002280080EA4400614083EA520404F0553482EACB
:100238004402634080EA102404F47F4480EA0420E6
:10024800604081EA112404F47F4481EA042161407A
:1002580082EA122404F47F4482EA0422624083EA98
:10026800132404F47F4483EA0423634080EA1014CF
:1002780004F0F01480EA0410604081EA111404F0DC
:10028800F01481EA0411614082EA121404F0F014B7
:1002980082EA0412624083EA131404F0F01483EA39
:1002A80004136340704700BF2DE9F14F94464FEAAD
:1002B800930B8A68CB6808684968FFF749FF0BF118
:1002C800060E33E083EA134480EA134582EA1347B3
:1002D80046BA96EA3444604000F00F1684EA0634C1
:1002E80020F00F1684EA161054BA94EA01067240F8
:1002F80002F00F1486EA043622F00F1486EA14126C
:100308004CBA6540694001F00F1485EA043521F0C4
:100318000F1485EA14115CBA67407B4003F00F1490
:1003280087EA043723F00F1487EA1413BCE8F000B7
:100338006040694072407B4000F0E03400F01035C6
:1003480000F00F3040EA540040EAC50080EA90040B
:1003580004F0332480EA8400604001F0E03401F0C6
:10036800103501F00F3141EA540141EAC50181EA33
:10037800910404F0332481EA8401614002F0E034FE
:1003880002F0103502F00F3242EA540242EAC50286
:1003980082EA920404F0332482EA8402624003F081
:1003A800E03403F0103503F00F3343EA540343EA13
:1003B800C50383EA930404F0332483EA8403634087
:1003C80081EA324787EA134581EA354690EA06040E
:1003D80084EA034B82EA1B4280EA044484EA054427
:1003E80083EA144A85EA14448BEA044B84EA3744C6
:1003F80081EA0B4181EA164104EA0A00454082EA93
:1004080004082BEA080041408AEA0B0602EA0600C3
:1004180084EA34438AEA3A4603EA060778404540C4
:10042800414088EA38478BEA3B4007EA000985EAF9
:10043800090583EA0709464006EA0906714085EA84
:10044800010005EA3546464006EA314181EA304175
:1004580081EA364606EA304686EA3546344008EAF6
:10046800010886EA01052A4086EA364003405A40D8
:1004780081EA31431F407C4080EA030709EA070903
:1004880088EA0908544088EA020806EA0A0601EAE6
:100498000B018AEA0B0215408AEA3A4210404540AD
:1004A8008BEA3B4003405E404240174079404D4054
:1004B8004E40E443F64386EA18435D4085EA05402A
:1004C80083EA134386EA034183EA384284EA114304
:1004D80083EA04435FEA3343BEF1010E3FF6F2AE0E
:1004E8001ED4BCE8F0006040694072407B4020BCEC
:1004F800FFF784FE28606960AA60EB60BDE8F08FB2
:100508002DE9E0414FF2F00280EA1031114080EA13
:100518000130484041088208C3084FF0000E4FE7F9
:1005280000F0113001F0113102F0113203F01133F3
:1005380040EA410040EA820040EAC3004FF2F0027C
:1005480080EA1031114080EA01304840BDE8E0817E
:100558002DE9F04F02F11C050646074600EB850819
:1005680051F8040B043A46F8040BF9D14FF0010C8A
:10057800FFF7C6FF5FEA302080EA0C001ECF41403B
:100588004A4053405C401EC62000464517D04FEAFB
:100598004C0C1CF4807F18BFACF1E50C2C2DE7D077
:1005A8003C2D06D1FFF7ACFF06CF41404A4006C6B6
:1005B800100006CF41404A4006C61000D8E736E989
:1005C8000F00FFF7C5FD043D86E80F00F7D1BDE831
:1005D800F08F00BF2DE9F14F03F11C0402EB840CEE
:1005E8004FEA930B8A68CB6808684968FFF7B0FD43
:1005F8003CE9F0006040694072407B400BF1060E18
:100608004EE083EA134480EA134582EA134746BA68
:1006180096EA3444604000F00F1684EA063420F06D
:100628000F1684EA161054BA94EA0106724002F0D2
:100638000F1486EA043622F00F1486EA14124CBA14
:100648006540694001F00F1485EA043521F00F1464
:1006580085EA14115CBA67407B4003F00F1487EAFF
:10066800043723F00F1487EA141344BA44404DBAF0
:100678004D4056BA56405FBA5F4087EA174886EA47
:10068800174B84EA17464FEA38488BEA1B4485EA39
:100698001B4788EA1B4580EA3440694072407B402A
:1006A80000F0703400F0803500F00F3040EA44006C
:1006B80040EAD50080EA900404F0332480EA8400FC
:1006C800604001F0703401F0803501F00F3141EAEB
:1006D800440141EAD50181EA910404F0332481EA16
:1006E8008401614002F0703402F0803502F00F326C
:1006F80042EA440242EAD50282EA920404F0332430
:1007080082EA8402624003F0703403F0803503F01B
:100718000F3343EA440343EAD50383EA930404F01E
:10072800332483EA84036340C943DB4381EA00043A
:1007380083EA044686EA020183EA014382EA3345F2
:1007480083EA14435C4084EA00077FEA040A8AEAE1
:10075800024A8AEA010B87EA11488AEA374A80EA9C
:10076800060181EA1A418AEA030A04EA0A004540B6
:1007780088EA040707EA0B0041408AEA0B0608EA00
:10078800060084EA34428AEA3A4602EA06035840F6
:100798004540414087EA37438BEA3B4003EA00097A
:1007A80085EA090582EA0309464006EA0906714016
:1007B80085EA010005EA3546464006EA314181EA04
:1007C800304181EA364606EA304686EA3546344004
:1007D8000F4086EA010508EA050886EA3640024025
:1007E80088EA020881EA314213405C4080EA020349
:1007F80009EA030987EA0907674088EA040806EA5C
:100808000A0601EA0B018AEA0B0425408AEA3A44FF
:10081800204045408BEA3B4B02EA0B02564084EAF3
:100828000B04234059406E40694087EA364080EA0D
:10083800384080EA060380EA104481EA134585EAD5
:10084800344585EA17427D4082EA354180EA054011
:100858003CE9F0006040694072407B40BEF1010E07
:100868003FF6CFAE20BCFFF7C9FC28606960AA60DC
:10087800EB60BDE8F08F00BFFFF76ABE30B44FF001
:10088800000310F8014B11F8015B013A84EA0504F2
:1008980043EA0403F5D1A3F101034FEAD37030BC56
:1008A800704700BF4FF0000310F8012B013943EAED
:1008B8000203F9D1A3F101034FEAD370704700BFD7
:1008C80030B411F8014B12F8015B6C4000F8014B91
:1008D800013BF6D130BC704781F0004102E000BF17
:1008E80083F0004330B54FEA41044FEA430594EAE8
:1008F800050F08BF90EA020F1FBF54EA000C55EA23
:10090800020C7FEA645C7FEA655C00F0E2804FEAF3
:100918005454D4EB5555B8BF6D420CDD2C4480EAD5
:10092800020281EA030382EA000083EA010180EA05
:10093800020281EA0303362D88BF30BD11F0004F53
:100948004FEA01314FF4801C4CEA113102D0404289
:1009580061EB410113F0004F4FEA03334CEA1333C4
:1009680002D0524263EB430394EA050F00F0A780DC
:10097800A4F10104D5F1200E0DDB02FA0EFC22FAD7
:1009880005F2801841F1000103FA0EF2801843FACB
:1009980005F359410EE0A5F120050EF1200E012ABC
:1009A80003FA0EFC28BF4CF0020C43FA05F3C018FA
:1009B80051EBE37101F0004507D54FF0000EDCF173
:1009C800000C7EEB00006EEB0101B1F5801F1BD31C
:1009D800B1F5001F0CD349085FEA30004FEA3C0C20
:1009E80004F101044FEA445212F5800F80F09A8016
:1009F800BCF1004F08BF5FEA500C50F1000041EB1A
:100A0800045141EA050130BD5FEA4C0C404141EB1D
:100A18000101013C28BFB1F5801FE9D291F0000F18
:100A280004BF01460020B1FA81F308BF2033A3F1C7
:100A38000B03B3F120020CDA0C3208DD02F1140CBE
:100A4800C2F10C0201FA0CF021FA02F10CE002F1F9
:100A58001402D8BFC2F1200C01FA02F120FA0CFCF2
:100A6800DCBF41EA0C019040E41AA2BF01EB04513B
:100A7800294330BD6FEA04041F3C1CDA0C340EDC39
:100A880004F11404C4F1200220FA04F001FA02F37C
:100A980040EA030021FA04F345EA030130BDC4F13A
:100AA8000C04C4F1200220FA02F001FA04F340EA2F
:100AB8000300294630BD21FA04F0294630BD94F0E0
:100AC800000F83F4801306BF81F480110134013DC7
:100AD8004EE77FEA645C18BF7FEA655C29D094EA38
:100AE800050F08BF90EA020F05D054EA000C04BFB6
:100AF8001946104630BD91EA030F1EBF00210020A1
:100B080030BD5FEA545C05D14000494128BF41F03F
:100B1800004130BD14F580043CBF01F5801130BDA3
:100B280001F0004545F0FE4141F470014FF000002E
:100B380030BD7FEA645C1ABF194610467FEA655CDF
:100B48001CBF0B46024650EA013406BF52EA033581
:100B580091EA030F41F4002130BD00BF90F0000F6F
:100B680004BF0021704730B54FF4806404F13204AB
:100B78004FF000054FF0000150E700BF90F0000F64
:100B880004BF0021704730B54FF4806404F132048B
:100B980010F0004548BF40424FF000013EE700BF5B
:100BA80042004FEAE2014FEA31014FEA02701FBFEB
:100BB80012F07F4393F07F4F81F06051704732F01D
:100BC8007F4208BF704793F07F4F04BF41F4002174
:100BD800704730B54FF4607401F0004521F00041D2
:100BE8001CE700BF50EA010208BF704730B54FF05C
:100BF80000050AE050EA010208BF704730B511F05D
:100C0800004502D5404261EB41014FF4806404F194
:100C180032045FEA915C3FF4D8AE4FF003025FEA1A
:100C2800DC0C18BF03325FEADC0C18BF033202EB9E
:100C3800DC02C2F1200300FA03FC20FA02F001FAF8
:100C480003FE40EA0E0021FA02F11444BDE600BF9B
:100C580070B54FF0FF0C4CF4E06C1CEA11541DBF4A
:100C68001CEA135594EA0C0F95EA0C0F00F0DEF815
:100C78002C4481EA030621EA4C5123EA4C5350EAFA
:100C8800013518BF52EA033541F4801143F480134B
:100C980038D0A0FB02CE4FF00005E1FB02E506F0DC
:100CA8000042E0FB03E54FF00006E1FB03569CF031
:100CB800000F18BF4EF0010EA4F1FF04B6F5007F37
:100CC80064F5407404D25FEA4E0E6D4146EB0606A9
:100CD80042EAC62141EA55514FEAC52040EA5E5032
:100CE8004FEACE2EB4F1FD0C88BFBCF5E06F1ED8DC
:100CF800BEF1004F08BF5FEA500E50F1000041EB13
:100D0800045170BD06F0004646EA010140EA0200BF
:100D180081EA0301B4EB5C04C2BFD4EB0C0541EAE1
:100D2800045170BD41F480114FF0000E013C00F3F6
:100D3800AB8014F1360FDEBF002001F0004170BD1A
:100D4800C4F10004203C35DA0C341BDC04F1140433
:100D5800C4F1200500FA05F320FA04F001FA05F2BF
:100D680040EA020001F0004221F0004110EBD3708C
:100D780021FA04F642EB06015EEA430E08BF20EAB8
:100D8800D37070BDC4F10C04C4F1200500FA04F35B
:100D980020FA05F001FA04F240EA020001F00041ED
:100DA80010EBD37041F100015EEA430E08BF20EA60
:100DB800D37070BDC4F1200500FA05F24EEA020EA8
:100DC80020FA04F301FA05F243EA020321FA04F0D7
:100DD80001F0004121FA04F220EA020000EBD3708E
:100DE8005EEA430E08BF20EAD37070BD94F0000F8E
:100DF8000FD101F00046400041EB010111F4801FC2
:100E080008BF013CF7D041EA060195F0000F18BF72
:100E1800704703F00046520043EB030313F4801FAE
:100E280008BF013DF7D043EA0603704794EA0C0F68
:100E38000CEA135518BF95EA0C0F0CD050EA41067E
:100E480018BF52EA4306D1D181EA030101F00041FB
:100E58004FF0000070BD50EA410606BF1046194623
:100E680052EA430619D094EA0C0F02D150EA01362F
:100E780013D195EA0C0F05D152EA03361CBF104670
:100E880019460AD181EA030101F0004141F0FE410F
:100E980041F470014FF0000070BD41F0FE4141F493
:100EA800780170BD70B54FF0FF0C4CF4E06C1CEA93
:100EB80011541DBF1CEA135594EA0C0F95EA0C0F48
:100EC80000F0A7F8A4EB050481EA030E52EA033503
:100ED8004FEA013100F088804FEA03334FF0805524
:100EE80045EA131343EA12634FEA022245EA111551
:100EF80045EA10654FEA00260EF000419D4208BF02
:100F0800964244F1FD0404F5407402D25B084FEAAE
:100F18003202B61A65EB03055B084FEA32024FF45A
:100F280080104FF4002CB6EB020E75EB030E22BFB7
:100F3800B61A754640EA0C005B084FEA3202B6EB77
:100F4800020E75EB030E22BFB61A754640EA5C0026
:100F58005B084FEA3202B6EB020E75EB030E22BFB6
:100F6800B61A754640EA9C005B084FEA3202B6EBB7
:100F7800020E75EB030E22BFB61A754640EADC0076
:100F880055EA060E18D04FEA051545EA16754FEAD8
:100F980006164FEAC30343EA52734FEAC2025FEAF6
:100FA8001C1CC0D111F4801F0BD141EA00014FF085
:100FB80000004FF0004CB6E711F4801F04BF014356
:100FC8000020B4F1FD0C88BFBCF5E06F3FF6AFAE72
:100FD800B5EB030C04BFB6EB020C5FEA500C50F102
:100FE800000041EB045170BD0EF0004E4EEA113185
:100FF80014EB5C04C2BFD4EB0C0541EA045170BD8C
:1010080041F480114FF0000E013C90E645EA060ECF
:101018008DE60CEA135594EA0C0F08BF95EA0C0FFD
:101028003FF43BAF94EA0C0F0AD150EA01347FF445
:1010380034AF95EA0C0F7FF425AF104619462CE71C
:1010480095EA0C0F06D152EA03353FF4FDAE10467F
:10105800194622E750EA410618BF52EA43067FF4D0
:10106800C5AE50EA41047FF40DAF52EA43057FF460
:10107800EBAE12E753B94AB9002908BF00281CBFD4
:101088004FF0FF314FF0FF3000F00CB8ADF1080C15
:101098006DE904CE00F01AF8DDF804E0DDE902237A
:1010A80004B07047704700BF10F8012B11F8013BDE
:1010B800012A28BF9A42F7D0D01A7047034613F87E
:1010C800012B002AFBD1181A013870472DE9F04787
:1010D80086468C460846089E154674461946002BD7
:1010E80040F0C1808542B2FA82F245D94AB1C2F1D4
:1010F800200300FA02FC954094402EFA03F343EAD9
:101108000C0C4FEA154EA8B2230CBCFBFEF80EFBE4
:1011180018CC08FB00F943EA0C43994528D9EB1889
:1011280008F1FF3704D2994502D9A8F102072B44E8
:10113800A3EB0903A4B2B3FBFEFC0EFB1C330CFBB0
:1011480000F044EA0344A04214D92C190CF1FF33EF
:1011580004D2A04202D9ACF102032C44241A43EA77
:1011680007401EB1D440002334607360BDE8F087A7
:101178004746DDE76346F1E792BB431B01214FEA8F
:10118800154EAFB2200CB3FBFEFC0EFB1C330CFB60
:1011980007F840EA0343984561D9EB180CF1FF3092
:1011A80004D2984502D9ACF102002B44A3EB080302
:1011B800A4B2B3FBFEFC0EFB1C330CFB07F744EA9E
:1011C8000344A7424DD92C190CF1FF3304D2A7428E
:1011D80002D9ACF102032C44E41B43EA0040C0E707
:1011E800C2F120039540944020FA03F12EFA03F34C
:1011F8004FEA154E9040AFB20343B1FBFEFC0EFB25
:101208001C10190C0CFB07F841EA0041884522D94B
:1012180069180CF1FF3004D2884502D9ACF10200FC
:101228002944A1EB08019BB2B1FBFEFC0EFB1C118B
:101238000CFB07F743EA01439F420ED9EB180CF168
:10124800FF3104D29F4202D9ACF102012B44DB1BCF
:1012580041EA004193E76046E3E76146F7E7604605
:10126800A4E76346B8E7834206D916B900210846C1
:101278007CE7C6E900E0F9E7B3FA83F78FB9834260
:1012880001D3724508D8BEEB020460EB03030120CA
:101298009C461EB9002169E73846FAE7C6E9004CC2
:1012A800F8E7C7F1200CBB400EFA07F522FA0CF458
:1012B8002EFA0CF1BA401C4320FA0CF3B8404FEA5E
:1012C800144901431FFA84FEB3FBF9F809FB1830EF
:1012D8000B0C08FB0EFA43EA00439A4540D9E31881
:1012E80008F1FF3004D29A4502D9A8F1020023443C
:1012F800A3EB0A0389B2B3FBF9F809FB183308FB1F
:101308000EFE41EA03418E452CD9611808F1FF33DE
:1013180004D28E4502D9A8F10203214443EA0040D1
:10132800A1EB0E01A0FB02984145CE46434602D3ED
:1013380006D14D4504D20138B9EB020E68EB04031F
:10134800002EA7D0B5EB0E0261EB030101FA0CFCED
:1013580022FA07F3F9404CEA0303C6E9003199E79A
:101368004046C5E74346D9E72DE9F04F8246174680
:101378001C4600259FB00391387810B9284600F024
:10138800A9BD252809D00399D0470028C0F2A28515
:101398007B1C01350593059FEEE71822002110A854
:1013A80021F0D4F87B78252B00F0BC8000239846E8
:1013B8009E469C461846791C0E4611F8012B2B2A8E
:1013C80000F0E38000F2DA80202A00F0E180232A8E
:1013D80000F0E1802BB19DF8483043F040038DF8D0
:1013E8004830B8F1000F05D09DF8483043F020038D
:1013F8008DF84830BEF1000F05D09DF8483043F015
:1014080010038DF84830BCF1000F05D09DF8483026
:1014180043F008038DF8483028B19DF8483043F070
:1014280004038DF848309DF8483003F044014429FE
:1014380003D16FF386138DF848309DF848302A2A77
:1014480043F080030E968DF8483040F0A9809DF84F
:10145800493043F001038DF84930731C1A782E2A5D
:101468000CBF012100219DF8492061F341028DF84C
:1014780049200CD15A1C0E925A782A2A40F0A08092
:101488009DF84920023342F004028DF849201A7869
:101498006C2A00F0C18000F2A380682A00F0A980BD
:1014A8006A2A00F0C2804C2A00F0C78013F8012B8A
:1014B800782A05938DF84B2000F209816D2A00F2F5
:1014C800C980692A00F20381572A00F2E280412A82
:1014D80004D0A2F14503022B00F2F98004219DF803
:1014E8004A3002F0DF02A2F1410961F30203D9F1A7
:1014F80000029DF8491042EB090262F3C7110A067F
:101508008DF84A308DF84910CBB200F11F8103F0F5
:101518007802182A40F009816FF3C6038DF8493024
:101528000023F8E08DF84B30BB1C05939DF849303B
:101538009DF84A20DE0702F0070040F1098154F8BF
:10154800041B0029049108DA9DF8481041F00401B1
:101558008DF84810049949420491590740F10081D7
:1015680054F8046B002E80F2FF809DF849306FF329
:1015780041038DF849304FF0FF36F5E02D2A0DD0A4
:10158800302A7FF427AF012316E74FF0010C13E749
:101598004FF0010E10E74FF001080DE701200BE7AF
:1015A8000EA802F05DF90E9BB3423FF457AF9DF8C9
:1015B80048201390C00F60F341028DF848204DE792
:1015C8000EA802F04DF99DF848301490C3F340027C
:1015D80042EAD07262F341038DF848300E9B56E719
:1015E800742A26D07A2A7FF461AF06219DF8492013
:1015F8000CE05A78682A9DF8492006D1012161F348
:10160800C6028DF84920023350E7022161F3C60271
:101618008DF84920013349E75A786C2A9DF849200A
:1016280001D10421EBE70321F0E705219DF84920CA
:10163800ECE707219DF84920E8E7BDF8482022F4A7
:10164800F04222F0020242F4804242F00202ADF877
:101658004820DFE76E3AD3B201229A4040F2824333
:101668001A429DF8493039D112F0240F61D1D107BF
:101678002DD503219DF84A2003F07803A3F14008F3
:1016880061F30202D8F100038DF84A2043EB080306
:1016980041E00120A2F15801C9B200FA01F111F4A8
:1016A800624F7FF41BAF40F6010319429DF84930A1
:1016B8001AD111F4043F0AD09DF84A2060F30202BF
:1016C80003F07803402B8DF84A207FF429AF9DF86A
:1016D800483043F001038DF8483021E702219DF896
:1016E8004A2061F30202EBE702209DF84A1003F05A
:1016F800780360F30201402B8DF84A1002BF9DF871
:10170800481041F001018DF84810632A7FF408AFB2
:10171800003B18BF01239DF84820C2F340010B434A
:1017280063F341028DF8482000E713F0380FCED15B
:10173800F6E603219DF84A2013F0780F61F30202C0
:1017480014BF012300238DF84A20E4E70123E2E7D0
:101758009DF948100029ACBF4FF0FF311399FBE603
:101768009E077FF508AF149E00230428CDE91333A4
:101778009DF8493007D1990705D49DF949100029EA
:10178800ACBF06260D2602F00702012AC3F3C303E5
:1017980032D1DA1E042A04D8DFE802F020454520B9
:1017A80020002268012B4FEAE271CDE910211BD1FC
:1017B8009DF94020D117CDE9102104349DF8482027
:1017C800069292074FD03A465046059B03991BF064
:1017D800B2FF0028C0F27E830544DCE554F8042BF0
:1017E800D117CDE91021E9E7022BE6D111B242F376
:1017F800C032CDE91012E0E7022A24D1DA1E042A09
:1018080004D8DFE802F0181010181800012B4FF068
:10181800000154F8042B14D0022BCDE91021CDD1AE
:1018280092B21092CAE7073424F00704F4E80201E0
:10183800CDE91001C2E754F8042B1092002211924E
:10184800BCE7D2B2CDE7042A08D1073424F0070454
:10185800D4E900010834CDE91001AFE7032AADD17E
:1018680054F8042BDDE79DF84B80B8F1780F3FF66C
:1018780092ADB8F1570F5CD8B8F1250F00F0A480ED
:10188800B8F1240F7FF687ADB8F1410F04D0A8F165
:101898004503022B3FF67FADDDE91023002BC0F294
:1018A8004D810699080700F14C81C1F300194FEAF0
:1018B8004919C3F30A51C3F31303002940F04481C3
:1018C80052EA030014BF4FF0010C4FF0000CD8028D
:1018D80040EA5250D702CDE90C70B8F1460F47EAFA
:1018E800010740EAE17008BF4FF06608384300F08E
:1018F800B781BCF1000F10D01B0343EA1253170342
:101908003A4618464FF0000C002880F25681BCF188
:10191800000F40F05981CDE90C730D9BA1F2FE3BFD
:1019280043F000430D930021DDE90C230F46052009
:1019380060E1A8F15802202A3FF62DAD01A151F827
:1019480022F000BF171B00009F1300009F13000028
:101958009F1300009F1300009F1300009F130000B7
:101968009F1300009F130000A11800009F130000A0
:10197800C31A0000D71A0000A1180000A11800001F
:10198800A11800009F130000D71A00009F13000041
:101998009F1300009F1300009F1300001D1B0000F1
:1019A800171B0000671A00009F1300009F13000018
:1019B800E11900009F130000171B00009F1300008F
:1019C8009F130000171B000040460399D0470028CA
:1019D800C0F280820135DEE4002E109F3BDB3146E9
:1019E800384620F0E8FD002F3FF4D5AC4FF0000951
:1019F8003E18F31B9DF84A2012F01001069100F0E2
:101A08005E82023312F04002DDF84C80089218BF63
:101A1800149A434418BF9B18049ACDF81C80002AD6
:101A280040F36882D31A9DF8482004935007C2F304
:101A3800800B00F15F82510640F14F82B9F1000F2F
:101A480007D048460399D0470028C0F24382D946B8
:101A58000135302242E23846FFF730FBC6E71098DE
:101A6800002800F027820DF175030093002117ABC1
:101A780012AA01F00BFF4FF000090746BDF84A30E3
:101A880003F0EF0343F4F04343F01003ADF84A309A
:101A9800002E0CDB9DF848200DF17503DB1B6FF35E
:101AA80086129E428DF8482001D9F31A1393002F0D
:101AB8003FF471AC0DF175066DE0109B4FF0000915
:101AC8008DF85C300DF15D06012317AF92E7069B98
:101AD8001F0754BFC3F300194FF02B09DDE910238A
:101AE80058BF4FEA4919002B06DA4FF02D09524228
:101AF80063EB4303CDE91023DDE910010DF1750314
:101B0800009312AA17AB01F0C1FE0746C0E74FF0D9
:101B18000009F1E7109A072B3FF63DACDFE803F028
:101B28000C04060C08080C0C157034E4158032E41B
:101B3800EB17C2E900532EE415602CE44FF02D0991
:101B4800B7E64FF02B09B4E640F2FF70814231D17D
:101B5800A34908F101085FFA88F811F8081013433F
:101B680001F003011ED101290BBF492369234E212E
:101B78006E210CBF462266228DF85C309DF84830F5
:101B88008DF85D106FF386138DF85E208DF8483060
:101B98000DF15F0617AFF31BB9F1000F3FF42AAF41
:101BA800013327E7012915BF6E234E236121412107
:101BB8001A46E1E74FF0000C89E692184FF0010C45
:101BC80001F1FF3140419FE6CDE90C20A5E652081E
:101BD80042EAC3725B08B3F1333F59460BF1010B7C
:101BE800F5D201F1020B012100FB03FCA2FB00234B
:101BF800013F63441BF1020FE9DB09B1CDE90C2376
:101C0800DDE90C32BBF1000F2DDCCBF10401A1F1B1
:101C180020000BF11C0B02FA0BFB22FA00F0CA4061
:101C2800CB40079208F0DF0243EA0B03472A43EA56
:101C380000037BD1F91C01DBBE422ADAA8F10208B5
:101C4800002E5FFA88F87ADD9DF84820013E92065A
:101C580075D4B6F1000B18BF4FF0010B721C26E0CB
:101C68004FF0000B5FE6023342F100020CA80BF1C3
:101C7800FF3B0137CDE90C321BF02EFDDDE90C32BC
:101C8800DB185241002A0BF1FF3BF9DACDE90C329F
:101C9800B6E79DF84820F61B90064DD4B6F1000B28
:101CA80018BF4FF0010BF2194FF066084AD4102AFA
:101CB800A8BF10229FED487B10208DED0E7B0B9066
:101CC800DDE90E01002A3FD1079A1B1842EB0101FA
:101CD800B1F1805F47D2CDE90C31069BB8F1660FB0
:101CE80003F0200240F0C680002F47DC30238DF837
:101CF8005C30002A76D1002E40F3BD812E238DF86A
:101D08005D3087B17B42B342A8BF3346002B1393A3
:101D1800A6EB0306D4BF002301239DF84A2063F3F2
:101D280045128DF84A200DF15E0340E0B8F1660FC8
:101D38004FF0000BB7D091E74FF0000BB3E74FF02F
:101D4800000B8BE70022B5E7400840EAC17049085C
:101D5800CDE90E010EA8CDE908231BF0BDFC089AB9
:101D6800099B013AACE75B0843EAC1730CA8490830
:101D7800CDE90C3101371BF0AFFCAEE717AB0B997F
:101D880000290BDD0BA90CA8CDE906321BF0BCFC21
:101D9800069B013F079A03F8010BF0D11397AAB9E4
:101DA800002E40F366812E2103F8011B0027002E28
:101DB80021DD0B9A002A1EDD0BA90CA806931BF047
:101DC800A3FC069B013E03F8010BF0E72E2203F863
:101DD800012BEBE7AFF300800000000000000008D3
:101DE800E99C02002E238DF85D30002F9BD0002E39
:101DF80088DC0DF15E03BBF1000F4FD114961E462F
:101E080008F0DF03452B24D1002FBABF7F422D23D2
:101E18002B23632FC8BF64227370C4BFB7FBF2F3D0
:101E280002FB13774FF00A02C8BF03F13001B7FB7A
:101E3800F2F3C8BFB17003F1300102FB137386F8E7
:101E4800008003F13003D4BF02360336317073705B
:101E58000236139B002B2BDC149B002BD4BF0023D2
:101E680001239DF84A2063F3861200238DF84A2047
:101E780033708FE60BA90CA806921BF045FC069A56
:101E880030288DF85C0018BF07F1FF3712B9002E13
:101E980040F3F1802E238DF85D3044E71E4616F896
:101EA800012C013B302AF9D02E2A08BF1E46A7E78D
:101EB8000123D6E7714E81460523771F9AE511075E
:101EC80048BF01339EE5104609920399D047002880
:101ED800099A05DA1FB0BDE8F08F2022DDF810B0AE
:101EE800594600290BF1FF3BEDDC049BCDF810B0FF
:101EF8002B445D1AB9F1000F05D048460399D04725
:101F08000028E7DB0135089B002B77D09DF9493085
:101F1800002B28DB3B46DFF8689118789B4619F8B8
:101F28000020013352073FD49DF84A30EF1B980632
:101F38005F4407D44246002A08F1FF383BDC079B80
:101F48003B449F1A9BF800002E280AD10399D047DA
:101F58000028BFDBB8F1000F07F1010731DC0BF1F6
:101F6800010B5D4638E0B94699F80000C84670286C
:101F780009F1010913D1EF1B149D47443D44EB1BA4
:101F8800002B33DC33464246504603991BF0D3FB03
:101F980000289FDB3844049E0546064464E0039904
:101FA800D0470028E0DA95E706930399D047002840
:101FB800069BB2DA8EE730200399D0470028B9DAB9
:101FC80088E730200399D04708F1FF38C0E7039924
:101FD800D0470028FFF67EAF2878A84619F80030C9
:101FE80001355907F3D4A7EB0B07C5E73020039950
:101FF800D0470028FFF66EAF0137C0E79DF84A309A
:10200800DA0601D41B0706D530200399D0470028EB
:10201800FFF660AF0135069B3BB103999DF84B0075
:10202800D0470028FFF656AF0135A84406E0302017
:102038000399D0470028FFF64DAF0135A8EB0503FB
:10204800002BF4DC33463A46504603991BF073FBE9
:102058000028FFF63FAF28449DE720200399D0478A
:102068000028FFF637AF0135731B002BF5DCFFF7AF
:1020780092B91746BFE60DF15D03BCE6C7440200FE
:10208800EA9C020008B5094A0B46094803211BF0DF
:10209800A5F800201EF0D6FC002000F059FE002212
:1020A800044B1A701722044B1A8008BD54390200D9
:1020B8009C2C020098470020F405002008B5084B26
:1020C8001B7863B91BF07BF8064B1B68C01A064BDC
:1020D80080B218800548BDE8084014F08FB808BDE4
:1020E80099470020EC29002088460020600800203D
:1020F80010B50321164A044616481BF06DF800F087
:102108004DFE012802D100201EF099FC204600F067
:102118001FFE0022104B20461A7017220F4B104941
:102128001A800DF04FFA034660B101210D4A0948A3
:102138001BF054F81BF043F800220B4B18600B4BB4
:102148001A8010BD03210A4A02481BF045F8F1E73E
:102158006D3902009C2C020098470020F4050020ED
:10216800BC01002077390200EC2900208A460020B3
:102178009C3902000B4621B10121034A03481BF098
:102188002DB8FFF7B5BF00BFB33902009C2C020081
:102198002DE9F0430321554A55488BB01BF01CF834
:1021A800DFF89481534F544C544E4FF0FF324FF0A8
:1021B800FF33404614F0A6F83D8823883288ADB234
:1021C8009B1A9BB2B3F5806F04D34D4A1368013351
:1021D8001360E9E74B4B18683B238DF807300DF186
:1021E800070304930123059300238DF8183002ABED
:1021F80007930623089307238DF824309DF824308D
:10220800826843F002038DF82430D2F808906823DE
:10221800022204A9C847031E05DA02213A4A3448B3
:102228001AF0DCFFC0E7EFF31189202383F312884B
:10223800BFF36F8F354816F09FFA68B98823344A80
:10224800344935481BF097FA304934481BF093FA63
:1022580088212F481BF086FA2C4816F0B1FA0A217B
:1022680023882F4AC3F309034B43B2F800C02D4813
:10227800C11820F803C0BDF808304D805BBA8B80C8
:10228800BDF80A3021485BBACB80BDF80C305BBA88
:102298000B81238801339BB22380138801339BB2BF
:1022A8001380214A25881368013313603388ED1A97
:1022B800ADB216F06FFA68B94FF49A73144A1B4915
:1022C80015481BF058FA114919481BF054FA4FF4F5
:1022D8009A71BEE789F31188BFF36F8FB5F5806FE8
:1022E800FFF462AF134813F089FF5DE7CE390200AF
:1022F8009C2C0200884600208E4600208C46002038
:10230800E4290020F4290020EB390200F0290020FC
:10231800FF3902002C3A0200413A02005E3A0200FC
:102328008A4600209A470020E8290020743A0200D3
:102338008B3A02001808002060080020B0B50E4B48
:1023480000AF1C680D4B8AB018680D4B6A461968B7
:102358000C4B1B68536206230B4DC2E90701C2E907
:10236800055442F8103F00234FF44351074803F047
:1023780019FBBD46B0BD00BFE8290020E4290020B4
:10238800DC290020D8290020A03A02009C2C020059
:10239800F8B500AF8CB0084616461D466C460C4B87
:1023A800C4E90531FEF7EAFB00220A4BFEF750FCB0
:1023B80022460823C4E90801C4E90A6542F8103F27
:1023C800002344F2C001044803F0ECFABD46F8BD0E
:1023D800DA3A02000000F43F9C2C020013B51DF00D
:1023E80092FF114C032120802388104A9BB2104889
:1023F8001AF0F4FE23889BB2F52B0AD90122032197
:102408000C4B0B481A700C4A02B0BDE810401AF089
:10241800E3BE23889BB2F622022100920448074AB1
:102428001CF072F802B010BDF40500201B3B02003E
:102438009C2C020098470020333B0200523B0200CC
:102448000B4621B10121034A03481AF0C7BEFFF722
:10245800C5BF00BF823B02009C2C02002DE9F04F53
:1024680085B00321A94AAA4802AF1AF0B5FEDFF8E1
:10247800FC824FF0FF324FF0FF33A64813F042FFC3
:1024880000F058FCA44CA54D18B923889BB22B80AA
:10249800EFE7A34B1A7802F0FF0302BBA14A6E468E
:1024A800B2F800C08AB0218828888AB01FFA8CFC4C
:1024B80089B280B202AADFF8C4E2091AC2E905ECBF
:1024C80011624FF0F60C0521C2F81CC042F8101F2B
:1024D8004FF422518E4803F065FAB546D5E72288B5
:1024E800DFF89C92298899F8003092B289B2521A82
:1024F80092B2009203218C4A85481CF005F8248882
:102508002B88E41AA4B2B4F5846F6FD300F046FCAC
:102518002B2410B90122854B1A700026DFF814A26B
:1025280000F008FC00286AD10221814A78481AF094
:1025380053FE00267D4B1E70EFF3118A202383F390
:102548001288BFF36F8F7B4816F016F9002866D003
:10255800784816F035F92B8804EB440403EBC403E0
:102568009BB274482B8016F015F9002800F0908073
:102578008AF31188BFF36F8F1AF021FE6E4B6F4AF2
:10258800186099F800306E4C013389F800301368F0
:102598002568013313606B4B6B4A18686B4B1968DD
:1025A8006B4BB54218BF13466D468AB08AB002AA73
:1025B800C2E9071340F20243DFF8C8C19384654BB0
:1025C800C2E905C042F8103F4FF433513346504832
:1025D80003F0E8F92368AD46002B3FF44AAF022127
:1025E80023685D4A4A481AF0F9FD42E7172C7FF63E
:1025F80040AF1823B4FBF3F400F0D0FB89E799F857
:10260800003088F80030EFF311837B60202383F3D8
:102618001288BFF36F8F504616F0AEF868B988235A
:102628004E4A4F494F481BF0A6F842494E481BF006
:10263800A2F8882149481BF095F8504616F0C0F8D2
:102648004FF00A0B002006EB4601C900474ADFF8A5
:1026580038E189B22B880A3211FA83F30344C3F3B1
:1026680009030BFB03F30EEB030C5EF80330013098
:1026780042F8093CDCF80430182842F8053CBCF85C
:10268800083022F8013CE5D1504616F083F868B9C5
:102698004FF49A73314A364932481BF06CF8254991
:1026A80034481BF068F84FF49A71C3E77B6883F3EA
:1026B8001188BFF36F8FF12241464FF6FF701DF06E
:1026C800D8FE4146A8F8F100002000F00DFB80B9C3
:1026D8001C4A13680133136000F060FB18B94220EC
:1026E80000211AF07DFD0136B3B29C423FF618AFC7
:1026F8001FE7164A1368013313600221009033461E
:102708001D4A03481BF000FFE6E700BFB43B020088
:102718009C2C0200180800208E4600208C460020C1
:1027280098470020F40500200F3C0200994700203C
:10273800363C0200F0290020EC290020E029002086
:10274800E4290020DC2900209F3B0200D829002032
:1027580099910200050000019C3C0200FF3902002B
:102768002C3A0200413A02005E3A0200A5460020D7
:10277800743A02008B3A02005A3C0200D43B020031
:10278800A44600206F3C02009A470020B0B584B0F0
:10279800032102AF7A4A7B481AF01EFD03217A4AC8
:1027A80078481AF019FD0321754A76481AF014FD85
:1027B8000A230321754A73481AF010FD18230321D0
:1027C8000093734AF3236F481BF09EFE4FF4806317
:1027D8000321704A6B481AF001FD2B2303216E4A2E
:1027E80068481AF0FBFC6D4D6D4828601FF011F920
:1027F80050B901216B4A63481AF0EEFC6FF01204DD
:1028080020460837BD46B0BD0321674A5D481AF027
:10281800E3FC6B232868391DBB801AF0E3FC041E17
:102828000CDA2346614A012156481AF0D7FC2346A0
:102838005F4A012153481AF0D1FCE1E740F6CD4048
:1028480000211AF0CDFC19232868391DBB801AF025
:10285800C9FC041E02DA2346564AE4E740F21A335A
:102868002868391DBB801AF0BDFC041E02DA234615
:10287800514AD8E741F61C032868391DBB801AF075
:10288800B1FC041E02DA23464C4ACCE703214C4A29
:102898003C481AF0A1FC0FF0EFFB034620B10121E0
:1028A800484A38481AF09AFC002007F099FB044679
:1028B80010B10346444ABCE70321444A31481AF0A0
:1028C8008BFC1BF001FF00F07FF9044610B10346B2
:1028D8003F4AAEE7012502223E4B3F493F4800955B
:1028E80008F072F8044610B103463D4AA1E76D4668
:1028F80088B002AA3B4B53613B4B93614FF4007382
:1029080093833A4B42F8103F4FF4E65103461D4873
:1029180003F048F8AD461AF052FC354B21221860F6
:1029280000233448CDE9002316F0D6FA4FF47A7321
:102938000321314A13481AF051FC4FF4A022002316
:102948002E48CDE9002316F0C7FA00F027FA01282F
:10295800044611D101460FF0B1FB4FF4804000212D
:102968001AF03EFC002120460FF0A8FB4FF48040EF
:1029780000211AF035FCE8E74FF40040F8E700BF03
:10298800C63C02009C2C0200F03C0200133D0200F1
:102998002B3D0200503D0200B7400200F429002000
:1029A80018280200693D02007F3D0200903D0200A8
:1029B8002E3E0200AB3D0200C93D0200E03D020090
:1029C800FE3D0200463E02005F3E02007E3E0200DF
:1029D800943E0200782E0200802E0200A8010020FA
:1029E800B73E0200DC3E0200F83E02000300000190
:1029F800EC290020C8060020093F020090060020AC
:102A080010B5084C86B024788DF81740012402943C
:102A18000DF117040194BDF8204000941DF0FCFB53
:102A280006B010BD9B6F00201FB522240294044CF1
:102A38000194BDF8184000941DF0EEFB04B010BDE1
:102A4800090600201FB502240294044C0194BDF825
:102A5800184000941DF0E0FB04B010BDF6050020FE
:102A68002DE9FF4105460E46174698461FF043F9E3
:102A78004FF47A728C46A0FB024302FB0C33E40B42
:102A880044EA4344042308493A460C60CDE901135B
:102A9800BDF8283031460093284643461DF0BCFB5C
:102AA80004B0BDE8F08100BFF829002008B5022174
:102AB800034A04481BF015FD6FF0020008BD00BF73
:102AC800473F0200C42B020001290CBF012200224B
:102AD80080B50D4B00AF1A700C4A88B00C4B08BF7C
:102AE80013466A460B49C2E905134FF400739383F2
:102AF800094B42F8103F00234FF4E651074802F013
:102B080051FFBD4680BD00BF9C6F0020743F02008E
:102B18007C3F0200853F020003000001C42B020035
:102B280001290CBF0122002280B50D4B00AF1A709D
:102B38000C4A88B00C4B08BF13466A460B49C2E9D9
:102B480005134FF400739383094B42F8103F002399
:102B58004FF4E651074802F025FFBD4680BD00BF8F
:102B68009D6F0020A03F0200A83F0200B13F020075
:102B780003000001C42B0200012B08B517D11378FC
:102B8800012B0FD10B4A12781AB9BDE80840FFF79C
:102B98008DBF094A1370094A094803211BF0A1FC9B
:102BA800012008BD0022044B1A70064AF4E76FF0B2
:102BB8000C00F6E79A6F00209B6F0020D43F0200BC
:102BC800C42B0200F63F0200F0B58DB002AF3C46C0
:102BD8003A46354B03F110062546186859680833FC
:102BE80003C5B3422C46F7D11B780D212B702F4813
:102BF8000CF052F807F1140422462D4E2D4B30608C
:102C080003F1100C254618685968083303C5634555
:102C18002C46F7D11B780D212B7024480CF03CF87A
:102C2800254B1860336803B148B924480121244A68
:102C38001BF057FC6FF015002C37BD46F0BD032183
:102C4800204A1E481BF04DFC0A2303211E4A1B483C
:102C58001BF050FC1823032100931C4AF323174848
:102C68001BF052FC2B230321194A14481BF042FC89
:102C7800184B194A1978194B6C4688B0002908BFB7
:102C8800134602AA1649C2E905134FF40073938349
:102C9800144B42F8103F094800234FF4E65102F064
:102CA80081FE0020A546C7E7482E0200902E0200AC
:102CB800002A0020592E0200FC290020C42B020003
:102CC8002A40020049400200784002009040020079
:102CD800B54002009B6F0020194002001F4002000F
:102CE800CD4002000300000170B50F4B04461B786D
:102CF8000D4686B0ABB110B90C4B1C688CB10C4BAF
:102D08000021182268461E681FF020FCF32369463C
:102D18002046CDE90165ADF80C300CF037FB06B064
:102D280070BD6FF07F00FAE79D6F0020042A002035
:102D3800002A0020044B187820B1044B186800388A
:102D480018BF0120704700BF9D6F0020042A002093
:102D580038B50D4D0446286808B108F06DFA64B915
:102D68002C600023094A1370094A13700321BDE837
:102D78003840084A08481BF0B4BB204608F034FA2B
:102D880028600028EDD038BD042A00209D6F00205F
:102D98009C6F0020E0400200C42B0200014B187811
:102DA800704700BF9B6F0020F8B50F4600293BD045
:102DB8000668012230461AF061FA01460446304698
:102DC8001AF024FAC3070DD4AF23184A1849194832
:102DD8001AF0D1FC394618481AF0CDFCAF21134837
:102DE8001AF0C0FC214630461AF026FA2518294662
:102DF800002230461AF00AFA2D1AAC420BD0B7233B
:102E08000A4A0E490B481AF0B6FC39460C481AF023
:102E1800B2FCB721E3E7214630461AF013FA2146FF
:102E2800BDE8F8401AF048BBF8BD00BFC341020036
:102E3800E6410200413A0200F74102002F42020037
:102E480055420200B2F5802F2DE9F04110D2042A34
:102E580028D8454940F21A23444A45481AF08BFCC1
:102E680044481AF088FC40F21A2140481AF07AFCCB
:102E78000823D21ACC1D114424F0070421F00701BD
:102E8800091B17294FEAD1060ED83B4940F22323E4
:102E9800364A37481AF06FFC36481AF06CFC40F294
:102EA8002321E2E70423E4E70025046031462046B5
:102EB800A660E5601AF0ECF9B6F5004F2CBF0823C0
:102EC8000423421D92000833D11DDB0803EBD10314
:102ED800B3424FEAD10739D801302946A2F110028E
:102EE80004F11000B8BF2A461FF030FB3A462946C5
:102EF80020461AF0BFF92B462A46294620461AF0E2
:102F080090F9A6EB07082046294601221AF09AF9FB
:102F1800424639461AF0AEF93B462A46394620461B
:102F28001AF07FF9314620461AF0A4F943462A469A
:102F3800314620461AF075F93146204601221AF02A
:102F480081F93946BDE8F0411AF074BA0B494FF4DB
:102F58000E73064A06481AF00EFC06481AF00BFCD7
:102F68004FF40E7181E700BF91420200C341020095
:102F7800413A0200B2420200CB420200F44202008F
:102F88002DE9F04F91B0009302F004030293C2F3CD
:102F9800C2030133840705460E46DDF868900392A4
:102FA800059340F0F881041D30B1072909D86FF066
:102FB8001B0011B0BDE8F08F01F007063444C6F1DC
:102FC80008064FF000084FF0040B009B4FF0FF324B
:102FD800591E47464346DA46CDF8108001920DB196
:102FE800009820600598002800F3D7809948009A37
:102FF800824203D398488242C0F0CF80039AA4EB60
:10300800050E92074FEA9E0040F1E2804FF0000C57
:10301800CCE07A285CD84B280CD8472858D82928DF
:103028002AD8252851D053D8202877D0233843428E
:10303800434173E04C382E284AD8DFE800F06F4946
:10304800494949494949494949494B4949494949E6
:1030580049494959494B4B5959596F4B6C496F4923
:10306800184B184949807D4B49494B497D00002040
:1030780000234FF0040B39E001222A38C0B202FACB
:1030880000F010EA0E0F49D110F0625C30D110EA5E
:10309800020343D06046013C5C44B4FBFBF40BFBE9
:1030A80004F4002D60D0AAEB050CA444B4453FF607
:1030B8007EAF00286AD1BAF1040F45D159F8040B44
:1030C80020604FF0040A043428E0019B013B01937F
:1030D800002323E011F8013C6C2B32D1002011F8B9
:1030E800023C6C2B0346C4D14FF0080BDA46D2E7FA
:1030F80009F1070929F00709073424F00704F9E85A
:1031080002AB35B106982044B0423FF650AFC4E94F
:1031180000AB002308344FF0080BDA4611F8010F12
:10312800002800F0C080002B7FF473AF2528F5D16C
:10313800019B0133019301234FF0040BEDE718467F
:1031480096E700200346A6E7BAF1080F40F09D80F5
:1031580009F1070929F00709B9EC027B84ED007B26
:103168004FF0080A0834D9E780B9BAF1040F02D140
:1031780009F10409A5E7BAF1080F40F0868009F1C2
:10318800070929F0070909F10809E9E7059801384D
:10319800059059F8040B009021E7039A90074CD545
:1031A8004FF0010CA4EB050E4FEA9E00BEF5007F20
:1031B8001FD32A494FF41F73294A2A481AF0DBFA09
:1031C80029481AF0D8FA4FF41F7125481AF0CAFA9C
:1031D8000F2F10D8002D4BD007F140020DEB020C39
:1031E800019A0CF8200C0CF8102C0498013004906B
:1031F80022E00F2F0CD9194940F28123184A1948A7
:103208001AF0B9FA19481AF0B6FA40F28121DCE747
:10321800D5B107F140020DEB020E019AC0B20EF8CB
:10322800200C0EF8102CBCF1000FDED060F07F00EF
:103238000EF8200C08F101080137C5F108024FF615
:10324800DA7E0434069269E7BCF1000F10D001362B
:10325800F2E700BFE0250200EC9D0200778F020034
:103268001F430200413A02004D4302006E43020030
:10327800029A0236002ADFD10098CDE90631FDF71F
:103288001DFFDDE906310644D6E740F2C623434A6E
:10329800434944481AF06FFA514643481AF06BFA0A
:1032A80040F2C62191E7631BB3F5806F0CD33C490C
:1032B80040F2D223394A3B481AF05DFA3B481AF0EB
:1032C8005AFA40F2D22180E71DB9A6F10804E018A5
:1032D8006FE6029A9B0828602B709DF81030C2B1E7
:1032E800EB7085F80280B8F1000F05D0002208A81D
:1032F800C5F1010C97420ED14FF0000AC5F1010348
:103308000DF1200901930DF1300B574512D1601BC7
:103318004FE66B70E5E710F8013B190608D50CEB92
:10332800040EB64503F07F033FF641AE04F8013BB7
:103338000132DFE7B8F1000F03D099F90020002A25
:1033480017DB029BD3B11AF80B2004F8012B0022DB
:10335800019B18191044B0423FF629AE99F80000B5
:10336800009904F8010B204603921FF0C8F8039A4D
:1033780014440AF1010A09F10109C6E799F8002085
:1033880055F822300093029B009845F82230FDF74B
:1033980095FE421CDCE76FF00D000AE61F430200B1
:1033A800778F0200413A0200884302009D430200E1
:1033B8002DE9F04F97B000AF89460446D7F880B0A2
:1033C800FA623B6258B9A94940F29933A84AA94818
:1033D8001AF0D1F940F29931A5481AF0C3F9CBF3A4
:1033E800C00390F802A07B6141B9457800780AEBE8
:1033F800800020444D4517D8A0EB0409E378FB6111
:10340800BAF1000F02D01BF0010F16D1FB6953BBB4
:10341800FB6A1BB1494620463A6A98474D462846FA
:103428005C37BD46BDE8F08F461C3046FDF746FECA
:103438000130304409F10109DCE7626823787A62D7
:10344800FA6A9900B96104EB8301002A40F002810D
:103458000E464FF000084D4601EB0A094E454CD187
:1034680001EB0A0610E01BF0020FD1D023789A0076
:10347800BA61626804EB83017A62FA6A002A77D13A
:103488004D46904601EB0A061BF0050F0CBF0223C0
:103498000123FB62FB6906EB430A0BF00203BB62E4
:1034A8005645BCD016F8021B16F8013C54F8239078
:1034B800714B994502D3714B994536D37B69002BE3
:1034C80040D0786A1AF0A9F800283BD0E9468AB0BB
:1034D8006A466B4B53617B6AC2E906314FF400734D
:1034E8001384684B42F8103F00234FF4125166488A
:1034F80002F058FA023DCD46D2E716F8013BF962D0
:1035080054F82300FDF7DAFDD7F88430F96A013062
:103518004BB1D7F8883098453EBFD7F8843023F8A8
:10352800180008F10108054498E77B6923B1786A17
:103538001AF073F80028C9D11BF0010F05D1FB6AF6
:10354800ED1AADE7BB6A002BAAD04846FDF7B6FDD9
:10355800D7F8843053B1D7F8883098453FBFD7F8AB
:103568008420431C22F8183008F10108054497E725
:10357800BAF1000F74D01BF0040674D0D0460026B0
:1035880007F1480052463B61B9621EF0B8FFB96ABC
:103598003B6901EB0A02BA62FA69F9695200FA60FA
:1035A800BA6A02EB41023A610BF00202BA60BA6AE7
:1035B80039698A426AD162781BF0020F18BF00216C
:1035C8007A6208BF4FEA5801B2181BF0010FD2B255
:1035D80040F0E5801BF0040F14BF404600207B61DB
:1035E8006270A070E17020463A6AB969FB6A984730
:1035F800051EFFF614AF7B69414623707B6A3A6A61
:103608006370FB6984F802A0E37007F14800FB6A65
:103618009847B0F10008C0F2F680BB69A9EB0A012F
:10362800C91AFB683A6AC91AD7E90A0398470028F1
:10363800C0F2EB804FF0000BA84408EB000507F13F
:10364800380AB345C0F0AD8000213A6A0846FB6AE3
:103658009847E4E656464FF0000807F1380091E72E
:103668005646D04695E7B04693E700BFB4430200FC
:103678001F430200413A0200E0250200EC9D0200CF
:10368800CF430200040000013C2C0200BA6A12F881
:10369800021B12F8015CBA6254F825005C4A904299
:1036A80002D35C4A904218D37A693AB1786A7B604F
:1036B80019F0B3FF7B6800287FF479AFBA68002A55
:1036C8004CD00F2E40D9544940F24D43534A5448E8
:1036D8001AF051F840F24D417EE67A693AB1786ABB
:1036E8007B6019F09AFF7B6800287FF460AF1BF0BD
:1036F800010F0BD00F2E27D9474940F24343474AC1
:1037080047481AF038F840F2434165E61BF0040FC9
:103718003FF44DAFB8F10F0F09D9424940F2464383
:103728003E4A3F481AF027F840F2464154E608F16D
:10373800280207F1300008F1010102EB000808F83F
:10374800105C5FFA81F832E706F1280207F13000D1
:10375800711C161806F8205CCEB228E7B8F10F0FD6
:1037680009D930494FF48A632C4A2D481AF003F8D6
:103778004FF48A6130E608F1280207F1300C08F1AD
:103788000100944407F1580208F1020852FA80F047
:103798000CF8101C5FFA88F800F8105C07E70020A6
:1037A8001DE71BF80A3054F8239087F83730D7F80C
:1037B80084302BB3D7F888309B4521D2D7F8843092
:1037C80033F81B8001213A6AFB6A07F137009847F2
:1037D80000281ADB0544B8F1000F06D14846FDF76A
:1037E8006DFC00F101081FFA88F8414648463A6A1C
:1037F800FB6A9847002808DB05440BF1010B20E71A
:103808004FF00008DEE7454609E6054607E600BF33
:10381800E0250200EC9D0200724402001F430200F2
:10382800413A020091440200014B1860704700BF02
:103838001802002030B5002587B0CDE90301044601
:10384800009503A905480595FDF78EFDDDE90430CF
:103858009842B8BF255407B030BD00BF71D60100EB
:10386800F0B5024601680A270020074E0B461C786F
:103878000131355D6D0701D41360F0BD07FB0043CE
:10388800A3F13000F2E700BFEA9C02002DE9F84FEF
:1038980015469A46D378234A6F2B12F803B081460F
:1038A8000F460BF0030B2BD026D8582B0CBF102635
:1038B8000A26DDF828803246002348463946FDF7B7
:1038C800D9FB092A08F1FF38D4B21ED83034B145E3
:1038D800E4B277F1000788F8004001D3D04511D849
:1038E8002B789B0605D5082E15D1AB7843F0080335
:1038F800AB704046BDE8F88F03F0F703702BD5E7AF
:103908000826D6E781460F46D5E7BBF1010F0CBF65
:1039180037345734DBE7102EEBD1AB7843F0100384
:10392800E6E700BFEA9C020038B50D4604462022AF
:1039380000211EF00BFE0022EB68E361AB68A36177
:103948002B6823626B68A26263622A6923B1591EDD
:10395800194208BF42F0010222610122002104F14C
:103968002C001EF0DEF848B1054906482F23064A08
:1039780019F001FF2F21044819F0F4FE38BD00BFEB
:10398800EE440200413A0200C84402002DE9F04F1B
:10399800002789B0CDE90123436A04468B42884653
:1039A800BA460597079754D300F11406EFF311852B
:1039B800202383F31288BFF36F8F3046A94614F093
:1039C800DBFE58B988234D4A4D494E4819F0D3FEBD
:1039D80031464D4819F0CFFE882163E0304614F097
:1039E800EFFE079A2AB13946204619F0ADFF0023A9
:1039F800079306A9204619F0CBFE06998346414550
:103A080030D32268236A204613F8221003EB820A77
:103A180021F0030103F822102168424619F0DCFE68
:103A2800E3682060984218D04FF0000B304614F03D
:103A3800B1FE50B389F31188BFF36F8F059929B18F
:103A4800A2690AB12046904700230593BBF1000FF5
:103A5800ACD1504609B0BDE8F08F236943F00803A4
:103A68002361E1E718B1204619F0D0FEDEE7DDE971
:103A78000132134339D003911EF0C9F80399A0BB52
:103A88009DBB304614F086FE78B94FF49A731B4AF2
:103A98001E491C4819F06FFE31461D4819F06BFE8F
:103AA8004FF49A71154819F05DFE85F31188BFF33C
:103AB8006F8F04F12C00DDE9012312F023FC83460B
:103AC800EFF31189202383F31288BFF36F8F3046F9
:103AD80014F052FE00283FF475AFBBFA8BFB30465A
:103AE80014F06EFE4FEA5B1BA0E7204607AB05AA61
:103AF800276819F0AAFE834698E700BFFF3902003D
:103B08002C3A0200413A02005E3A0200743A02007E
:103B18008B3A02002DE9F0410446C36908460E4677
:103B2800984704F114050746EFF31188202383F31F
:103B38001288BFF36F8F284614F01EFE68B98823D9
:103B48001A4A1B491B4819F016FE29461A4819F04B
:103B580012FE8821154819F005FE284614F030FE9B
:103B680033783A4643F0010333706168204619F010
:103B780033FE6060204619F002FF284614F00AFE62
:103B880068B94FF49A73094A0C490A4819F0F3FDC9
:103B980029460B4819F0EFFD4FF49A71DAE788F3DC
:103BA8001188BFF36F8FBDE8F08100BFFF390200B5
:103BB8002C3A0200413A02005E3A0200743A0200CE
:103BC8008B3A02002DE9F843044600F11407EFF39D
:103BD8001188202383F31288BFF36F8F384614F0BF
:103BE800CBFD054668B98823344A3549354819F06C
:103BF800C2FD3946344819F0BEFD88212F4819F016
:103C0800B1FD384614F0DCFD2369A26813F0080FF3
:103C180002D163689A4200D9636A9B1A002B3FD08D
:103C2800216A11F8223001EB820913F003003AD01F
:103C3800022803D151F82260B60805D1D8071FD44D
:103C48004846E36998470646A1683246204619F077
:103C5800C3FD3146A060204619F0CCFD384614F06B
:103C680099FD10BB4FF49A73144A1849154819F076
:103C780082FD3946164819F07EFD4FF49A71BDE76A
:103C880043F0020301F82230E3694846A5689847E3
:103C980029460246204619F09FFD0025A060DDE771
:103CA8001D46A946DAE70546FBE788F31188BFF306
:103CB8006F8F002D8BD14846BDE8F883FF3902008D
:103CC8002C3A0200413A02005E3A0200743A0200BD
:103CD8008B3A02002DE9F0410446C36908460D46B7
:103CE800984704F114060746EFF31188202383F35D
:103CF8001288BFF36F8F304614F03EFD68B98823F1
:103D0800274A2849284819F036FD3146274819F02E
:103D180032FD8821224819F025FD304614F050FD67
:103D28002B786FF300032B7023699B0705D5E26896
:103D3800236A03EB82039D4222D12B786FF3410360
:103D48002B70D4E90231994204D13A46204619F041
:103D580043FDA0603946204619F04CFD304614F06A
:103D680019FD90B94FF49A730D4A11490E4819F08C
:103D780002FD31460F4819F0FEFC4FF49A71C9E76D
:103D88002B6867F39F032B60E8E788F31188BFF37C
:103D98006F8F04F12C00BDE8F04112F02FBA00BF7C
:103DA800FF3902002C3A0200413A02005E3A020052
:103DB800743A02008B3A020070B5044600F114050B
:103DC800EFF31186202383F31288BFF36F8F284601
:103DD80014F0D2FC68B988231A4A1B491B4819F009
:103DE800CAFC29461A4819F0C6FC8821154819F05A
:103DF800B9FC284614F0E4FC2369A06813F0080F06
:103E080002D16368984213D9646A241A284614F0C8
:103E1800C1FC78B94FF49A730A4A0E490B4819F055
:103E2800AAFC29460C4819F0A6FC4FF49A71DDE764
:103E38001C1AEBE786F31188BFF36F8F201E18BF9B
:103E4800012070BDFF3902002C3A0200413A0200FD
:103E58005E3A0200743A02008B3A02002DE9F84FEC
:103E68000446A38B08461907154612D4022803F006
:103E7800070165D1204619F008FE88B101380428E9
:103E880000F23781DFE810F05C0035018200D400D1
:103E9800040101280CBF43F0100143F02001A18365
:103EA8001434204614F076FC002840F09D819A498D
:103EB8004FF49A73994A9A4819F05DFC2146B1E08B
:103EC80003F00702501F01281ED80020062A276881
:103ED800C4E9000014D13A4603E0E08B0130E083E6
:103EE8001268002AF9D123F0070343F002022046A2
:103EF800A28319F0CAFD90B342F02002A2832EE0FB
:103F080023F007039AB2F2E7042A33D123F0070318
:103F18009AB22046A28319F0B8FD10B142F02002EF
:103F2800A283A38B03F00709894540F0EC80A18B9D
:103F3800CA0640F1508121F01003A38301F0070164
:103F4800D4F81880A38BB8F1000FB9DA00222768DB
:103F580023F00703C4E9002243F00103A383A38BE2
:103F680003F00709894540F0CF80002FDFD00026F5
:103F7800B24644E06B4940F21B136B4A684819F09B
:103F8800FAFB40F21B11684819F0ECFB49B167498C
:103F98004FF4AB73644A624819F0EDFB4FF4AB7110
:103FA800F1E723684BB9624940F257135E4A5C480F
:103FB80019F0E1FB40F25711E5E723691E684EB995
:103FC8005C494FF4AD73584A554819F0D4FB4FF487
:103FD800AD71D8E70F4688464FF00609A38B23F04A
:103FE800070343F006039BB2A383A268002A40F0AC
:103FF8008D80002F40F08D80002E98D0BA4643F077
:10400800080304F1140B5846A38314F0C3FB0028DB
:1040180040F09A8040494FF49A73404A404819F05A
:10402800AAFB5946444819F0A6FB4FF49A71ADE033
:10403800022909D0414940F25D133B4A384819F03A
:104048009AFB40F25D119EE7E78B4FB13C494FF474
:10405800AF73354A324819F08EFB4FF4AF7192E7CF
:1040680023695E684EB9334940F261132E4A2C48E1
:1040780019F081FB40F2611185E7A38BB84623F064
:10408800070343F004039BB24FF00409A383ACE792
:10409800012909D02B494FF4B273234A204819F05B
:1040A8006AFB4FF4B2716EE723684BB9204940F2BE
:1040B80065131D4A1A4819F05EFB40F2651162E764
:1040C80023699E684EB91B494FF4B473164A1448C5
:1040D80019F051FB4FF4B47155E70027A38BB8468C
:1040E80023F0070343F005039BB24FF00509A383B0
:1040F8007BE70C4940F26B130B4A094819F03BFB6C
:1041080040F26B113FE7002700266EE74FF0010AE7
:1041180075E7924673E700BF743A0200FF39020060
:10412800413A0200778F0200F74402001C45020062
:10413800284502004B4502008B3A02006245020006
:10414800784502008745020085F31188BFF36F8F19
:10415800BAF1000F1CD177BB16B120462549B047EC
:10416800EFF31185202383F31288BFF36F8F58462E
:1041780014F002FB38BB88231F4A2049204819F055
:10418800FAFA59461F4819F0F6FA88211A48FBE648
:10419800A1680029DFD00D680029DCD043464A46D3
:1041A8002046D1F804A0D0471DB12B6829461D46EA
:1041B800F2E72B46FAE7394643464A4620463F6827
:1041C80019F08FFCC7E7584614F0FAFAA38B23F0CE
:1041D8000803A383ABE68B067FF562AE21F02003CC
:1041E800A38301F0070145E685F31188BFF36F8FBC
:1041F800BDE8F88F11420000FF3902002C3A020096
:10420800413A02005E3A0200F8B504460D4600F154
:104218001406EFF31187202383F31288BFF36F8FFF
:10422800304614F0A9FA68B988230C4A0C490D489D
:1042380019F0A1FA31460C4819F09DFA882107486F
:1042480019F090FA304614F0BBFAA5613A462046B8
:10425800BDE8F8400121FFF701BE00BFFF390200A9
:104268002C3A0200413A02005E3A02002DE9F0477A
:1042780004460F4619F025FC051E68DB04F11409F5
:10428800EFF3118A202383F31288BFF36F8F484618
:1042980014F072FA804660B98823384A3849394898
:1042A80019F069FA4946384819F065FA88213348FF
:1042B80042E0484614F084FA4FF6FF72E38BA68B6F
:1042C800934206F0070645D0022E15D13546013334
:1042D800E383484614F05EFA002841D14FF49A73FC
:1042E800264A2A49274819F046FA4946284819F023
:1042F80042FA4FF49A71DAE7062E13D8DFE806F08F
:10430800092D1212090409006FF085054FF0000805
:10431800DFE700233B60636883B9C4E9007786B1AF
:104328003546F3E71B4917484FF4E4731A4A19F066
:1043380022FA4FF4E471184819F014FA1F60676004
:10434800EDE7524602212046FFF788FD354628460C
:10435800BDE8F0876FF00A05D8E76FF00405D5E7E8
:104368008AF31188BFF36F8FB8F1000FEFD00023E5
:1043780032463946204619F0B4FBE8E7FF39020017
:104388002C3A0200413A02005E3A0200743A0200F6
:104398008B3A020087450200F7440200F8B505464B
:1043A80000F11406EFF31187202383F31288BFF37B
:1043B8006F8F304614F0E0F960B98823254A264902
:1043C800264819F0D8F93146254819F0D4F988213A
:1043D80020482BE0304614F0F3F9AC8B04F00704C6
:1043E800022C17D0012C0CBF6FF004046FF0850469
:1043F800304614F0CFF938BB4FF49A73154A19496F
:10440800164819F0B8F93146174819F0B4F94FF4BD
:104418009A71DDE7EB8B5BB91449104840F2EF1352
:10442800134A19F0A8F940F2EF11114819F09AF956
:10443800013B9BB2EB83002BDAD13A462146284652
:10444800FFF70CFD2046F8BD87F31188BFF36F8F87
:10445800F8E700BFFF3902002C3A0200413A020097
:104468005E3A0200743A02008B3A02009D4502004F
:10447800F744020008B54268034602F00302022A24
:1044880081600AD0032A4FF0000103D0012A0AD123
:10449800596006E01868596008BD186800225A601B
:1044A80058B90020F8E7064906484523064A19F096
:1044B80062F94521044819F055F914F0D3FDF0E7E5
:1044C800778F0200413A0200AB4502002DE9F7431D
:1044D8000F4606460821C06A19F0ABFB80463C68C7
:1044E800DFF84890241A3C6004EA0905AC4203D876
:1044F800002003B0BDE8F08308236A462146304611
:1045080019F02DFB0028F4D16946304619F09BFBC1
:1045180040B1BDF80230BDF8042005EA090513448E
:104528001D443C60A4EB0804E0E700BF0000FFFF67
:1045380073B504464FF6FF72C06A082119F079FB7B
:10454800002563680F4EADF800208DF80620E2685C
:10455800191833401344181A60606846ADF8021001
:10456800ADF8045019F05CFB6946204619F02BFCA5
:104578002046211D19F02CFB284663683340A360B0
:1045880002B070BD0000FFFF2DE9F04704468AB075
:1045980000F1140738461DF08BFAA06A8368DB68BF
:1045A8009847E06250B98D4A01218D4819F01DFBEA
:1045B8006FF0150528460AB0BDE8F087A06A836841
:1045C800DB6898470368013B1F2B01D9854AEBE755
:1045D800E368B3F5803F08D94FF480320121009297
:1045E8007F48814A19F090FFE2E7A06A216807AA8C
:1045F8001BF0F7FF08B17D4AD6E7E5682DB1089BA7
:10460800B5FBF3F203FB12550DB1794ACCE7238AC7
:10461800012B01D8774AC7E7E36A029593F805901A
:104628004FF0FF334FF0FF32384611F0D1FA08212E
:10463800E06A19F0FEFAA8460646238A1FFA85FAA8
:10464800534508D8238A434523D1384611F090FBB7
:104658006FF02C05AEE7E1682B04891B13FA81F192
:104668004A4608232046029119F087FA78B1204675
:1046780002A919F0ADFA08F1010808234A462046B4
:1046880002991FFA88F819F078FA0028DAD001356B
:10469800D3E79A450BD1029908234A462046891B3D
:1046A80019F06BFA18B9204602A919F091FA2046B8
:1046B80002A9FFF70BFF054618B1384611F058FB61
:1046C80078E7029B4FEA13484FEA08486360C4F84A
:1046D8000880D4E9011399420FD30823204603AA7E
:1046E80019F03DFA05460028E7D103AB13F8012B72
:1046F80091453DD10135082DF8D1636820461B0C42
:104708001B0402A9029319F063FA4A462046E3689B
:10471800029919F032FA051ECFDB63687ED04FF696
:10472800FF7906EB0308E3681FFA88F29B1B9A429D
:10473800CDF8088038D303212F4A294819F055FAB3
:104748002046616819F053FA05460028B5D1636818
:104758002A4AE16813400B44A3EB46036360134005
:104768002046A36019F057FB0546002D72D0A4E738
:10477800204603A919F067FA626810B9921B6260B3
:10478800A7E7BDF81050BDF80E10E06AC4F808801D
:10479800294419F04EFA40449042A060EED1002D11
:1047A800ECD06FF01C0580E008234146204605AA9E
:1047B80019F0D5F9054600287FF47FAF204605A9F2
:1047C80019F041FA38B1BDF814304B4503D1BDF8A2
:1047D8001830002B6FD0B044A5E700BFE5450200B4
:1047E800642C020007460200244602004D460200DF
:1047F8006546020079460200EB4602000000FFFF12
:104808004A4620465B1A19F0B8F9051EFFF655AF5F
:1048180008D0E26AA36812681344A360D4E901319E
:104828008B42EDD86168E36801EB46029A429CD15D
:10483800DFF8BC80A26801EA08039A4295D02046B6
:1048480019F0D5F9054600287FF437AF636803EA05
:104858000803A360E368A288A3EB46039A4220D02A
:10486800384611F085FA0123E268A374238A0321EC
:1048780000921A481A4A19F047FE63689AB20092E1
:104888000321184A15481B0C19F03EFEA3689AB27A
:1048980000920321144A11481B0C19F035FE00251B
:1048A80088E6204619F0A0FA0546384611F060FA65
:1048B800002DD8D07EE60D4A0321084819F095F955
:1048C800636820461B0C1B0402A9029319F080F9A7
:1048D8002046029919F08BF946E700BF642C0200C4
:1048E8009C460200B3460200C5460200D6460200B6
:1048F8000000FFFF2DE9F04F1D46837C91B0044670
:104908000291009253B90121634A644819F06DF984
:104918006FF00C06304611B0BDE8F08FC26A08216E
:10492800104619F086F929460190104619F081F9C8
:10493800E368019A0746A3EB8203AB42C0F0A88064
:104948001DB1009B002B00F0A380636805932046EF
:1049580006AA05A9DDF814A019F0B2F90646002840
:10496800D8D1BDF81830029A934206D06268059BE8
:104978009A42ECD1002D35D1CCE7204606A919F092
:1049880062F90028F2D0BDF81A80BDF81C303DB39A
:104998009D4227D14FEA1A4A4FEA0A4AD044AA460A
:1049A800E36ADDF800B01B685B4203F02003039361
:1049B800039B4146534528BF5346204608AA9946BB
:1049C80019F0CDF800284AD14A46584608A91DF0E2
:1049D80086FD38B9BAEB090AC844CB44E8D199E74F
:1049E800002B97D0002F3DD1B84604F1140A4FF0A0
:1049F800FF324FF0FF33504611F0EAF8238A9E4207
:104A080043D0A168626808EB01039A422FD3029B46
:104A18002046ADF82030FF23009A8DF826302B462B
:104A2800ADF82210ADF8245019F094F9294607463C
:104A3800E06A19F0FEF8A3680344A36057B908A810
:104A480019F0EEF8204608A919F0BDF9002814BF9E
:104A580007462F46504611F08BF93E465AE7C1DC0F
:104A6800064657E7019B1F441FFA87F8BDE7204613
:104A7800FFF75EFD07460028ECD1204619F0CBF978
:104A880007460028E6D10136B8E76FF01B07E1E7D3
:104A98006FF015063EE700BFD1450200642C020006
:104AA8002DE9FF471E46837C04460F469046BDF815
:104AB80030904BB92C4801212C4A19F096F86FF028
:104AC8000C0004B0BDE8F0870821C06A19F0B1F8FD
:104AD800E368A3EB4003B34243D30025D4F804A012
:104AE800CDF804A04D455146DDF804A009D9636806
:104AF80053451ED1BDF80830BB421AD06FF00100F3
:104B0800DFE7204602AA01A919F0DAF80028D8D16F
:104B1800BDF80830BB4206D1204602A919F093F827
:104B280008B10135ADB26268019B9A42DAD15146AB
:104B3800E0E7BDF80C30002BE0D0A945DED8BDF881
:104B48000A00090CB3424FEA014128BF3346014429
:104B58004246204619F003F80028B2D1BDF80C00EF
:104B6800AFE76FF01500ACE7642C0200D1450200F6
:104B780010B530B90B480C4919F025FA6FF015003B
:104B880010BD836833B90748084919F01CFA6FF05B
:104B98000400F5E71B6813B1BDE810401847184634
:104BA800EEE700BF7C2C0200194702002A470200EA
:104BB80010B530B90B480C4919F005FA6FF015001B
:104BC80010BD836833B90748084919F0FCF96FF03C
:104BD8000400F5E75B6813B1BDE8104018471846B4
:104BE800EEE700BF7C2C0200194702002A470200AA
:104BF80070B508B101B132B90B480C4919F0E3F9A5
:104C08006FF0150070BD84680CB1E56835B90648C9
:104C1800074919F0D8F96FF00400F3E741F8040BDD
:104C2800E368BDE8704018477C2C02004847020042
:104C38002A47020010B5044630B91048104919F047
:104C4800C2F96FF0150010BD006830B90B480D4966
:104C580019F0B9F96FF00100F5E783680BB11B692A
:104C680033B90648084919F0AEF96FF00400EAE7CD
:104C7800616898470028E6D12060E4E77C2C0200B0
:104C880074470200854702002A47020070B51346A0
:104C9800044630B91048114919F095F96FF015001C
:104CA80070BD006830B90C480D4919F08CF96FF0E7
:104CB8000100F5E782680AB1956835B906480949DF
:104CC80019F081F96FF00400EAE70A46AC4661681A
:104CD800BDE87040604700BF7C2C020074470200AA
:104CE800854702002A470200034A13680BB9526835
:104CF80013600020704700BF1C02002030B50C462E
:104D08000E4985B00291D0F8D4110546CDE900319D
:104D180000F1F0014FF0FF3320460FF051FF50B97A
:104D2800012384F86C30D5F8D03123B1204605B082
:104D3800BDE83040184705B030BD00BFC7E00100EE
:104D480038B50C461146054619F0BBF9034638B983
:104D58002846044919F0B5F903460020236038BDF8
:104D68000120FBE7999102002DE9F04F01238146CC
:104D78000569466891B005F57B77D7E8EF2F002ADB
:104D880003D1C7E8E13F0029F7D10CBF1A4600223A
:104D980040F0BD80B368B16A05F5F8781C1F10466D
:104DA80019F016FA84427BD8013A00F0AA80B2FAC8
:104DB80082F24FF00044D44072682046073222F055
:104DC8000302C5F83C22B16A19F002FAC5F840029C
:104DD800B36A40466343033323F0030302EB430201
:104DE800230103EB4403093323F0030303EBC40358
:104DF800C5F834221A440832C5F830227368C5F859
:104E08003842C5F82C32434BC5E9AD63316800F030
:104E1800F3F90446002841D1D9F810B0D9F804A014
:104E2800D9F800300BF53479CDE9060005934846EA
:104E3800DAE90734012B08BF103C11F093FEDAF8C9
:104E48002400354905AB009301EB802123464846F1
:104E58004FF4806211F0A0FE2021DAF824302F4AA6
:104E68000DEB010018F021FC08A9484612F0C4F91E
:104E78002B490BF5307011F0B9FCDAE905018368AC
:104E88005C684CB15B46274AA047044630B9DAE96A
:104E9800050183681B692BB96FF05704002129E0CD
:104EA80001327CE70122984704460028F6D11E4BC0
:104EB8002846C5F8D0311D4BC5F8D4311C4B039397
:104EC800D5F840320293D5F83C32CDE9008305F598
:104ED8001173B26AD5F8E81300F056F904460028B1
:104EE800DCD105F1F0000FF011FF0028C5F8F00340
:104EF8000ADB0221384619F018F9204611B0BDE83E
:104F0800F08F6FF00B04C9E76FF01504C6E76FF078
:104F18007704F2E71DE10100607E0020AA47020045
:104F280003E10100F7E001003D4F0000AFE201009E
:104F380063E1010013B5044640B100230122CDE925
:104F48000032074BD0E909120FF00EFE236F1B68E1
:104F580023B1606F02B0BDE81040184702B010BD21
:104F68009991020013B504460846216901F57B7141
:104F7800D1E8AF1F022910D193B1A0B10121CDE929
:104F880000311346D0E909120FF0EEFD074B9842A5
:104F980008BF6FF00B0002B010BD6FF00F00FAE70A
:104FA8006FF04C00F7E76FF00100F4E72EF8FFFF11
:104FB8002DE9F34789461546066906F57B73D3E85C
:104FC800AF3F022B64D1136823B96FF0150002B00C
:104FD800BDE8F0871B78002BF7D0D6F8E8A3BAF124
:104FE800000F36D106F5EC774FF0FF324FF0FF3364
:104FF800384610F0EDFD30462A6801A9FFF7A0FEFB
:10500800019C80461CB9384619F08DF8DDE705F19A
:1050180008032367AB6984F86CA06367646460B1B4
:10502800384619F080F821463046A36E2A68FFF703
:1050380065FE0020C9F80040C9E71F22296804F16D
:1050480048001DF0A5FA384684F8678019F06BF817
:10505800EFE73046104919F034F804460028B4D078
:10506800002705F108030367AB6980F86C70436794
:1050780040641F22296848301DF08AFA224601211F
:10508800304684F8677000F061F80028D1D09CE7BA
:105098006FF00F009BE700BF9991020010B50C4616
:1050A800006900F57B73D3E8AF3F022B0FD189B1BC
:1050B8000A4900F5307011F0C7FC20461CF0B3FA1D
:1050C8007822002120461DF041FA002010BD6FF023
:1050D8000F00FBE76FF00100F8E700BF082A002087
:1050E8002DE9F04F05460E4690460027D0F8C4A09B
:1050F80085B0AAF5BE7421463046FBF7D5FFE0B966
:10510800114BA4F1480B0293DAF810303246CDE97E
:10511800008329464FF0FF335846AAF5E2790FF08D
:105128004FFD60B97823012203FB079383F86C20B5
:10513800DAF80C300BB158469847783417B105B0F7
:10514800BDE8F08F0127D6E7DDE201001FB5144660
:1051580090B18AB1012912D10A4B00F1F0010293F2
:10516800D0F8D431483201934FF0FF3320460093F2
:105178000FF026FD04B010BD6FF01500FAE700200F
:10518800F8E700BFDDE201002DE9F04387B00E46E5
:10519800DDE90E811446DDE910251F4630B329B339
:1051A800DFF850C000F1F009002D08BF65469EB930
:1051B800CDE9034400F5E274204605961CF0EBFBAC
:1051C80003ABCDE900432A463B46414648460FF02B
:1051D80057FF07B0BDE8F083002241460E924846CB
:1051E8002A4607B0BDE8F04310F0A0B86FF01500EC
:1051F800EFE700BFE9500000F0B504462B4A87B03E
:1052080004AB0E4692E8030083E80300002C49D063
:1052180018460FF0AFFB0546B0B94FF0FF33E16C0D
:1052280004F15407A163CDE9010000933846236DCA
:1052380004F138021BF0A7FEA06C19F07AF8C4F844
:10524800BC0020B96FF00B05284607B0F0BDA06C74
:1052580019F06FF8C4F8C0000028F3D0236CD4F814
:10526800BC10C4F890300423C4F89430C4F8AC30AF
:105278000223E3620E4BB4F84820C4F88C10616C2A
:10528800236204F18C03C4F8A070A4F89820C4F831
:10529800B870C4F8A810A4F8B020C4F8A400A66197
:1052A8002363D1E76FF01505CEE700BFC02D0200DC
:1052B800C02F020030B5002289B00F490F481CF0FA
:1052C80062FD002200230024CDE906230E230C4DA5
:1052D800CDE903344FF400622846CDE90144094B77
:1052E8000949009412F04AF80849284611F084FF49
:1052F800204609B030BD00BF615400005021002095
:10530800501000209D57000060820020B647020020
:105318002DE9F047044607464FF00109DFF85080B1
:1053280014B93846BDE8F08794FAA4F5B5FA85F5BE
:1053380009FA05F32E0108EB05156FEA030A24EABA
:1053480003042B7B002BEBD058F806301B694BB9B4
:105358004644736804222846196807EA0A0719F0C0
:1053680050F8DDE7284698470028D9D1F0E700BF74
:10537800EC2C02002DE9F047DFF8D8902E4C80463F
:10538800A9EB04038F2B0F460BD92C494FF4A673B6
:105398002B4A2C4818F0EFF94FF4A671284818F05A
:1053A800E1F9294819F011F8064678B3002528468E
:1053B800BDE8F087237B83B12368DB680BB1204607
:1053C8009847636883F806A023681B69B3B96368C4
:1053D80004222046196819F014F8013610344C4597
:1053E80018D91A494FF4AC73154A164818F0C3F97E
:1053F800174818F0C0F94FF4AC71CFE7204698472A
:105408000028E4D00AFA06F31D43E6E705464FF004
:10541800010AE4E7CED3B8F1000FC8D0002DC5D0FB
:105428002846FFF775FF0546002FF7D000214FF4F7
:10543800A47012F08BFEF1E7EC2C0200EB4702009F
:10544800BE470200413A0200442A00201B480200DD
:105458003C480200FC2C0200014810F0CFBE00BFFF
:1054680030080020014B53F820007047003002003C
:1054780008B5034608462BB1044A136000F0AEFD98
:10548800002008BD6FF01500FBE700BF48020020B0
:1054980010B5044C237813B9034810F0AFFE01236C
:1054A800237010BD9E6F00203008002010B5044600
:1054B800094818F08AFF3CB1084BD3E8EF1F0139BF
:1054C800C3E8E21F002AF8D105481CF068FCBDE8D3
:1054D8001040044810F092BE3C2A0020402A0020C8
:1054E800502100203008002000200146034BD3E85B
:1054F800EF0FC3E8E21F002AF9D170473C2A0020C9
:1055080070B5FFF7F1FF05460F4C104EB44219D99C
:105518000F494FF403730F4A0F4818F02CF90F483E
:1055280018F029F94FF403710A4818F01BF9636859
:105538005B792BB123685B6813B1294620469847ED
:105548001034E3E7F3D370BDEC2C0200FC2C02000E
:105558001B480200BE470200413A02003C480200D4
:1055680010B5044C04492046FEF7DEF9034B1C60D5
:1055780010BD00BF44060020EC2F0200302A002096
:105588000023154A10B51370144A4FF400411360F4
:10559800134A14481360FFF76BFFFFF7E1FF124B44
:1055A800124918468B4215D9114940F22713114A5E
:1055B800114818F0E0F8114818F0DDF840F227110A
:1055C8000C4818F0CFF81A1A5C68121101322271CF
:1055D8001033E7E7F7D310BD9F6F00203C2A002067
:1055E800402A0020CFE30100EC2C0200FC2C020032
:1055F8001B480200BE470200413A02003C48020034
:105608000146002200230148FEF7C0B944060020E5
:105618000148FEF7D7BA00BF44060020024B0146F6
:105628001868FEF757BB00BF302A00200148FEF774
:10563800C3BB00BF4406002070B52F4B1878002864
:1056480059D0FFF7E5FF0546002844D12B4B2C4CD9
:105658001B68002B19DD1CF04EFB4FF47A72A0FB7F
:10566800020302FB0131C30B43EA4143D4E90020A2
:105678009B1A40F2E9324FEAD13161EB00019342C3
:1056880071F1000101D3FFF73BFFD4E9003213F5B4
:105698007A7342F10002C4E90032BDE87040FFF7B6
:1056A800C5BF63685B7923B12368294620461B6818
:1056B80098471034B44211D912494FF40073124A72
:1056C800124818F058F8124818F055F84FF40071BD
:1056D8000D4818F047F80F4C0F4EEBE7E1D328467A
:1056E800FFF79CFF0D4BD3E8EF1F0139C3E8E21F1A
:1056F800002AABD0F7E770BD9E6F00203C2A00203F
:10570800482100201B480200BE470200413A02001F
:105718003C480200EC2C0200FC2C0200402A00202D
:1057280070B5154D297829BB0120FFF723FE134CCE
:10573800134EB44217D9134940F2C513124A1348FD
:1057480018F019F8124818F016F840F2C5110E486A
:1057580018F008F863685B791BB1236820469B68DA
:1057680098471034E5E7F5D3FFF766FF0028FBD12B
:1057780001232B7070BD00BF9F6F0020EC2C02002E
:10578800FC2C02001B480200BE470200413A0200FE
:105798003C4802002DE9F0472F4B304FFB1A1B09FC
:1057A8000BD12F4940F2A9332E4A2F4817F0E3FFB7
:1057B80040F2A9312B4817F0D5FF00210846FFF722
:1057C800D9FD044640B340F267684FF0000912F073
:1057D80059FD264B186030B1254B1B68092B02DD9B
:1057E800244810F00BFD0025DFF888A044B12046BE
:1057F800FFF78EFD044618B94FF0FF384FF0FF3918
:10580800FFF71AFF064628B95DB942464B4650468F
:1058180010F078FD3546E9E74FF0FF384FF0FF39D3
:10582800D5E70D4D08E0F0D22B689B691BB100222B
:105838002846114698471035BD42F4D90E4940F222
:105848009D33084A084817F096FF0C4817F093FF55
:1058580040F29D31AEE700BFEC2C0200FC2C0200A8
:105868005B480200BE470200413A0200382A002085
:10587800402A0020300800201B4802003C48020053
:1058880013B52C4818F0A1FD2B4B1B78002B35D0F5
:10589800EFF31184202383F31288BFF36F8F274817
:1058A80012F06AFF68B98823254A2649264817F066
:1058B80062FF2249254817F05EFF8821204817F02B
:1058C80051FF1E4812F07CFFFFF7B6FE1B4812F08E
:1058D80061FF68B94FF49A73194A1D491A4817F0BD
:1058E8004AFF16491B4817F046FF4FF49A71E5E73F
:1058F80084F31188BFF36F8F02B010BD164B1B687D
:10590800002BF9D050B9002200231448CDE9002318
:105918004FF40042002313F0DFFAEDE70928EBD13A
:105928000E481CF03CFA0E4802B0BDE8104010F0DA
:1059380065BC00BF402A00209F6F0020342A002049
:10594800FF3902002C3A0200413A02005E3A020096
:10595800743A02008B3A0200382A002050210020B5
:105968003008002010B5064B04461B6898472146AE
:10597800A0600448FEF7CEF8BDE81040FFF780BFEE
:105988004802002044060020044A054B9B1AB1EB4C
:10599800D30F34BF52F8310000207047C42B0200E7
:1059A800EC2C02002DE9F04F8FB0C1F34A2804AF68
:1059B8000D469146B8607B600C0DB8F1000F68D0B9
:1059C80000264FF0040B4FF00A0A07F11403C7F83A
:1059D8000C80C7E907667E620193CDF808B0CDF860
:1059E80000A007F11C0332464846F968FDF7E0FCC1
:1059F800B0F5006F03461CD36C468AB0D9F8041082
:105A080004AB2C481A46C3E9050140F2FF71D9617D
:105A18004FF400711984284B42F8103F4FF412518B
:105A280033462648FFF7BEFFA5462C37BD46BDE8DE
:105A3800F08FC0F30A0804F11700184420F007009B
:105A480080083B60FFF7DCFD68F35325044640B34C
:105A58003B6800F11001C7E9083607F11403F96142
:105A6800CDE900A3CDF808B04846154AF96807F112
:105A78001C03FDF79DFC002813DA124912484FF465
:105A8800A373124A17F077FE4FF4A3710F4817F06B
:105A980069FE04F1170020F007008008FFF7B0FD49
:105AA800044668F353252A4620467B68B96818F0EF
:105AB800C8FCBAE78448020004000001842C0200F4
:105AC8001DE40100F0480200413A0200C348020008
