:020000040000FA
:10000000C06800208D5F00007BD60100795F000092
:10001000795F0000795F0000795F0000795F000080
:100020000000000000000000000000002961000046
:10003000795F00000000000091600000795F00001F
:100040007563000075630000756300007563000050
:100050007563000075630000756300007563000040
:100060007563000075630000756300007563000030
:100070007563000075630000756300007563000020
:100080007563000075630000756300007563000010
:100090007563000075630000756300007563000000
:1000A00075630000756300007563000075630000F0
:1000B00075630000756300007563000075630000E0
:1000C00075630000756300007563000075630000D0
:1000D00075630000756300007563000075630000C0
:1000E00075630000756300007563000075630000B0
:1000F00075630000756300007563000075630000A0
:10010000756300007563000075630000756300008F
:10011000756300007563000075630000756300007F
:10012000756300007563000075630000756300006F
:10013000756300007563000075630000756300005F
:10014000756300007563000075630000756300004F
:0401500075630000D3
:1001580080EA101404F0F01480EA0410604081EA88
:10016800111404F0F01481EA0411614082EA1214B7
:1001780004F0F01482EA0412624083EA131404F0D3
:10018800F01483EA0413634080EA102404F47F44E3
:1001980080EA0420604081EA112404F47F4481EA63
:1001A8000421614082EA122404F47F4482EA042292
:1001B800624083EA132404F47F4483EA04236340FF
:1001C80081EA500404F0553480EA4400614083EA2F
:1001D800520404F0553482EA4402634082EA9004EF
:1001E80004F0333480EA8400624083EA910404F026
:1001F800333481EA84016340704700BF82EA900487
:1002080004F0333480EA8400624083EA910404F005
:10021800333481EA8401634081EA500404F05534A0
:1002280080EA4400614083EA520404F0553482EACB
:100238004402634080EA102404F47F4480EA0420E6
:10024800604081EA112404F47F4481EA042161407A
:1002580082EA122404F47F4482EA0422624083EA98
:10026800132404F47F4483EA0423634080EA1014CF
:1002780004F0F01480EA0410604081EA111404F0DC
:10028800F01481EA0411614082EA121404F0F014B7
:1002980082EA0412624083EA131404F0F01483EA39
:1002A80004136340704700BF2DE9F14F94464FEAAD
:1002B800930B8A68CB6808684968FFF749FF0BF118
:1002C800060E33E083EA134480EA134582EA1347B3
:1002D80046BA96EA3444604000F00F1684EA0634C1
:1002E80020F00F1684EA161054BA94EA01067240F8
:1002F80002F00F1486EA043622F00F1486EA14126C
:100308004CBA6540694001F00F1485EA043521F0C4
:100318000F1485EA14115CBA67407B4003F00F1490
:1003280087EA043723F00F1487EA1413BCE8F000B7
:100338006040694072407B4000F0E03400F01035C6
:1003480000F00F3040EA540040EAC50080EA90040B
:1003580004F0332480EA8400604001F0E03401F0C6
:10036800103501F00F3141EA540141EAC50181EA33
:10037800910404F0332481EA8401614002F0E034FE
:1003880002F0103502F00F3242EA540242EAC50286
:1003980082EA920404F0332482EA8402624003F081
:1003A800E03403F0103503F00F3343EA540343EA13
:1003B800C50383EA930404F0332483EA8403634087
:1003C80081EA324787EA134581EA354690EA06040E
:1003D80084EA034B82EA1B4280EA044484EA054427
:1003E80083EA144A85EA14448BEA044B84EA3744C6
:1003F80081EA0B4181EA164104EA0A00454082EA93
:1004080004082BEA080041408AEA0B0602EA0600C3
:1004180084EA34438AEA3A4603EA060778404540C4
:10042800414088EA38478BEA3B4007EA000985EAF9
:10043800090583EA0709464006EA0906714085EA84
:10044800010005EA3546464006EA314181EA304175
:1004580081EA364606EA304686EA3546344008EAF6
:10046800010886EA01052A4086EA364003405A40D8
:1004780081EA31431F407C4080EA030709EA070903
:1004880088EA0908544088EA020806EA0A0601EAE6
:100498000B018AEA0B0215408AEA3A4210404540AD
:1004A8008BEA3B4003405E404240174079404D4054
:1004B8004E40E443F64386EA18435D4085EA05402A
:1004C80083EA134386EA034183EA384284EA114304
:1004D80083EA04435FEA3343BEF1010E3FF6F2AE0E
:1004E8001ED4BCE8F0006040694072407B4020BCEC
:1004F800FFF784FE28606960AA60EB60BDE8F08FB2
:100508002DE9E0414FF2F00280EA1031114080EA13
:100518000130484041088208C3084FF0000E4FE7F9
:1005280000F0113001F0113102F0113203F01133F3
:1005380040EA410040EA820040EAC3004FF2F0027C
:1005480080EA1031114080EA01304840BDE8E0817E
:100558002DE9F04F02F11C050646074600EB850819
:1005680051F8040B043A46F8040BF9D14FF0010C8A
:10057800FFF7C6FF5FEA302080EA0C001ECF41403B
:100588004A4053405C401EC62000464517D04FEAFB
:100598004C0C1CF4807F18BFACF1E50C2C2DE7D077
:1005A8003C2D06D1FFF7ACFF06CF41404A4006C6B6
:1005B800100006CF41404A4006C61000D8E736E989
:1005C8000F00FFF7C5FD043D86E80F00F7D1BDE831
:1005D800F08F00BF2DE9F14F03F11C0402EB840CEE
:1005E8004FEA930B8A68CB6808684968FFF7B0FD43
:1005F8003CE9F0006040694072407B400BF1060E18
:100608004EE083EA134480EA134582EA134746BA68
:1006180096EA3444604000F00F1684EA063420F06D
:100628000F1684EA161054BA94EA0106724002F0D2
:100638000F1486EA043622F00F1486EA14124CBA14
:100648006540694001F00F1485EA043521F00F1464
:1006580085EA14115CBA67407B4003F00F1487EAFF
:10066800043723F00F1487EA141344BA44404DBAF0
:100678004D4056BA56405FBA5F4087EA174886EA47
:10068800174B84EA17464FEA38488BEA1B4485EA39
:100698001B4788EA1B4580EA3440694072407B402A
:1006A80000F0703400F0803500F00F3040EA44006C
:1006B80040EAD50080EA900404F0332480EA8400FC
:1006C800604001F0703401F0803501F00F3141EAEB
:1006D800440141EAD50181EA910404F0332481EA16
:1006E8008401614002F0703402F0803502F00F326C
:1006F80042EA440242EAD50282EA920404F0332430
:1007080082EA8402624003F0703403F0803503F01B
:100718000F3343EA440343EAD50383EA930404F01E
:10072800332483EA84036340C943DB4381EA00043A
:1007380083EA044686EA020183EA014382EA3345F2
:1007480083EA14435C4084EA00077FEA040A8AEAE1
:10075800024A8AEA010B87EA11488AEA374A80EA9C
:10076800060181EA1A418AEA030A04EA0A004540B6
:1007780088EA040707EA0B0041408AEA0B0608EA00
:10078800060084EA34428AEA3A4602EA06035840F6
:100798004540414087EA37438BEA3B4003EA00097A
:1007A80085EA090582EA0309464006EA0906714016
:1007B80085EA010005EA3546464006EA314181EA04
:1007C800304181EA364606EA304686EA3546344004
:1007D8000F4086EA010508EA050886EA3640024025
:1007E80088EA020881EA314213405C4080EA020349
:1007F80009EA030987EA0907674088EA040806EA5C
:100808000A0601EA0B018AEA0B0425408AEA3A44FF
:10081800204045408BEA3B4B02EA0B02564084EAF3
:100828000B04234059406E40694087EA364080EA0D
:10083800384080EA060380EA104481EA134585EAD5
:10084800344585EA17427D4082EA354180EA054011
:100858003CE9F0006040694072407B40BEF1010E07
:100868003FF6CFAE20BCFFF7C9FC28606960AA60DC
:10087800EB60BDE8F08F00BFFFF76ABE30B44FF001
:10088800000310F8014B11F8015B013A84EA0504F2
:1008980043EA0403F5D1A3F101034FEAD37030BC56
:1008A800704700BF4FF0000310F8012B013943EAED
:1008B8000203F9D1A3F101034FEAD370704700BFD7
:1008C80030B411F8014B12F8015B6C4000F8014B91
:1008D800013BF6D130BC704781F0004102E000BF17
:1008E80083F0004330B54FEA41044FEA430594EAE8
:1008F800050F08BF90EA020F1FBF54EA000C55EA23
:10090800020C7FEA645C7FEA655C00F0E2804FEAF3
:100918005454D4EB5555B8BF6D420CDD2C4480EAD5
:10092800020281EA030382EA000083EA010180EA05
:10093800020281EA0303362D88BF30BD11F0004F53
:100948004FEA01314FF4801C4CEA113102D0404289
:1009580061EB410113F0004F4FEA03334CEA1333C4
:1009680002D0524263EB430394EA050F00F0A780DC
:10097800A4F10104D5F1200E0DDB02FA0EFC22FAD7
:1009880005F2801841F1000103FA0EF2801843FACB
:1009980005F359410EE0A5F120050EF1200E012ABC
:1009A80003FA0EFC28BF4CF0020C43FA05F3C018FA
:1009B80051EBE37101F0004507D54FF0000EDCF173
:1009C800000C7EEB00006EEB0101B1F5801F1BD31C
:1009D800B1F5001F0CD349085FEA30004FEA3C0C20
:1009E80004F101044FEA445212F5800F80F09A8016
:1009F800BCF1004F08BF5FEA500C50F1000041EB1A
:100A0800045141EA050130BD5FEA4C0C404141EB1D
:100A18000101013C28BFB1F5801FE9D291F0000F18
:100A280004BF01460020B1FA81F308BF2033A3F1C7
:100A38000B03B3F120020CDA0C3208DD02F1140CBE
:100A4800C2F10C0201FA0CF021FA02F10CE002F1F9
:100A58001402D8BFC2F1200C01FA02F120FA0CFCF2
:100A6800DCBF41EA0C019040E41AA2BF01EB04513B
:100A7800294330BD6FEA04041F3C1CDA0C340EDC39
:100A880004F11404C4F1200220FA04F001FA02F37C
:100A980040EA030021FA04F345EA030130BDC4F13A
:100AA8000C04C4F1200220FA02F001FA04F340EA2F
:100AB8000300294630BD21FA04F0294630BD94F0E0
:100AC800000F83F4801306BF81F480110134013DC7
:100AD8004EE77FEA645C18BF7FEA655C29D094EA38
:100AE800050F08BF90EA020F05D054EA000C04BFB6
:100AF8001946104630BD91EA030F1EBF00210020A1
:100B080030BD5FEA545C05D14000494128BF41F03F
:100B1800004130BD14F580043CBF01F5801130BDA3
:100B280001F0004545F0FE4141F470014FF000002E
:100B380030BD7FEA645C1ABF194610467FEA655CDF
:100B48001CBF0B46024650EA013406BF52EA033581
:100B580091EA030F41F4002130BD00BF90F0000F6F
:100B680004BF0021704730B54FF4806404F13204AB
:100B78004FF000054FF0000150E700BF90F0000F64
:100B880004BF0021704730B54FF4806404F132048B
:100B980010F0004548BF40424FF000013EE700BF5B
:100BA80042004FEAE2014FEA31014FEA02701FBFEB
:100BB80012F07F4393F07F4F81F06051704732F01D
:100BC8007F4208BF704793F07F4F04BF41F4002174
:100BD800704730B54FF4607401F0004521F00041D2
:100BE8001CE700BF50EA010208BF704730B54FF05C
:100BF80000050AE050EA010208BF704730B511F05D
:100C0800004502D5404261EB41014FF4806404F194
:100C180032045FEA915C3FF4D8AE4FF003025FEA1A
:100C2800DC0C18BF03325FEADC0C18BF033202EB9E
:100C3800DC02C2F1200300FA03FC20FA02F001FAF8
:100C480003FE40EA0E0021FA02F11444BDE600BF9B
:100C580070B54FF0FF0C4CF4E06C1CEA11541DBF4A
:100C68001CEA135594EA0C0F95EA0C0F00F0DEF815
:100C78002C4481EA030621EA4C5123EA4C5350EAFA
:100C8800013518BF52EA033541F4801143F480134B
:100C980038D0A0FB02CE4FF00005E1FB02E506F0DC
:100CA8000042E0FB03E54FF00006E1FB03569CF031
:100CB800000F18BF4EF0010EA4F1FF04B6F5007F37
:100CC80064F5407404D25FEA4E0E6D4146EB0606A9
:100CD80042EAC62141EA55514FEAC52040EA5E5032
:100CE8004FEACE2EB4F1FD0C88BFBCF5E06F1ED8DC
:100CF800BEF1004F08BF5FEA500E50F1000041EB13
:100D0800045170BD06F0004646EA010140EA0200BF
:100D180081EA0301B4EB5C04C2BFD4EB0C0541EAE1
:100D2800045170BD41F480114FF0000E013C00F3F6
:100D3800AB8014F1360FDEBF002001F0004170BD1A
:100D4800C4F10004203C35DA0C341BDC04F1140433
:100D5800C4F1200500FA05F320FA04F001FA05F2BF
:100D680040EA020001F0004221F0004110EBD3708C
:100D780021FA04F642EB06015EEA430E08BF20EAB8
:100D8800D37070BDC4F10C04C4F1200500FA04F35B
:100D980020FA05F001FA04F240EA020001F00041ED
:100DA80010EBD37041F100015EEA430E08BF20EA60
:100DB800D37070BDC4F1200500FA05F24EEA020EA8
:100DC80020FA04F301FA05F243EA020321FA04F0D7
:100DD80001F0004121FA04F220EA020000EBD3708E
:100DE8005EEA430E08BF20EAD37070BD94F0000F8E
:100DF8000FD101F00046400041EB010111F4801FC2
:100E080008BF013CF7D041EA060195F0000F18BF72
:100E1800704703F00046520043EB030313F4801FAE
:100E280008BF013DF7D043EA0603704794EA0C0F68
:100E38000CEA135518BF95EA0C0F0CD050EA41067E
:100E480018BF52EA4306D1D181EA030101F00041FB
:100E58004FF0000070BD50EA410606BF1046194623
:100E680052EA430619D094EA0C0F02D150EA01362F
:100E780013D195EA0C0F05D152EA03361CBF104670
:100E880019460AD181EA030101F0004141F0FE410F
:100E980041F470014FF0000070BD41F0FE4141F493
:100EA800780170BD70B54FF0FF0C4CF4E06C1CEA93
:100EB80011541DBF1CEA135594EA0C0F95EA0C0F48
:100EC80000F0A7F8A4EB050481EA030E52EA033503
:100ED8004FEA013100F088804FEA03334FF0805524
:100EE80045EA131343EA12634FEA022245EA111551
:100EF80045EA10654FEA00260EF000419D4208BF02
:100F0800964244F1FD0404F5407402D25B084FEAAE
:100F18003202B61A65EB03055B084FEA32024FF45A
:100F280080104FF4002CB6EB020E75EB030E22BFB7
:100F3800B61A754640EA0C005B084FEA3202B6EB77
:100F4800020E75EB030E22BFB61A754640EA5C0026
:100F58005B084FEA3202B6EB020E75EB030E22BFB6
:100F6800B61A754640EA9C005B084FEA3202B6EBB7
:100F7800020E75EB030E22BFB61A754640EADC0076
:100F880055EA060E18D04FEA051545EA16754FEAD8
:100F980006164FEAC30343EA52734FEAC2025FEAF6
:100FA8001C1CC0D111F4801F0BD141EA00014FF085
:100FB80000004FF0004CB6E711F4801F04BF014356
:100FC8000020B4F1FD0C88BFBCF5E06F3FF6AFAE72
:100FD800B5EB030C04BFB6EB020C5FEA500C50F102
:100FE800000041EB045170BD0EF0004E4EEA113185
:100FF80014EB5C04C2BFD4EB0C0541EA045170BD8C
:1010080041F480114FF0000E013C90E645EA060ECF
:101018008DE60CEA135594EA0C0F08BF95EA0C0FFD
:101028003FF43BAF94EA0C0F0AD150EA01347FF445
:1010380034AF95EA0C0F7FF425AF104619462CE71C
:1010480095EA0C0F06D152EA03353FF4FDAE10467F
:10105800194622E750EA410618BF52EA43067FF4D0
:10106800C5AE50EA41047FF40DAF52EA43057FF460
:10107800EBAE12E74FEA4102B2F1E04324BFB3F509
:10108800001CDCF1FE5C0DD901F0004C4FEAC002F7
:101098004CEA5070B2F1004F40EB830008BF20F0DB
:1010A8000100704711F0804F21D113F13872BCBF95
:1010B80001F00040704741F480114FEA5252C2F1EA
:1010C8001802C2F1200C10FA0CF320FA02F018BF33
:1010D80040F001004FEAC1234FEAD32303FA0CFC86
:1010E80040EA0C0023FA02F34FEA4303CCE77FEA15
:1010F800625307D150EA01331EBF4FF0FE4040F45F
:101108004000704701F0004040F0FE4040F400000D
:10111800704700BF80F0004002E000BF81F000414E
:1011280042001FBF5FEA410392EA030F7FEA226C85
:101138007FEA236C6AD04FEA1262D2EB1363C1BF15
:10114800D218414048404140B8BF5B42192B88BF84
:10115800704710F0004F40F4000020F07F4018BFA7
:10116800404211F0004F41F4000121F07F4118BFC7
:10117800494292EA030F3FD0A2F1010241FA03FC6F
:1011880010EB0C00C3F1200301FA03F100F0004357
:1011980002D5494260EB4000B0F5000F13D3B0F11F
:1011A800807F06D340084FEA310102F10102FE2A8E
:1011B80051D2B1F1004F40EBC25008BF20F00100FE
:1011C80040EA03007047490040EB0000013A28BF9D
:1011D800B0F5000FEDD2B0FA80FCACF1080CB2EB20
:1011E8000C0200FA0CF0AABF00EBC250524218439E
:1011F800BCBFD0401843704792F0000F81F4000143
:1012080006BF80F400000132013BB5E74FEA410315
:101218007FEA226C18BF7FEA236C21D092EA030F81
:1012280004D092F0000F08BF0846704790EA010FFB
:101238001CBF0020704712F07F4F04D1400028BF28
:1012480040F00040704712F100723CBF00F500000A
:10125800704700F0004343F0FE4040F40000704740
:101268007FEA226216BF08467FEA236301464202EC
:1012780006BF5FEA412390EA010F40F480007047FF
:101288004FF0000304E000BF10F0004348BF4042A5
:101298005FEA000C08BF704743F0964301464FF0E1
:1012A80000001CE050EA010208BF70474FF000033D
:1012B8000AE000BF50EA010208BF704711F000437E
:1012C80002D5404261EB41015FEA010C02BF84464E
:1012D8000146002043F0B64308BFA3F18053A3F5AD
:1012E8000003BCFA8CF2083AA3EBC25310DB01FAF4
:1012F80002FC634400FA02FCC2F12002BCF1004F78
:1013080020FA02F243EB020008BF20F00100704708
:1013180002F1200201FA02FCC2F1200250EA4C005C
:1013280021FA02F243EB020008BF20EADC707047A2
:101338007BB972B90029BEBF00204FF0004106E01A
:1013480008BF00281CBF6FF000414FF0FF3000F0CD
:1013580057B8ADF1080C6DE904CE002909DB002B64
:101368001ADB00F061F8DDF804E0DDE9022304B0DF
:101378007047404261EB4101002B1BDB00F054F841
:10138800DDF804E0DDE9022304B0404261EB4101ED
:10139800524263EB43037047524263EB430300F04E
:1013A80043F8DDF804E0DDE9022304B0404261EBD4
:1013B80041017047524263EB430300F035F8DDF812
:1013C80004E0DDE9022304B0524263EB43037047B3
:1013D80053B94AB9002908BF00281CBF4FF0FF3194
:1013E8004FF0FF3000F00CB8ADF1080C6DE904CEF9
:1013F80000F01AF8DDF804E0DDE9022304B07047D4
:10140800704700BF10F8012B11F8013B012A28BFD3
:101418009A42F7D0D01A7047034613F8012B002AD6
:10142800FBD1181A013870472DE9F04786468C46DB
:101438000846089E154674461946002B40F0C180A0
:101448008542B2FA82F245D94AB1C2F1200300FAC4
:1014580002FC954094402EFA03F343EA0C0C4FEA41
:10146800154EA8B2230CBCFBFEF80EFB18CC08FBEB
:1014780000F943EA0C43994528D9EB1808F1FF37DE
:1014880004D2994502D9A8F102072B44A3EB09031A
:10149800A4B2B3FBFEFC0EFB1C330CFB00F044EAC9
:1014A8000344A04214D92C190CF1FF3304D2A042F2
:1014B80002D9ACF102032C44241A43EA07401EB1B6
:1014C800D440002334607360BDE8F0874746DDE709
:1014D8006346F1E792BB431B01214FEA154EAFB2B9
:1014E800200CB3FBFEFC0EFB1C330CFB07F840EA98
:1014F8000343984561D9EB180CF1FF3004D29845A5
:1015080002D9ACF102002B44A3EB0803A4B2B3FB4D
:10151800FEFC0EFB1C330CFB07F744EA0344A7420E
:101528004DD92C190CF1FF3304D2A74202D9ACF1E2
:1015380002032C44E41B43EA0040C0E7C2F1200345
:101548009540944020FA03F12EFA03F34FEA154E22
:101558009040AFB20343B1FBFEFC0EFB1C10190C0C
:101568000CFB07F841EA0041884522D969180CF1BB
:10157800FF3004D2884502D9ACF102002944A1EB1E
:1015880008019BB2B1FBFEFC0EFB1C110CFB07F71C
:1015980043EA01439F420ED9EB180CF1FF3104D204
:1015A8009F4202D9ACF102012B44DB1B41EA004106
:1015B80093E76046E3E76146F7E76046A4E76346DA
:1015C800B8E7834206D916B9002108467CE7C6E980
:1015D80000E0F9E7B3FA83F78FB9834201D3724584
:1015E80008D8BEEB020460EB030301209C461EB939
:1015F800002169E73846FAE7C6E9004CF8E7C7F181
:10160800200CBB400EFA07F522FA0CF42EFA0CF166
:10161800BA401C4320FA0CF3B8404FEA144901437E
:101628001FFA84FEB3FBF9F809FB18300B0C08FB12
:101638000EFA43EA00439A4540D9E31808F1FF300F
:1016480004D29A4502D9A8F102002344A3EB0A0365
:1016580089B2B3FBF9F809FB183308FB0EFE41EA1F
:1016680003418E452CD9611808F1FF3304D28E4509
:1016780002D9A8F10203214443EA0040A1EB0E017C
:10168800A0FB02984145CE46434602D306D14D45BC
:1016980004D20138B9EB020E68EB0403002EA7D080
:1016A800B5EB0E0261EB030101FA0CFC22FA07F319
:1016B800F9404CEA0303C6E9003199E74046C5E71B
:1016C8004346D9E7000000002DE9F04F2DED048BCB
:1016D8000024A34B8FB003222046A2490293CDE9F0
:1016E800004423461AF09FFD00229F4B2046CDE977
:1016F80004239E4B0322CDE901439A4923460094D3
:101708001AF091FD0A230393994B0322CDE9014373
:1017180020462346934900941AF085FDA046DFED44
:10172800959A954B186883684021DB68984700288C
:101738000FDA924B03900293002302221846CDE958
:10174800003388491AF06FFD4FF47A701EF05FFE7F
:10175800E7E7894B1868836808AA1B69032198473B
:101768000998FFF70BFA7CA3D3E90023FFF79AFB4C
:10177800064608980F46FFF701FA02460B46304620
:101788003946FFF7AFF8FFF775FC07EE100AC7EE0A
:10179800297AFEEEEA7A17EE903A0B981DB2FFF717
:1017A800EDF96DA3D3E90023FFF77CFB06460A9801
:1017B8000F46FFF7E3F902460B4630463946FFF776
:1017C80091F8FFF757FC07EE100AC7EE297AFEEEEC
:1017D800EA7A17EE903A0D980FFA83F9FFF7CEF9E7
:1017E8005DA3D3E90023FFF75DFB06460C980F467F
:1017F800FFF7C4F902460B4630463946FFF772F840
:10180800FFF738FC07EE100AC7EE297AFEEEEA7AEF
:1018180017EE903A1FB20E236343594E08F10108A0
:1018280006EB030A46F803801EF077FF4FF47A733D
:10183800A0FB032003FB01000134D20BE4B242EA0F
:101848004042092CCAF80420AAF80850AAF80A90BD
:10185800AAF80C700FD901F08FF900287AD00A2263
:101868003146002001F052F900286AD1454A136830
:101878000133136000241EF050FF4FF47A72A0FB6E
:10188800020602FB016641F28832C50B3E4F45EA6B
:101898004645D7E90001F60B281A66EB010190428C
:1018A80071F100024FF0000BFFF64EAF354BDFF839
:1018B800EC9093ED009AFFF7FDFC9FED347A06EE6D
:1018C800900AB8EE498AC6EE877AC8EE278AB2EE41
:1018D800048A28EE888AD9F80020DFF8BCA005928F
:1018E800DAF800205B460492294A5846CDE901B24D
:1018F8001C4903228DED039ACDF800B01AF093FC31
:1019080018EE100AFFF74CF9CDE9060118EE900A17
:10191800FFF746F91F4ACDE904015B46CDE901B25C
:10192800584603220F49CDF800B01AF07CFC154B3D
:10193800C7E90056C3F800B0CAF800B0C9F800B04B
:1019480002E700F10C03012B01D8134A8FE780301E
:10195800FBD18FE7114A8AE70000000080842E41FE
:101968001D2302009016020000408F404A23020007
:1019780061230200C3F51C41A41600207A2302004B
:1019880038330020A0160020480A002000007A44BE
:1019980092230200BD2302009C1600209816002006
:1019A8002DE9F04F824617461C4600259FB003914B
:1019B800387810B9284600F0A9BD252809D0039920
:1019C800D0470028C0F2A2857B1C01350593059FEE
:1019D800EEE71822002110A81FF0A2FA7B78252B29
:1019E80000F0BC80002398469E469C461846791C09
:1019F8000E4611F8012B2B2A00F0E38000F2DA8062
:101A0800202A00F0E180232A00F0E1802BB19DF824
:101A1800483043F040038DF84830B8F1000F05D046
:101A28009DF8483043F020038DF84830BEF1000F90
:101A380005D09DF8483043F010038DF84830BCF1CC
:101A4800000F05D09DF8483043F008038DF8483062
:101A580028B19DF8483043F004038DF848309DF8CC
:101A6800483003F04401442903D16FF386138DF8FD
:101A780048309DF848302A2A43F080030E968DF8A6
:101A8800483040F0A9809DF8493043F001038DF8B3
:101A98004930731C1A782E2A0CBF012100219DF8A9
:101AA800492061F341028DF849200CD15A1C0E924D
:101AB8005A782A2A40F0A0809DF84920023342F043
:101AC80004028DF849201A786C2A00F0C18000F2CF
:101AD800A380682A00F0A9806A2A00F0C2804C2AF4
:101AE80000F0C78013F8012B782A05938DF84B2056
:101AF80000F209816D2A00F2C980692A00F2038187
:101B0800572A00F2E280412A04D0A2F14503022BB1
:101B180000F2F98004219DF84A3002F0DF02A2F1B8
:101B2800410961F30203D9F100029DF8491042EB23
:101B3800090262F3C7110A068DF84A308DF8491078
:101B4800CBB200F11F8103F07802182A40F0098116
:101B58006FF3C6038DF849300023F8E08DF84B3059
:101B6800BB1C05939DF849309DF84A20DE0702F01A
:101B7800070040F1098154F8041B0029049108DA90
:101B88009DF8481041F004018DF848100499494225
:101B98000491590740F1008154F8046B002E80F23B
:101BA800FF809DF849306FF341038DF849304FF0BD
:101BB800FF36F5E02D2A0DD0302A7FF427AF012318
:101BC80016E74FF0010C13E74FF0010E10E74FF046
:101BD80001080DE701200BE70EA801F003FB0E9B9F
:101BE800B3423FF457AF9DF848201390C00F60F3FD
:101BF80041028DF848204DE70EA801F0F3FA9DF850
:101C080048301490C3F3400242EAD07262F34103B1
:101C18008DF848300E9B56E7742A26D07A2A7FF42E
:101C280061AF06219DF849200CE05A78682A9DF892
:101C3800492006D1012161F3C6028DF849200233FB
:101C480050E7022161F3C6028DF84920013349E7C4
:101C58005A786C2A9DF8492001D10421EBE7032129
:101C6800F0E705219DF84920ECE707219DF8492078
:101C7800E8E7BDF8482022F4F04222F0020242F4DC
:101C8800804242F00202ADF84820DFE76E3AD3B254
:101C980001229A4040F282431A429DF8493039D1D4
:101CA80012F0240F61D1D1072DD503219DF84A20C8
:101CB80003F07803A3F1400861F30202D8F10003AE
:101CC8008DF84A2043EB080341E00120A2F15801B6
:101CD800C9B200FA01F111F4624F7FF41BAF40F66C
:101CE800010319429DF849301AD111F4043F0AD072
:101CF8009DF84A2060F3020203F07803402B8DF828
:101D08004A207FF429AF9DF8483043F001038DF84D
:101D1800483021E702219DF84A2061F30202EBE7EF
:101D280002209DF84A1003F0780360F30201402B6B
:101D38008DF84A1002BF9DF8481041F001018DF856
:101D48004810632A7FF408AF003B18BF01239DF8B1
:101D58004820C2F340010B4363F341028DF8482049
:101D680000E713F0380FCED1F6E603219DF84A209C
:101D780013F0780F61F3020214BF012300238DF8DA
:101D88004A20E4E70123E2E79DF948100029ACBFA7
:101D98004FF0FF311399FBE69E077FF508AF149EBD
:101DA80000230428CDE913339DF8493007D199075A
:101DB80005D49DF949100029ACBF06260D2602F06E
:101DC8000702012AC3F3C30332D1DA1E042A04D856
:101DD800DFE802F02045452020002268012B4FEA69
:101DE800E271CDE910211BD19DF94020D117CDE931
:101DF800102104349DF84820069292074FD03A46A5
:101E08005046059B03991AF09DFC0028C0F27E837A
:101E18000544DCE554F8042BD117CDE91021E9E796
:101E2800022BE6D111B242F3C032CDE91012E0E73D
:101E3800022A24D1DA1E042A04D8DFE802F0181096
:101E480010181800012B4FF0000154F8042B14D07F
:101E5800022BCDE91021CDD192B21092CAE70734F6
:101E680024F00704F4E80201CDE91001C2E754F8B0
:101E7800042B109200221192BCE7D2B2CDE7042ABB
:101E880008D1073424F00704D4E900010834CDE967
:101E98001001AFE7032AADD154F8042BDDE79DF814
:101EA8004B80B8F1780F3FF692ADB8F1570F5CD878
:101EB800B8F1250F00F0A480B8F1240F7FF687ADA4
:101EC800B8F1410F04D0A8F14503022B3FF67FADCE
:101ED800DDE91023002BC0F24D810699080700F1B7
:101EE8004C81C1F300194FEA4919C3F30A51C3F3EE
:101EF8001303002940F0448152EA030014BF4FF055
:101F0800010C4FF0000CD80240EA5250D702CDE93C
:101F18000C70B8F1460F47EA010740EAE17008BFC4
:101F28004FF06608384300F0B781BCF1000F10D0BD
:101F38001B0343EA125317033A4618464FF0000CA6
:101F4800002880F25681BCF1000F40F05981CDE99C
:101F58000C730D9BA1F2FE3B43F000430D9300214F
:101F6800DDE90C230F46052060E1A8F15802202A7C
:101F78003FF62DAD01A151F822F000BF4F2100001E
:101F8800D7190000D7190000D7190000D719000089
:101F9800D7190000D7190000D7190000D719000079
:101FA800D91E0000D7190000FB2000000F210000F7
:101FB800D91E0000D91E0000D91E0000D719000044
:101FC8000F210000D7190000D7190000D719000009
:101FD800D7190000552100004F2100009F20000064
:101FE800D7190000D719000019200000D7190000E0
:101FF8004F210000D7190000D71900004F21000019
:1020080040460399D0470028C0F280820135DEE4BB
:10201800002E109F3BDB314638461EF0B6FF002FDE
:102028003FF4D5AC4FF000093E18F31B9DF84A2049
:1020380012F01001069100F05E82023312F04002A5
:10204800DDF84C80089218BF149A434418BF9B18B7
:10205800049ACDF81C80002A40F36882D31A9DF8B0
:10206800482004935007C2F3800B00F15F825106A9
:1020780040F14F82B9F1000F07D048460399D04785
:102088000028C0F24382D9460135302242E2384660
:10209800FFF7C2F9C6E71098002800F027820DF173
:1020A80075030093002117AB12AA01F0B1F84FF0A5
:1020B80000090746BDF84A3003F0EF0343F4F04344
:1020C80043F01003ADF84A30002E0CDB9DF8482091
:1020D8000DF17503DB1B6FF386129E428DF84820C5
:1020E80001D9F31A1393002F3FF471AC0DF1750663
:1020F8006DE0109B4FF000098DF85C300DF15D0626
:10210800012317AF92E7069B1F0754BFC3F30019BB
:102118004FF02B09DDE9102358BF4FEA4919002B6E
:1021280006DA4FF02D09524263EB4303CDE9102341
:10213800DDE910010DF17503009312AA17AB01F048
:1021480067F80746C0E74FF00009F1E7109A072B38
:102158003FF63DACDFE803F00C04060C08080C0C55
:10216800157034E4158032E4EB17C2E900532EE40D
:1021780015602CE44FF02D09B7E64FF02B09B4E6B3
:1021880040F2FF70814231D1A34908F101085FFA9A
:1021980088F811F80810134301F003011ED1012932
:1021A8000BBF492369234E216E210CBF46226622AC
:1021B8008DF85C309DF848308DF85D106FF386130C
:1021C8008DF85E208DF848300DF15F0617AFF31BD0
:1021D800B9F1000F3FF42AAF013327E7012915BFF2
:1021E8006E234E23612141211A46E1E74FF0000C8E
:1021F80089E692184FF0010C01F1FF3140419FE64A
:10220800CDE90C20A5E6520842EAC3725B08B3F197
:10221800333F59460BF1010BF5D201F1020B0121B5
:1022280000FB03FCA2FB0023013F63441BF1020FE8
:10223800E9DB09B1CDE90C23DDE90C32BBF1000F74
:102248002DDCCBF10401A1F120000BF11C0B02FAEB
:102258000BFB22FA00F0CA40CB40079208F0DF02DD
:1022680043EA0B03472A43EA00037BD1F91C01DB4D
:10227800BE422ADAA8F10208002E5FFA88F87ADD51
:102288009DF84820013E920675D4B6F1000B18BFA0
:102298004FF0010B721C26E04FF0000B5FE6023393
:1022A80042F100020CA80BF1FF3B0137CDE90C32DB
:1022B8001AF019FADDE90C32DB185241002A0BF149
:1022C800FF3BF9DACDE90C32B6E79DF84820F61B5A
:1022D80090064DD4B6F1000B18BF4FF0010BF21960
:1022E8004FF066084AD4102AA8BF10229FED487BF9
:1022F80010208DED0E7B0B90DDE90E01002A3FD1F9
:10230800079A1B1842EB0101B1F1805F47D2CDE972
:102318000C31069BB8F1660F03F0200240F0C6802E
:10232800002F47DC30238DF85C30002A76D1002E50
:1023380040F3BD812E238DF85D3087B17B42B342D7
:10234800A8BF3346002B1393A6EB0306D4BF002384
:1023580001239DF84A2063F345128DF84A200DF1B8
:102368005E0340E0B8F1660F4FF0000BB7D091E77D
:102378004FF0000BB3E74FF0000B8BE70022B5E7F7
:10238800400840EAC1704908CDE90E010EA8CDE920
:1023980008231AF0A8F9089A099B013AACE75B08E8
:1023A80043EAC1730CA84908CDE90C3101371AF08A
:1023B8009AF9AEE717AB0B9900290BDD0BA90CA80E
:1023C800CDE906321AF0A7F9069B013F079A03F8F0
:1023D800010BF0D11397AAB9002E40F366812E2184
:1023E80003F8011B0027002E21DD0B9A002A1EDDB1
:1023F8000BA90CA806931AF08EF9069B013E03F868
:10240800010BF0E72E2203F8012BEBE7AFF3008076
:102418000000000000000008E68002002E238DF86E
:102428005D30002F9BD0002E88DC0DF15E03BBF1E0
:10243800000F4FD114961E4608F0DF03452B24D118
:10244800002FBABF7F422D232B23632FC8BF6422DE
:102458007370C4BFB7FBF2F302FB13774FF00A02A5
:10246800C8BF03F13001B7FBF2F3C8BFB17003F185
:10247800300102FB137386F8008003F13003D4BFE8
:1024880002360336317073700236139B002B2BDC37
:10249800149B002BD4BF002301239DF84A2063F32B
:1024A800861200238DF84A2033708FE60BA90CA8FA
:1024B80006921AF030F9069A30288DF85C0018BF99
:1024C80007F1FF3712B9002E40F3F1802E238DF863
:1024D8005D3044E71E4616F8012C013B302AF9D03E
:1024E8002E2A08BF1E46A7E70123D6E7714E81466C
:1024F8000523771F9AE5110748BF01339EE510466B
:1025080009920399D0470028099A05DA1FB0BDE857
:10251800F08F2022DDF810B0594600290BF1FF3B5F
:10252800EDDC049BCDF810B02B445D1AB9F1000F17
:1025380005D048460399D0470028E7DB0135089BBA
:10254800002B77D09DF94930002B28DB3B46DFF87C
:10255800689118789B4619F80020013352073FD438
:102568009DF84A30EF1B98065F4407D44246002A7C
:1025780008F1FF383BDC079B3B449F1A9BF800009F
:102588002E280AD10399D0470028BFDBB8F1000FE5
:1025980007F1010731DC0BF1010B5D4638E0B94664
:1025A80099F80000C846702809F1010913D1EF1BFA
:1025B800149D47443D44EB1B002B33DC3346424615
:1025C800504603991AF0BEF800289FDB3844049E51
:1025D8000546064464E00399D0470028E0DA95E709
:1025E80006930399D0470028069BB2DA8EE730207D
:1025F8000399D0470028B9DA88E730200399D047F3
:1026080008F1FF38C0E70399D0470028FFF67EAFEE
:102618002878A84619F8003001355907F3D4A7EBF4
:102628000B07C5E730200399D0470028FFF66EAFA7
:102638000137C0E79DF84A30DA0601D41B0706D5F2
:1026480030200399D0470028FFF660AF0135069B7C
:102658003BB103999DF84B00D0470028FFF656AFD1
:102668000135A84406E030200399D0470028FFF63A
:102678004DAF0135A8EB0503002BF4DC33463A4691
:10268800504603991AF05EF80028FFF63FAF284439
:102698009DE720200399D0470028FFF637AF013582
:1026A800731B002BF5DCFFF792B91746BFE60DF157
:1026B8005D03BCE604290200E780020030B5054648
:1026C8000C4685B061B1164B039102930023012299
:1026D8001846CDE90033134919F0A5FD05B030BD02
:1026E800114B0322CDE9011320460B4600910D49F9
:1026F80019F099FD20461CF0A4FE284600F042FA85
:102708001EF00BF84FF47A72A0FB020302FB0131B2
:10271800064CC00B40EA4140C90BC4E90001DDE7A3
:102728009C22020090160200B7220200480A0020EC
:102738001FB50024094B0322204603910293084940
:102748002346CDE9004419F06EFD20461CF07CFEBE
:10275800204604B0BDE8104000F014BAC1220200BF
:10276800901602007FB5CDE90423074B039102932D
:10277800002303221846CDE90033044919F053FD1C
:1027880007B05DF804FB00BFDA22020090160200D1
:1027980070B50024614D8CB0234620460295032273
:1027A800CDE900445E4919F03EFD5E4B2046CDE977
:1027B8000143032223465A49009419F034FD204668
:1027C800CDE90145234603225549009419F02BFD14
:1027D800554D564828601DF01EFE034660B9544A00
:1027E8004F49CDE901020090012219F01CFD6FF05C
:1027F800120420460CB070BD4E4B2046CDE9014373
:10280800032223464649009419F00DFD4FF47A73CC
:102818002868CDE9053483681D6875B3224603210D
:1028280005ABA84750B1444B039002930023022202
:102838001846CDE900333A4919F0F5FC0EF0CEFD03
:1028480050B13E4B03900293002301221846CDE974
:102858000033334919F0E7FC002006F0F3FC044686
:1028680070B1374B039002930023CDE90033012266
:1028780018462B4919F0D7FCBBE76FF05700D2E791
:10288800304B0322264902930190034600900546E7
:10289800064619F0C8FC1AF0C7FD00F0FDF804461A
:1028A80030B1294B0390CDE9015300952B46DEE763
:1028B800264D07AC0FCD0FC42B68012523600222DB
:1028C800234B2449009507A807F0D0F9044630B1F6
:1028D800214B0390CDE9016300963346C7E71F4BB0
:1028E800032203931E4B0E49CDE9010300900346D2
:1028F80019F099FC012108460EF09AFD00214FF4C9
:10290800804014F09BFD002101200EF091FD002174
:102918004FF4804014F092FDECE700BFE72302007B
:102928009016020013240200A416002014120200BC
:102938003E240200512402005F2402007A2402008F
:1029480093240200B2240200C8240200B017020037
:102958006818020070180200EB240200102502001B
:10296800212502001FB522240294044C0194BDF8CD
:10297800184000941CF011F904B010BDE7050020C0
:102988001FB502240294044C0194BDF81840009429
:102998001CF003F904B010BDD40500202DE9FF4157
:1029A80005460E46174698461DF0B7FE4FF47A7254
:1029B8008C46A0FB024302FB0C33E40B44EA43447D
:1029C800042308493A460C60CDE90113BDF82830C4
:1029D80031460093284643461CF0DFF804B0BDE8B2
:1029E800F08100BFA8160020012330B500240D4651
:1029F80087B0CDE90313104B032220460293CDE99B
:102A0800004423460D4919F01DFC012D0CBF01227D
:102A180022460B4B20461A700A4A0B4B08BF134636
:102A280003930A4B0322CDE901430449234600944A
:102A380019F008FC07B030BD61250200B815020086
:102A48005234002050250200582502009225020029
:102A580001291FB50CBF012200220A4B0A491A702E
:102A68000A4A0B4B08BF134603930A4B03220293EF
:102A780000231846CDE9003319F0E4FB05B05DF8F2
:102A880004FB00BF51340020B8150200B525020030
:102A9800BD250200C625020030B50024164D174B8F
:102AA80087B029462046029303222346CDE90044F5
:102AB80019F0C8FB4FF47A730393114B294620464B
:102AC800CDE9014303222346009419F0BBFB0D4BCB
:102AD80020460593A3F11A0233F9023C2946CDE9B1
:102AE8000323094B0322CDE901430094234619F03F
:102AF800A9FB204607B030BDB8150200E125020049
:102B080008260200010600201F26020070B5164B99
:102B180005461B7886B00BB310B9144B1D68EDB190
:102B2800531E092B1DD8124E304600F8012BC2EB5C
:102B3800C202540022461EF0CCF900211822684631
:102B48001EF0EEF90B4B013469462846CDE90136F3
:102B5800ADF80C400BF0B2FD06B070BD6FF07F0011
:102B6800FAE76FF01500F7E752340020AC160020A2
:102B7800C433002094180200014B1878704700BF36
:102B88005234002038B5064D0446286808B107F0CD
:102B9800EDFC1CB1204607F0C1FC04462C6038BD92
:102BA800AC160020F8B50F4600293BD00668012274
:102BB800304619F08FFB01460446304619F052FBA7
:102BC800C3070DD4AF23184A1849194819F0DAFD7C
:102BD8003946184819F0D6FDAF21134819F0C9FD38
:102BE8002146304619F054FB251829460022304664
:102BF80019F038FB2D1AAC420BD0B7230A4A0E49FC
:102C08000B4819F0BFFD39460C4819F0BBFDB72138
:102C1800E3E72146304619F041FB2146BDE8F8407C
:102C280019F076BCF8BD00BFE026020003270200B9
:102C38001427020031270200692702008F270200AB
:102C4800B2F5802F2DE9F04110D2042A28D8454941
:102C580040F21A23444A454819F094FD444819F0B3
:102C680091FD40F21A21404819F083FD0823D21A39
:102C7800CC1D114424F0070421F00701091B172972
:102C88004FEAD1060ED83B4940F22323364A37484B
:102C980019F078FD364819F075FD40F22321E2E776
:102CA8000423E4E70025046031462046A660E56079
:102CB80019F01AFBB6F5004F2CBF08230423421D58
:102CC80092000833D11DDB0803EBD103B3424FEA6E
:102CD800D10739D801302946A2F1100204F11000B9
:102CE800B8BF2A461EF01CF93A462946204619F074
:102CF800EDFA2B462A462946204619F0BEFAA6EBDD
:102D0800070820462946012219F0C8FA42463946E2
:102D180019F0DCFA3B462A463946204619F0ADFA46
:102D28003146204619F0D2FA43462A463146204613
:102D380019F0A3FA31462046012219F0AFFA3946B4
:102D4800BDE8F04119F0A2BB0B494FF40E73064AD7
:102D5800064819F017FD064819F014FD4FF40E71D6
:102D680081E700BFCB270200E026020014270200FB
:102D7800EC270200052802002E2802002DE9F04F5A
:102D880091B0009302F004030293C2F3C20301332B
:102D9800840705460E46DDF868900392059340F0D7
:102DA800F881041D30B1072909D86FF01B0011B054
:102DB800BDE8F08F01F007063444C6F108064FF06D
:102DC80000084FF0040B009B4FF0FF32591E474696
:102DD8004346DA46CDF8108001920DB10098206084
:102DE8000598002800F3D7809948009A824203D3B7
:102DF80098488242C0F0CF80039AA4EB050E920750
:102E08004FEA9E0040F1E2804FF0000CCCE07A28B7
:102E18005CD84B280CD8472858D829282AD82528E0
:102E280051D053D8202877D023384342434173E008
:102E38004C382E284AD8DFE800F06F4949494949FB
:102E48004949494949494B494949494949494959D8
:102E5800494B4B5959596F4B6C496F49184B184995
:102E680049807D4B49494B497D00002000234FF0A4
:102E7800040B39E001222A38C0B202FA00F010EA45
:102E88000E0F49D110F0625C30D110EA020343D032
:102E98006046013C5C44B4FBFBF40BFB04F4002DDE
:102EA80060D0AAEB050CA444B4453FF67EAF0028D9
:102EB8006AD1BAF1040F45D159F8040B20604FF0DC
:102EC800040A043428E0019B013B0193002323E01A
:102ED80011F8013C6C2B32D1002011F8023C6C2B0C
:102EE8000346C4D14FF0080BDA46D2E709F10709C7
:102EF80029F00709073424F00704F9E802AB35B1D3
:102F080006982044B0423FF650AFC4E900AB002316
:102F180008344FF0080BDA4611F8010F002800F0CA
:102F2800C080002B7FF473AF2528F5D1019B0133B6
:102F3800019301234FF0040BEDE7184696E70020B4
:102F48000346A6E7BAF1080F40F09D8009F107098A
:102F580029F00709B9EC027B84ED007B4FF0080AE1
:102F68000834D9E780B9BAF1040F02D109F104098C
:102F7800A5E7BAF1080F40F0868009F1070929F0A2
:102F8800070909F10809E9E705980138059059F892
:102F9800040B009021E7039A90074CD54FF0010CE1
:102FA800A4EB050E4FEA9E00BEF5007F1FD32A4909
:102FB8004FF41F73294A2A4819F0E4FB294819F0ED
:102FC800E1FB4FF41F71254819F0D3FB0F2F10D8E0
:102FD800002D4BD007F140020DEB020C019A0CF8C2
:102FE800200C0CF8102C04980130049022E00F2FCC
:102FF8000CD9194940F28123184A194819F0C2FB23
:10300800194819F0BFFB40F28121DCE7D5B107F17F
:1030180040020DEB020E019AC0B20EF8200C0EF819
:10302800102CBCF1000FDED060F07F000EF8200CF1
:1030380008F101080137C5F108024FF6DA7E0434B9
:10304800069269E7BCF1000F10D00136F2E700BF25
:10305800B40F0200E88102007473020059280200CC
:103068001427020087280200A8280200029A0236C4
:10307800002ADFD10098CDE90631FEF7CDF9DDE968
:1030880006310644D6E740F2C623434A434944483A
:1030980019F078FB5146434819F074FB40F2C621F9
:1030A80091E7631BB3F5806F0CD33C4940F2D22300
:1030B800394A3B4819F066FB3B4819F063FB40F27C
:1030C800D22180E71DB9A6F10804E0186FE6029A3C
:1030D8009B0828602B709DF81030C2B1EB7085F802
:1030E8000280B8F1000F05D0002208A8C5F1010C34
:1030F80097420ED14FF0000AC5F101030DF12009E6
:1031080001930DF1300B574512D1601B4FE66B70E0
:10311800E5E710F8013B190608D50CEB040EB64597
:1031280003F07F033FF641AE04F8013B0132DFE7CD
:10313800B8F1000F03D099F90020002A17DB029B91
:10314800D3B11AF80B2004F8012B0022019B18199F
:103158001044B0423FF629AE99F80000009904F8EF
:10316800010B204603921DF0B4FE039A14440AF1A1
:10317800010A09F10109C6E799F8002055F822303B
:103188000093029B009845F82230FEF745F9421C4F
:10319800DCE76FF00D000AE659280200747302009C
:1031A80014270200C2280200D7280200014B186029
:1031B800704700BFF801002030B5002587B0CDE981
:1031C80003010446009503A905480595FEF7E8FBA9
:1031D800DDE904309842B8BF255407B030BD00BFC0
:1031E8007FC60100F0B5024601680A270020074E95
:1031F8000B461C780131355D6D0701D41360F0BDB5
:1032080007FB0043A3F13000F2E700BFE7800200AC
:103218002DE9F84F15469A46D378234A6F2B12F8B2
:1032280003B081460F460BF0030B2BD026D8582B42
:103238000CBF10260A26DDF82880324600234846AF
:103248003946FEF7C5F8092A08F1FF38D4B21ED866
:103258003034B145E4B277F1000788F8004001D373
:10326800D04511D82B789B0605D5082E15D1AB78FB
:1032780043F00803AB704046BDE8F88F03F0F7034E
:10328800702BD5E70826D6E781460F46D5E7BBF170
:10329800010F0CBF37345734DBE7102EEBD1AB7876
:1032A80043F01003E6E700BFE78002002DE9F84F7E
:1032B8000446A38B08461907154612D4022803F0C2
:1032C800070165D1204619F0E3FA88B101380428CE
:1032D80000F23781DFE810F05C0035018200D4008D
:1032E800040101280CBF43F0100143F02001A18321
:1032F8001434204614F0C6FB002840F09D819A49FA
:103308004FF49A73994A9A4819F03CFA2146B1E069
:1033180003F00702501F01281ED80020062A27683C
:10332800C4E9000014D13A4603E0E08B0130E083A1
:103338001268002AF9D123F0070343F0020220465D
:10334800A28319F0A5FA90B342F02002A2832EE0DE
:1033580023F007039AB2F2E7042A33D123F00703D4
:103368009AB22046A28319F093FA10B142F02002D3
:10337800A283A38B03F00709894540F0EC80A18B59
:10338800CA0640F1508121F01003A38301F0070120
:10339800D4F81880A38BB8F1000FB9DA0022276897
:1033A80023F00703C4E9002243F00103A383A38B9E
:1033B80003F00709894540F0CF80002FDFD00026B1
:1033C800B24644E06B4940F21B136B4A684819F057
:1033D800D9F940F21B11684819F0CBF949B167498E
:1033E8004FF4AB73644A624819F0CCF94FF4AB71EF
:1033F800F1E723684BB9624940F257135E4A5C48CB
:1034080019F0C0F940F25711E5E723691E684EB973
:103418005C494FF4AD73584A554819F0B3F94FF465
:10342800AD71D8E70F4688464FF00609A38B23F005
:10343800070343F006039BB2A383A268002A40F067
:103448008D80002F40F08D80002E98D0BA4643F032
:10345800080304F1140B5846A38314F013FB002847
:1034680040F09A8040494FF49A73404A404819F016
:1034780089F95946444819F085F94FF49A71ADE035
:10348800022909D0414940F25D133B4A384819F0F6
:1034980079F940F25D119EE7E78B4FB13C494FF453
:1034A800AF73354A324819F06DF94FF4AF7192E7AE
:1034B80023695E684EB9334940F261132E4A2C489D
:1034C80019F060F940F2611185E7A38BB84623F043
:1034D800070343F004039BB24FF00409A383ACE74E
:1034E800012909D02B494FF4B273234A204819F017
:1034F80049F94FF4B2716EE723684BB9204940F29D
:1035080065131D4A1A4819F03DF940F2651162E742
:1035180023699E684EB91B494FF4B473164A144880
:1035280019F030F94FF4B47155E70027A38BB8466A
:1035380023F0070343F005039BB24FF00509A3836B
:103548007BE70C4940F26B130B4A094819F01AF94A
:1035580040F26B113FE7002700266EE74FF0010AA3
:1035680075E7924673E700BFD8290200AB2902002D
:103578001427020074730200052902002A29020098
:103588003629020059290200EF2902007029020099
:10359800862902009529020085F31188BFF36F8FF1
:1035A800BAF1000F1CD177BB16B120462549B047A8
:1035B800EFF31185202383F31288BFF36F8F5846EA
:1035C80014F052FA38BB88231F4A2049204819F0C2
:1035D800D9F859461F4819F0D5F888211A48FBE64A
:1035E800A1680029DFD00D680029DCD043464A468F
:1035F8002046D1F804A0D0471DB12B6829461D46A6
:10360800F2E72B46FAE7394643464A4620463F68E2
:1036180019F06AF9C7E7584614F04AFAA38B23F061
:103628000803A383ABE68B067FF562AE21F0200387
:10363800A38301F0070145E685F31188BFF36F8F77
:10364800BDE8F88F61360000AB290200042A0200A9
:1036580014270200192A0200F8B504460D4600F1A5
:103668001406EFF31187202383F31288BFF36F8FBB
:10367800304614F0F9F968B988230C4A0C490D480A
:1036880019F080F831460C4819F07CF88821074871
:1036980019F06FF8304614F00BFAA5613A46204647
:1036A800BDE8F8400121FFF701BE00BFAB290200C9
:1036B800042A020014270200192A02002DE9F04703
:1036C80004460F4619F000F9051E68DB04F11409D9
:1036D800EFF3118A202383F31288BFF36F8F4846D4
:1036E80014F0C2F9804660B98823384A3849394805
:1036F80019F048F84946384819F044F88821334801
:1037080042E0484614F0D4F94FF6FF72E38BA68BDB
:10371800934206F0070645D0022E15D135460133EF
:10372800E383484614F0AEF9002841D14FF49A7368
:10373800264A2A49274819F025F84946284819F001
:1037480021F84FF49A71DAE7062E13D8DFE806F06D
:10375800092D1212090409006FF085054FF00008C1
:10376800DFE700233B60636883B9C4E9007786B16B
:103778003546F3E71B4917484FF4E4731A4A19F022
:1037880001F84FF4E471184818F0F3FF1F60676000
:10379800EDE7524602212046FFF788FD35462846C8
:1037A800BDE8F0876FF00A05D8E76FF00405D5E7A4
:1037B8008AF31188BFF36F8FB8F1000FEFD00023A1
:1037C80032463946204619F08FF8E8E7AB2902005F
:1037D800042A020014270200192A0200D82902002C
:1037E800EF2902009529020005290200F8B50546CF
:1037F80000F11406EFF31187202383F31288BFF337
:103808006F8F304614F030F960B98823254A26496D
:10381800264818F0B7FF3146254818F0B3FF88212D
:1038280020482BE0304614F043F9AC8B04F0070431
:10383800022C17D0012C0CBF6FF004046FF0850424
:10384800304614F01FF938BB4FF49A73154A1949DA
:10385800164818F097FF3146174818F093FF4FF4B1
:103868009A71DDE7EB8B5BB91449104840F2EF130E
:10387800134A18F087FF40F2EF11114818F079FF4A
:10388800013B9BB2EB83002BDAD13A46214628460E
:10389800FFF70CFD2046F8BD87F31188BFF36F8F43
:1038A800F8E700BFAB290200042A0200142702002F
:1038B800192A0200D8290200EF2902002F2A020043
:1038C8000529020008B54268034602F00302022AED
:1038D80081600AD0032A4FF0000103D0012A0AD1DF
:1038E800596006E01868596008BD186800225A60D7
:1038F80058B90020F8E7064906484523064A18F053
:1039080041FF4521044818F034FF14F0DFFBF0E7CD
:1039180074730200142702003D2A02002DE9F743C0
:103928000F4606460821C06A19F093F880463C689D
:10393800DFF84890241A3C6004EA0905AC4203D831
:10394800002003B0BDE8F08308236A4621463046CC
:1039580019F008F80028F4D16946304619F083F8C0
:1039680040B1BDF80230BDF8042005EA090513444A
:103978001D443C60A4EB0804E0E700BF0000FFFF23
:1039880073B504464FF6FF72C06A082119F061F852
:10399800002563680F4EADF800208DF80620E26818
:1039A800191833401344181A60606846ADF80210BD
:1039B800ADF8045019F035F86946204619F013F9A6
:1039C8002046211D19F007F8284663683340A36094
:1039D80002B070BD0000FFFF2DE9F04704468EB02D
:1039E80000F1140738461CF075FDA06A8368DB688F
:1039F80098470346E06230B99A4A0090CDE901023F
:103A0800012299490FE0A06A8368DB689847036838
:103A1800013B1F2B0FD9954B029300230122184617
:103A2800CDE90033904919F005F86FF015052846DF
:103A38000EB0BDE8F087E368B3F5803F0ED94FF4C8
:103A48008032CDE903328A4B012202930023864952
:103A58001846CDE9003318F0EDFFE6E7A06A2168C3
:103A68000BAA1BF045FA08B1824BD5E7E5682DB1E2
:103A78000C9BB5FBF3F203FB12550DB17E4BCBE764
:103A8800238A012B05D87D4B0095CDE901532B46A0
:103A9800B6E7E36A069593F805904FF0FF334FF0C9
:103AA800FF32384611F05AFA0821E06A18F0D1FFBF
:103AB800A8460646238A1FFA85FA534508D8238A5A
:103AC800434523D1384611F019FB6FF02C05AEE7BA
:103AD800E1682B04891B13FA81F14A460823204622
:103AE800069118F04DFF78B1204606A918F073FF2B
:103AF80008F1010808234A46204606991FFA88F863
:103B080018F03EFF0028DAD00135D3E79A450BD1EB
:103B1800069908234A462046891B18F031FF18B930
:103B2800204606A918F057FF204606A9FFF7F6FE1B
:103B3800054618B1384611F0E1FA78E7069B4FEAD6
:103B480013484FEA08486360C4F80880D4E90113B1
:103B580099420FD30823204607AA18F003FF054609
:103B68000028E7D107AB13F8012B914543D1013564
:103B7800082DF8D1636820461B0C1B0406A9069380
:103B880018F029FF4A462046E368069918F0F8FE1F
:103B9800051ECFDB636800F085804FF6FF7906EBE2
:103BA8000308E3681FFA88F29B1B9A42CDF8188035
:103BB8003DD3334B0322029300232B491846CDE90A
:103BC800003318F037FF2046616818F011FF0546EA
:103BD8000028AFD163682B4AE16813400B44A3EB7C
:103BE8004603636013402046A36019F024F8054695
:103BF800002D73D09EE7204607A918F034FF6268AD
:103C080010B9921B6260A1E7BDF82050BDF81E10E4
:103C1800E06AC4F80880294418F01BFF4044904229
:103C2800A060EED1002DECD06FF01C0593E00823C6
:103C38004146204609AA18F095FE054600287FF45B
:103C480079AF204609A918F00EFF40B1BDF824301D
:103C58004B4504D1BDF82830002B00F08280B044D9
:103C68009FE700BF772A020058160200992A02002F
:103C7800B62A0200DF2A0200F72A02000B2B0200F4
:103C88007D2B02000000FFFF4A4620465B1A18F011
:103C980077FE051EFFF64EAF08D0E26AA3681268E9
:103CA8001344A360D4E901318B42EDD86168E3681D
:103CB80001EB46029A429BD1DFF8E880A26801EA4C
:103CC80008039A4294D0204618F092FE0546002830
:103CD8007FF430AF636803EA0803A360E368A2884F
:103CE800A3EB46039A4232D0384611F007FA012373
:103CF8000025A374E36828460493238A03220393C8
:103D0800234BCDE90055029322492B4618F092FE29
:103D1800636828469AB21B0C03931F4B0492CDE9A3
:103D2800015303222B461B49009518F083FEA36814
:103D380028469AB21B0C0393184B0492CDE9015301
:103D480003222B461349009518F074FE6FE62046AF
:103D580018F05AFF0546384611F0D0F9002DC6D0A4
:103D680065E60F4B03222846CDE9015309492B4646
:103D7800009518F05FFE636820461B0C1B0406A91B
:103D8800069318F028FE2046069918F031FE2EE713
:103D98002E2B020058160200452B0200572B02005A
:103DA800682B02000000FFFF2DE9F04F1D46837CC1
:103DB80095B004460691049273B9664A1846CDE94F
:103DC800013265490122009318F034FE6FF00C06A9
:103DD800304615B0BDE8F08FC26A0821104618F0C9
:103DE80038FE29460590104618F033FEE368059A18
:103DF8000746A3EB8203AB42C0F0A8801DB1049B29
:103E0800002B00F0A3806368099320460AAA09A939
:103E1800DDF824A018F064FE06460028D8D1BDF8C5
:103E28002830069A934206D06268099B9A42ECD1E0
:103E3800002D35D1CCE720460AA918F014FE002839
:103E4800F2D0BDF82A80BDF82C303DB39D4227D171
:103E58004FEA1A4A4FEA0A4AD044AA46E36ADDF80A
:103E680010B01B685B4203F020030793079B414691
:103E7800534528BF534620460CAA994618F072FDB0
:103E880000284AD14A4658460CA91DF012F838B9FC
:103E9800BAEB090AC844CB44E8D199E7002B97D07C
:103EA800002F3DD1B84604F1140A4FF0FF324FF00D
:103EB800FF33504611F052F8238A9E4243D0A1683E
:103EC800626808EB01039A422FD3069B2046ADF89F
:103ED8003030FF23049A8DF836302B46ADF8321077
:103EE800ADF8345018F046FE29460746E06A18F047
:103EF800B0FDA3680344A36057B90CA818F091FD5E
:103F080020460CA918F06FFE002814BF07462F465C
:103F1800504611F0F3F83E465AE7C1DC064657E72B
:103F2800059B1F441FFA87F8BDE72046FFF728FDC9
:103F380007460028ECD1204618F07DFE07460028E9
:103F4800E6D10136B8E76FF01B07E1E76FF0150619
:103F58003EE700BF632A0200581602002DE9F04729
:103F68001E46837C88B004460F469046BDF84090B4
:103F78006BB92F4A1846CDE901322E490122009328
:103F880018F058FD6FF00C0008B0BDE8F087082164
:103F9800C06A18F05EFDE368A3EB4003B34243D365
:103FA8000025D4F804A0CDF814A04D455146DDF8FD
:103FB80014A009D9636853451ED1BDF81830BB4217
:103FC8001AD06FF00100DFE7204606AA05A918F00D
:103FD80087FD0028D8D1BDF81830BB4206D120464D
:103FE80006A918F040FD08B10135ADB26268059B1D
:103FF8009A42DAD15146E0E7BDF81C30002BE0D0F8
:10400800A945DED8BDF81A00090CB3424FEA0141B0
:1040180028BF334601444246204618F0A3FC002836
:10402800B2D1BDF81C00AFE76FF01500ACE700BFD8
:10403800632A0200581602001FB5034660B9114AE8
:104048000090CDE901021049012218F0CCFE6FF072
:10405800150005B05DF804FB83685BB90B4A184688
:10406800CDE9013208490122009318F0BCFE6FF037
:104078000400EEE71B681BB105B05DF804EB1847B8
:104088001846E6E7AB2B020070160200BC2B0200B4
:104098001FB5034660B9114A0090CDE901021049E5
:1040A800012218F0A0FE6FF0150005B05DF804FBC2
:1040B80083685BB90B4A1846CDE9013208490122E9
:1040C800009318F090FE6FF00400EEE75B681BB1F8
:1040D80005B05DF804EB18471846E6E7AB2B02007D
:1040E80070160200BC2B020030B585B008B101B1D2
:1040F8006AB9134B01220293002312491846CDE9ED
:10410800003318F070FE6FF0150005B030BD8468FC
:104118000CB1E56865B90C4B0122029300230949EB
:104128001846CDE9003318F05EFE6FF00400ECE7A6
:1041380041F8040BE36805B0BDE83040184700BFFC
:10414800DA2B020070160200BC2B02001FB50446D1
:1041580060B9194B0090CDE90103012203461749C4
:1041680018F041FE6FF0150004B010BD03685BB98C
:10417800134A1846CDE9013210490122009318F07C
:1041880032FE6FF00100EFE79A680AB1126962B96E
:104198000C4B01220293002308491846CDE900334D
:1041A80018F021FE6FF00400DEE7416818469047DA
:1041B8000028D9D12060D7E7062C0200701602002B
:1041C800172C0200BC2B020030B51346044685B0FC
:1041D80060B9194B0090CDE9010301220346174944
:1041E80018F001FE6FF0150005B030BD006858B931
:1041F800134B0090CDE90103012203460F4918F043
:10420800F2FD6FF00100EFE782680AB1956865B9C1
:104218000C4B01220293002308491846CDE90033CC
:1042280018F0E1FD6FF00400DEE70A46AC4661686D
:1042380005B0BDE830406047062C02007016020049
:10424800172C0200BC2B0200034A13680BB95268F2
:1042580013600020704700BFFC01002030B50C46F9
:104268000E4985B00291D0F8D4110546CDE9003148
:1042780000F1F0014FF0FF3320460FF06FFE50B908
:10428800012384F86C30D5F8D03123B1204605B02D
:10429800BDE83040184705B030BD00BFFFCE010073
:1042A80038B50C461146054618F027FE034638B9BE
:1042B8002846044918F021FE03460020236038BD33
:1042C8000120FBE7967502002DE9F04F0123814696
:1042D8000569466891B005F57B77D7E8EF2F002A86
:1042E80003D1C7E8E13F0029F7D10CBF1A460022E5
:1042F80040F0BD80B368B16A05F5F8781C1F104618
:1043080018F082FE84427BD8013A00F0AA80B2FA03
:1043180082F24FF00044D44072682046073222F0FF
:104328000302C5F83C22B16A18F06EFEC5F84002D7
:10433800B36A40466343033323F0030302EB4302AB
:10434800230103EB4403093323F0030303EBC40302
:10435800C5F834221A440832C5F830227368C5F803
:104368003842C5F82C32434BC5E9AD63316800F0DB
:10437800F3F90446002841D1D9F810B0D9F804A0BF
:10438800D9F800300BF53479CDE906000593484695
:10439800DAE90734012B08BF103C11F0A9FDDAF85F
:1043A8002400354905AB009301EB8021234648469C
:1043B8004FF4806211F0B6FD2021DAF824302F4A3C
:1043C8000DEB010018F078F908A9484612F0DAF860
:1043D8002B490BF5307011F0CFFBDAE90501836842
:1043E8005C684CB15B46274AA047044630B9DAE915
:1043F800050183681B692BB96FF05704002129E078
:1044080001327CE70122984704460028F6D11E4B6A
:104418002846C5F8D0311D4BC5F8D4311C4B039341
:10442800D5F840320293D5F83C32CDE9008305F542
:104438001173B26AD5F8E81300F056F9044600285B
:10444800DCD105F1F0000FF02FFE0028C5F8F003CD
:104458000ADB0221384618F084FD204611B0BDE879
:10446800F08F6FF00B04C9E76FF01504C6E76FF023
:104478007704F2E755CF0100103F00203C2C0200E2
:104488003BCF01002FCF01009D440000E7D0010081
:104498009BCF010013B5044640B100230122CDE9AA
:1044A8000032074BD0E909120FF02CFD236F1B686F
:1044B80023B1606F02B0BDE81040184702B010BDCC
:1044C8009675020013B504460846216901F57B710B
:1044D800D1E8AF1F022910D193B1A0B10121CDE9D4
:1044E80000311346D0E909120FF00CFD074B984232
:1044F80008BF6FF00B0002B010BD6FF00F00FAE7B5
:104508006FF04C00F7E76FF00100F4E72EF8FFFFBB
:104518002DE9F34789461546066906F57B73D3E806
:10452800AF3F022B64D1136823B96FF0150002B0B6
:10453800BDE8F0871B78002BF7D0D6F8E8A3BAF1CE
:10454800000F36D106F5EC774FF0FF324FF0FF330E
:10455800384610F003FD30462A6801A9FFF7A0FE8F
:10456800019C80461CB9384618F0F9FCDDE705F1D6
:1045780008032367AB6984F86CA06367646460B15F
:10458800384618F0ECFC21463046A36E2A68FFF73F
:1045980065FE0020C9F80040C9E71F22296804F118
:1045A80048001CF0DFFC384684F8678018F0D7FC18
:1045B800EFE73046104918F0A0FC04460028B4D0B4
:1045C800002705F108030367AB6980F86C7043673F
:1045D80040641F22296848301CF0C4FC224601218F
:1045E800304684F8677000F061F80028D1D09CE765
:1045F8006FF00F009BE700BF9675020010B50C46E0
:10460800006900F57B73D3E8AF3F022B0FD189B166
:104618000A4900F5307011F0DDFB20461BF005FD5E
:104628007822002120461CF07BFC002010BD6FF092
:104638000F00FBE76FF00100F8E700BFB01600209D
:104648002DE9F04F05460E4690460027D0F8C4A045
:1046580085B0AAF5BE7421463046FCF7D3FEE0B912
:10466800114BA4F1480B0293DAF810303246CDE929
:10467800008329464FF0FF335846AAF5E2790FF038
:104688006DFC60B97823012203FB079383F86C2043
:10469800DAF80C300BB158469847783417B105B0A2
:1046A800BDE8F08F0127D6E715D101001FB51446E4
:1046B80090B18AB1012912D10A4B00F1F00102939D
:1046C800D0F8D431483201934FF0FF33204600939D
:1046D8000FF044FC04B010BD6FF01500FAE700209D
:1046E800F8E700BF15D101002DE9F04387B00E4669
:1046F800DDE90E811446DDE910251F4630B329B3E4
:10470800DFF850C000F1F009002D08BF65469EB9DA
:10471800CDE9034400F5E274204605961BF03DFE02
:1047280003ABCDE900432A463B46414648460FF0D5
:1047380075FE07B0BDE8F083002241460E92484658
:104748002A4607B0BDE8F0430FF0BEBF6FF0150072
:10475800EFE700BF49460000F0B504462B4A87B092
:1047680004AB0E4692E8030083E80300002C49D00E
:1047780018460FF0CDFA0546B0B94FF0FF33E16C9B
:1047880004F15407A163CDE9010000933846236D75
:1047980004F138021BF0F9F8A06C18F0E6FCC4F834
:1047A800BC0020B96FF00B05284607B0F0BDA06C1F
:1047B80018F0DBFCC4F8C0000028F3D0236CD4F850
:1047C800BC10C4F890300423C4F89430C4F8AC305A
:1047D8000223E3620E4BB4F84820C4F88C10616CD5
:1047E800236204F18C03C4F8A070A4F89820C4F8DC
:1047F800B870C4F8A810A4F8B020C4F8A400A66142
:104808002363D1E76FF01505CEE700BFC417020098
:10481800881902002DE9F84FDFF81CA13F4F8146A7
:10482800AAEB07038F2B88460BD93D494FF4A67393
:104838003C4A3D4817F0A6FF4FF4A671394817F0D7
:1048480098FF3A4818F0CDFC0646002837D13C4678
:1048580005464FF0010B54452AD935494FF4AC733E
:10486800304A314817F08EFF324817F08BFF4FF46B
:10487800AC71E3E7237B83B12368DB680BB1204687
:104888009847636883F806B023681B6943B963686F
:1048980004222046196818F0C5FC01361034DAE7FE
:1048A800204698470028F2D00BFA06F31D43F4E798
:1048B800E0D3B9F1000F02D04FF0010A0DB9BDE8FD
:1048C800F88FA94695FAA5F4B4FA84F40AFA04F321
:1048D800260107EB04146FEA030B25EA0305237B83
:1048E8005BB1BB591B69A3B93E44736804222046D7
:1048F800196809EA0B0918F095FC002DE2D1B8F106
:10490800000F04D04FF4A470002112F097FD4D461B
:10491800D4E7204698470028EFD1E5E7E0160200E3
:10492800752C0200482C020014270200E016002013
:10493800A52C0200C62C0200F0160200014B53F809
:1049480020007047B419020008B5034608462BB189
:10495800044A136000F006FB002008BD6FF0150044
:10496800FBE700BF280200200023144A10B513708B
:10497800134A4FF400411360124A13481360FFF7BB
:10498800E3FF124B124918468B4215D9114940F2E0
:104998002713114A114817F0F5FE114817F0F2FED7
:1049A80040F227110C4817F0E4FE1A1A5C6812113D
:1049B800013222711033E7E7F7D310BD53340020DA
:1049C800D8160020DC160020E7D10100E01602000E
:1049D800F0160200A52C0200482C02001427020041
:1049E800C62C020070B5134D297809BB0120FFF7CA
:1049F80011FF114C114EB44217D9114940F2C51399
:104A0800104A114817F0BEFE104817F0BBFE40F2DE
:104A1800C5110C4817F0ADFE63685B791BB12368BC
:104A280020469B6898471034E5E7F5D301232B709F
:104A380070BD00BF53340020E0160200F0160200DB
:104A4800A52C0200482C020014270200C62C0200E4
:104A580010B50446064818F0C4FB3CB1054BD3E832
:104A6800EF1F0139C3E8E21F002AF8D110BD00BFCB
:104A7800D8160020DC16002070B5124B05461B68BE
:104A88009847114C114EA860B44218D910494FF4F8
:104A98000073104A104817F075FE104817F072FEA0
:104AA8004FF400710B4817F064FE63685B7923B11B
:104AB8002368294620461B6898471034E4E7F4D356
:104AC80070BD00BF28020020E0160200F0160200A8
:104AD800A52C0200482C020014270200C62C020054
:104AE800044A054B9B1AB1EBD30F34BF52F831007F
:104AF80000207047B0150200E01602002DE9F04FC3
:104B080087B004AF0446D7E90EA90E4693469846E7
:104B18003D6BBAF1000F2BD0C7F80490CDF8009088
:104B28001021534600207A6BFEF728F9011E0BDA94
:104B3800284940F26513284A284817F023FE40F216
:104B48006511254817F015FEB1F5006F11DB40F22D
:104B5800FF730393224B0222029300232149184634
:104B6800CDE9003318F080FB0C37BD46BDE8F08F67
:104B7800514604F007040BF0070BE40044EA8B14D9
:104B880044EA412444EA055417350D4425F0070545
:104B9800ADEB050D04ADBAF1000F13D0CDF80090C0
:104BA80053467A6B05F11000FEF7E8F8002809DA99
:104BB80008494FF4C473084A084817F0E3FD4FF456
:104BC800C471BEE7434622463146284618F033FBF7
:104BD800CAE700BF1E2D0200F22C020014270200B3
:104BE800282D020078160200406820B1034BC01A35
:104BF80040F3CF0070474FF0FF307047B015020008
:104C08000EB403B503AB53F8042B014604480193D3
:104C180018F064FB02B05DF804EB03B0704700BF06
:104C2800ADD20100CA0605D48B064CBF0249034920
:104C3800FFF7E6BF704700BF957502006572020076
:104C48002DE9F04F89B09DF84C6004460D4690461A
:104C58009946DDF85CB0002E00F0AE80042E0BD92A
:104C6800A74940F24623A74AA74817F08BFD40F210
:104C78004621A44817F07DFD0BF0010306930BF0C5
:104C8800080305930BF48073079318F0C9FA0BF027
:104C9800020A024600283DD020469C49FFF7B0FF93
:104CA8000746BAF1000F08D01BF0440F34D12A464A
:104CB80020469749FFF7A4FF0744069B53B1954B3D
:104CC800204653F82620944B9449002A08BF1A46D8
:104CD800FFF796FF079B002B4AD0059B002B64D15A
:104CE800B8F1000F66D0424620468D49FFF788FF8D
:104CF8000546149B3D44002B6DD1169B002B40F0BC
:104D080082801BF0010F40F0F58059462046FFF7DE
:104D180089FFE2E00746C4E7824B18680028CBD039
:104D2800814B4FF47A7A1B684FF03C0CB5FBF3F5D6
:104D3800B5FBF0F14FF4616300FB11550AFB05F573
:104D4800B1FBF3F2B5FBF0FE03FB121100FB1E559D
:104D5800B1FBFCF30AFB05F5B5FBF0F50CFB1311F1
:104D680020460091CDE901E57049FFF749FFA3E727
:104D7800059BEBB16E4B204653F826206D49FFF793
:104D88003FFF0546B8F1000F05D04246204664496A
:104D9800FFF736FF0544B9F1000FAAD04A4620466E
:104DA8006549FFF72DFF0544A3E74FF00009E1E748
:104DB800059DE7E745469CE7B9F1010F149B06D12D
:104DC800DBB9169B002B00F0888000251BE0002B28
:104DD800F7D05A4812E05A482246149B594917F00E
:104DE80017FC00280CDA58494FF42873454A4648FE
:104DF80017F0C8FC4FF428713BE751483546EBE7FC
:104E0800169B002B66D0DFF85481DFF85491169F6B
:104E18005946102F204628BF10274FF0000AFFF7E9
:104E280001FF554543DC159B494620461A78FFF794
:104E3800E7FE4FF0010A1AF0070F03D1414620465A
:104E4800FFF7DEFE574539D9159B4946204613F82A
:104E58000A20FFF7D5FE0AF1010ABAF1100FEAD1CC
:104E68004FF0000A20463949FFF7CAFE5246159B03
:104E780020469A5C364B995C11F0970F08BF2E229A
:104E88003449FFF7BDFE0AF1010ABAF1100F1AD032
:104E98001AF0070F03D141462046FFF7B1FE5745E8
:104EA8005246E4D841462046FFF7AAFEEBE74146C2
:104EB8002046FFF7A5FE0AF1010AB2E72046264977
:104EC800FFF79EFEC7E7159B3B441593169BDB1B1C
:104ED80016939CD1002E7FF414AF6268A168D2E9C2
:104EE8000023206818F0D0F9002263681A6009B01E
:104EF800BDE8F08F2046084A0849FFF781FE04E71D
:104F0800942D0200652D0200142702009F2D020037
:104F1800A32D0200C4190200602D02000042020005
:104F2800C82D0200E8160020E4160020AC2D02006F
:104F3800D8190200CC2D0200D22D0200C9D20100DE
:104F4800ADD20100E5D20100D72D0200E62D020006
:104F5800E7800200E82D02002F7202003172020081
:104F6800E02D020000210123064A904206D8064A95
:104F780001B901231360054B1860704701214008EF
:104F88005B00F2E740420F00E4160020E81600201C
:104F9800F8B50D460446064F4618B44201D12846D6
:104FA800F8BD14F8011BBB6801485B689847F4E733
:104FB8003411020010B543681C6809481BF02BFA2D
:104FC80048B9084908489923084A17F0DBFB992192
:104FD800064817F0CEFB23685B685C6010BD00BF15
:104FE80034110200492E0200142702000B2E020081
:104FF800014B036000207047201A020070B5104B67
:105008000D461C68B4B10F4B196800238B4202DBB4
:105018006FF0010070BD224612F8106B864202D074
:1050280014460133F2E7E0681BF0F5F928B10020D7
:105038002C60EFE76FF00C00ECE76FF01200E9E787
:10504800880200204C1A020010B5436888B0029309
:1050580083680C46CDE9033200230A68C068CDE9AD
:105068000623054901AA059319F046FF079808B9D0
:10507800059B236008B010BDBBD301002DE9F041AA
:105088000C4B05461C680E4617467CB100F0A2F989
:1050980063682046D3F8108032463B462946C0470D
:1050A800044600F0A1F92046BDE8F0816FF0010444
:1050B800F9E700BF1817002000230360044B5A6863
:1050C80012B9C3E90000704710605860704700BF0C
:1050D8001C170020014B1860704700BF18170020EC
:1050E800002330B585B0CDE902330546019000F0C4
:1050F80071F9094B1C6844B9284600F0F3F80446D6
:1051080000F072F9204605B030BD636820461B6880
:1051180001A998472468EEE71C1700201FB5CDE9C0
:105128000101039200F056F9074B1C6824B900F0FE
:105138005BF9204604B010BD636820461B6801A9CE
:1051480098472468F2E700BF1C1700200022024B92
:10515800C3E90022704700BF1C1700207FB50BABC6
:1051680005930393054B0122029300231846CDE9CA
:105178000033FFF7C3FC07B05DF804FB7D2E020087
:105188000022024BC3E90022FFF7E0BF24170020EA
:105198002DE9F74307460C4609B100230B600026AA
:1051A800254DDFF8AC904D4524D924499D23244A48
:1051B800244817F0E7FA244817F0E4FA9D2120481C
:1051C80017F0D7FAD5F800803846414601AA18F0FA
:1051D80032F950B116B954B92E4606E000224046BD
:1051E800316818F028F90028F5D11835DBE7019B5C
:1051F8002360F1E7E6D3154B1D68C5B155F8188C47
:105208003846414601AA183D18F015F950B116B9AB
:1052180054B92E4606E000224046316818F00BF9D2
:105228000028F5D1AD69E8E7019B2360F1E7304636
:1052380003B0BDE8F08300BF34170200D42E02008B
:10524800A22E020014270200C62C020024170020F8
:10525800AC1702002DE9F04188B0DDF8388004462B
:105268000D4616461F460790B8F1000F07D0D8F82C
:105278000010F1B9D8F804E0BEF1000F22D12046A1
:1052880007A9FFF785FFC8B1D0F80C803B46324626
:1052980029460798C04788B1104BCDE903400293CF
:1052A800002301221846CDE900330D49FFF756FFC8
:1052B80004E007AA18F0BFF80028DBD1002008B0E6
:1052C800BDE8F081D8F8083032460E9329463B46AF
:1052D800F446079808B0BDE8F04160477D2E02000B
:1052E800C81602002DE9F04780464FF00047002617
:1052F800DFF8D890DFF8D8A03D462F4C4C4530D980
:105308002E494FF489732E4A2E4817F03BFA2E483F
:1053180017F038FA4FF48971294817F02AFA2F46FE
:10532800EAE7B8F1000F03D122694AB91834E5E772
:1053380000224146206818F07EF80028F4D1F5E7ED
:105348006368BB4205DDAF4209D09D42A8BF1D4638
:10535800ECE7EBD19047002E08BF0646E6E71D466E
:10536800E4E7DED3DAF8004004B3183CB8F1000FE4
:1053780003D122694AB9A469F6E7002241462068A8
:1053880018F059F80028F4D1F5E76368BB4205DD49
:10539800BD4209D09D42A8BF1D46ECE7EBD190471E
:1053A800002E08BF0646E6E71D46E4E7AF42B6D141
:1053B8003046BDE8F08700BF34170200D42E020043
:1053C800A22E020014270200C62C0200AC1702000D
:1053D800241700204FF0FF324FF0FF3301480FF041
:1053E800BDBD00BF1C07002001480FF087BE00BFED
:1053F8001C07002038B5094DFFF7ECFF2B783BB9A7
:10540800FFF7BEFE00F06AF8044610B901232B70BE
:105418000024FFF7E9FF204638BD00BF55340020BF
:105428002DE9F04706468946048FDFF8ACA0013421
:1054380098B0A4B200F10807651EADB2B5F5004FEB
:1054480047D04A23294605AA384617F0C5FC04F573
:105458007F543F34A4B280462146012338460DF1DB
:105468000B0217F0B9FCB8F1000F014610DC002858
:1054780010DC338FAB4209D132466B1E22F8383F1D
:105488004FF4004102233846FEF78EFC2C46D3E742
:10549800002808DC2946384617F09AFC2146384689
:1054A80017F096FCE5E708F160030DEB030800230D
:1054B800524608F84C3C05A8CDF8009003AB03977A
:1054C800ADF81040FFF7C6FE0028DFD018B0BDE8E1
:1054D800F0870020FAE700BFAFD401007FB50125AF
:1054E800694628460195FFF789FD044660BB2846B2
:1054F80002AA01A917F07FFF044610B110F10C0FA2
:1055080022D10399B1F5803F23D200231846009A8F
:105518009468084484421AD30133082BF9D10E4DFC
:1055280069612B8353682846AB60D368EB6318F036
:1055380052F8044640B9094E28466E60FFF7BCFD94
:1055480028466E60FFF7C6FD204604B070BD9BB2CA
:10555800E5E76FF02004F7E72C170020340200205D
:1055680008B5044817F09BF8BDE80840024817F052
:1055780096B800BFFC2E0200312F0200014814F03B
:10558800C9B800BF201A020038B5044618B90F4B35
:105598000F485B6898476168B1F5683F10D0B1F56E
:1055A800680F0DD00B4DA9420AD011F4686120682C
:1055B80007D0014608480FF0F1FB0023236065601F
:1055C80038BD14221BF0ACFCF9E700BF0C05002025
:1055D8005F2F02002C5F5CA96C1C002008B560B32B
:1055E8004368B3F5683F0ED0B3F5680F18D0144A76
:1055F800934220D000684FF0FF324FF0FF330FF096
:10560800ADFC58B115E001220368D3E8EF1F00296B
:1056180003D1C3E8E02F0028F7D10AD1002008BD44
:105628000368084A1B7803F5807352F82330002B6F
:10563800F4D00548F3E70548F1E76FF4E040EEE7FA
:105648002C5F5CA900000350E98FFFFFEA8FFFFF82
:1056580008B520B34368B3F5683F09D0B3F5680FC0
:1056680013D0114A93421DD000680FF047FD14E093
:1056780000220368D3E8EF1F012903D1C3E8E02F14
:105688000028F7D109D0094808BD00210368084A55
:105698001B7803F5807342F823100020F4E76FF4B9
:1056A800E040F1E70348EFE72C5F5CA9E98FFFFFD3
:1056B80000000350EA8FFFFF10B5044618B91D4BD0
:1056C8001D485B6898476368B3F5683F2FD0B3F50A
:1056D800680F2CD0194A934219D1236803BB4FF0A5
:1056E800FF324FF0FF33214615480FF0CBFA08B9C7
:1056F80023681BB90F4B13485B6898471422002195
:1057080020681BF00DFC4FF46863636008E0B3F594
:10571800683F0DD83A2B03D040F6BA629342DED1E7
:1057280020681AF0D7FE636843F03A03636010BD3F
:10573800054AF3E70C0500205F2F02002C5F5CA9E7
:105748006C1C0020852F02003A00003A08B5064973
:105758004023142205481AF0A6FEBDE80840044973
:10576800044814F09BB800BF6C1700206C1C002084
:10577800281A02003C1A020008B50348034A00210F
:10578800121A17F05EFF08BD5009002010370020DC
:10579800074808B5074A0849121A17F054FFBDE828
:1057A80008400648064A0749121A17F04CBF00BFBE
:1057B800000000204C090020E881020000000020C1
:1057C80000000020E88102002DE9F04780460D46E0
:1057D8008CB0002966D000248B68012205934B68A1
:1057E800204604930B683B4903933B4BCDE90044A7
:1057F8000293234617F029FF6B69012205932B6951
:1058080020460493EB6833490393344B0094CDE965
:105818000143234617F019FFEB6901220393304B2C
:105828002046CDE901432B492346009417F00DFF8C
:105838002F462646DFF8B8A0DFF89890FB6A0122C9
:105848000A93E31C0993BB6A49460893A31C079370
:105858007B6A10370693631C05933B69CDE9016A9F
:10586800CDE90343002300961846043417F0EDFEF3
:10587800102CE3D12B6E012203931A4B1549CDE965
:10588800016300230096184617F0DFFEAB6901227A
:105898000393154B0F49CDE9016300230096184681
:1058A80017F0D3FEB8F1010F0DD1EFF30583103BCC
:1058B80003930E4B42460293002306491846CDE94E
:1058C800003317F0C2FE294640460CB0BDE8F04749
:1058D8000EF056BFB8160200B22F0200E12F0200E8
:1058E8001030020062300200713002009F30020066
:1058F8001F30020030BFFFF7FDBF00BF054B9A699C
:105908009B689A421FBF044A536843F08053536010
:10591800704700BF4822002000ED00E0F0B50024E9
:105928004B4B85B00293074623460E46012220467C
:10593800CDE90044474917F0A3FE474B9B6ADD06B3
:1059480074D5464B2046CDE90143012223464149FF
:10595800009417F095FE11203F4B9B6A1C070AD54F
:105968003F4B0122029300233A491846CDE9003300
:1059780017F086FE1220384DAB6A99071FD5002410
:10598800384B0122029320462346CDE90044314991
:1059980017F076FE6B6BAA6A12060FD50393324B8B
:1059A8000122CDE90143204623462A49009417F0F5
:1059B80067FE1FB1AB6A23F08003AB621320264B4E
:1059C8009B6ADB070AD5294B012202930023214950
:1059D8001846CDE9003317F053FE14201E4B9B6A7E
:1059E8009F060AD5224B0122029300231949184623
:1059F800CDE9003317F044FE1520174B9A6AD506F7
:105A080002D49A6A940713D59B6AD90610D5194906
:105A180040F22D13184A194816F0B4FE184816F02B
:105A2800B1FE40F22D11144816F0A3FE102093E7A2
:105A3800094B9A6A920642BF5A6A22F400525A6285
:105A48009A6A42F0FF029A620023337005B0F0BDF3
:105A5800B2300200B816020000ED00E0C8300200C3
:105A6800FB3002000E310200263102003C310200F8
:105A78005B310200BC3102008A31020014270200A7
:105A880006320200F0B50024434B85B00293074666
:105A980023460E4601222046CDE900443F4917F02F
:105AA800EFFD3F4B9B6ADB0465D53E4B2046CDE9B5
:105AB8000143012223463949009417F0E1FD1720DC
:105AC800374B9B6A1D050AD5374B012202930023E9
