:020000040000FA
:1000000068950020CD3F0000AF8A0100B93F000095
:10001000B93F0000B93F0000B93F0000B93F000000
:100020000000000000000000000000006941000026
:10003000B93F000000000000D1400000B93F0000BF
:10004000B5430000B5430000B5430000B5430000D0
:10005000B5430000B5430000B5430000B5430000C0
:10006000B5430000B5430000B5430000B5430000B0
:10007000B5430000B5430000B5430000B5430000A0
:10008000B5430000B5430000B5430000B543000090
:10009000B5430000B5430000B5430000B543000080
:1000A000B5430000B5430000B5430000B543000070
:1000B000B5430000B5430000B5430000B543000060
:1000C000B5430000B5430000B5430000B543000050
:1000D000B5430000B5430000B5430000B543000040
:1000E000B5430000B5430000B5430000B543000030
:1000F000B5430000B5430000B5430000B543000020
:10010000B5430000B5430000B5430000B54300000F
:10011000B5430000B5430000B5430000B5430000FF
:10012000B5430000B5430000B5430000B5430000EF
:10013000B5430000B5430000B5430000B5430000DF
:10014000B5430000B5430000B5430000B5430000CF
:04015000B5430000B3
:1001580080EA101404F0F01480EA0410604081EA88
:10016800111404F0F01481EA0411614082EA1214B7
:1001780004F0F01482EA0412624083EA131404F0D3
:10018800F01483EA0413634080EA102404F47F44E3
:1001980080EA0420604081EA112404F47F4481EA63
:1001A8000421614082EA122404F47F4482EA042292
:1001B800624083EA132404F47F4483EA04236340FF
:1001C80081EA500404F0553480EA4400614083EA2F
:1001D800520404F0553482EA4402634082EA9004EF
:1001E80004F0333480EA8400624083EA910404F026
:1001F800333481EA84016340704700BF82EA900487
:1002080004F0333480EA8400624083EA910404F005
:10021800333481EA8401634081EA500404F05534A0
:1002280080EA4400614083EA520404F0553482EACB
:100238004402634080EA102404F47F4480EA0420E6
:10024800604081EA112404F47F4481EA042161407A
:1002580082EA122404F47F4482EA0422624083EA98
:10026800132404F47F4483EA0423634080EA1014CF
:1002780004F0F01480EA0410604081EA111404F0DC
:10028800F01481EA0411614082EA121404F0F014B7
:1002980082EA0412624083EA131404F0F01483EA39
:1002A80004136340704700BF2DE9F14F94464FEAAD
:1002B800930B8A68CB6808684968FFF749FF0BF118
:1002C800060E33E083EA134480EA134582EA1347B3
:1002D80046BA96EA3444604000F00F1684EA0634C1
:1002E80020F00F1684EA161054BA94EA01067240F8
:1002F80002F00F1486EA043622F00F1486EA14126C
:100308004CBA6540694001F00F1485EA043521F0C4
:100318000F1485EA14115CBA67407B4003F00F1490
:1003280087EA043723F00F1487EA1413BCE8F000B7
:100338006040694072407B4000F0E03400F01035C6
:1003480000F00F3040EA540040EAC50080EA90040B
:1003580004F0332480EA8400604001F0E03401F0C6
:10036800103501F00F3141EA540141EAC50181EA33
:10037800910404F0332481EA8401614002F0E034FE
:1003880002F0103502F00F3242EA540242EAC50286
:1003980082EA920404F0332482EA8402624003F081
:1003A800E03403F0103503F00F3343EA540343EA13
:1003B800C50383EA930404F0332483EA8403634087
:1003C80081EA324787EA134581EA354690EA06040E
:1003D80084EA034B82EA1B4280EA044484EA054427
:1003E80083EA144A85EA14448BEA044B84EA3744C6
:1003F80081EA0B4181EA164104EA0A00454082EA93
:1004080004082BEA080041408AEA0B0602EA0600C3
:1004180084EA34438AEA3A4603EA060778404540C4
:10042800414088EA38478BEA3B4007EA000985EAF9
:10043800090583EA0709464006EA0906714085EA84
:10044800010005EA3546464006EA314181EA304175
:1004580081EA364606EA304686EA3546344008EAF6
:10046800010886EA01052A4086EA364003405A40D8
:1004780081EA31431F407C4080EA030709EA070903
:1004880088EA0908544088EA020806EA0A0601EAE6
:100498000B018AEA0B0215408AEA3A4210404540AD
:1004A8008BEA3B4003405E404240174079404D4054
:1004B8004E40E443F64386EA18435D4085EA05402A
:1004C80083EA134386EA034183EA384284EA114304
:1004D80083EA04435FEA3343BEF1010E3FF6F2AE0E
:1004E8001ED4BCE8F0006040694072407B4020BCEC
:1004F800FFF784FE28606960AA60EB60BDE8F08FB2
:100508002DE9E0414FF2F00280EA1031114080EA13
:100518000130484041088208C3084FF0000E4FE7F9
:1005280000F0113001F0113102F0113203F01133F3
:1005380040EA410040EA820040EAC3004FF2F0027C
:1005480080EA1031114080EA01304840BDE8E0817E
:100558002DE9F04F02F11C050646074600EB850819
:1005680051F8040B043A46F8040BF9D14FF0010C8A
:10057800FFF7C6FF5FEA302080EA0C001ECF41403B
:100588004A4053405C401EC62000464517D04FEAFB
:100598004C0C1CF4807F18BFACF1E50C2C2DE7D077
:1005A8003C2D06D1FFF7ACFF06CF41404A4006C6B6
:1005B800100006CF41404A4006C61000D8E736E989
:1005C8000F00FFF7C5FD043D86E80F00F7D1BDE831
:1005D800F08F00BF2DE9F14F03F11C0402EB840CEE
:1005E8004FEA930B8A68CB6808684968FFF7B0FD43
:1005F8003CE9F0006040694072407B400BF1060E18
:100608004EE083EA134480EA134582EA134746BA68
:1006180096EA3444604000F00F1684EA063420F06D
:100628000F1684EA161054BA94EA0106724002F0D2
:100638000F1486EA043622F00F1486EA14124CBA14
:100648006540694001F00F1485EA043521F00F1464
:1006580085EA14115CBA67407B4003F00F1487EAFF
:10066800043723F00F1487EA141344BA44404DBAF0
:100678004D4056BA56405FBA5F4087EA174886EA47
:10068800174B84EA17464FEA38488BEA1B4485EA39
:100698001B4788EA1B4580EA3440694072407B402A
:1006A80000F0703400F0803500F00F3040EA44006C
:1006B80040EAD50080EA900404F0332480EA8400FC
:1006C800604001F0703401F0803501F00F3141EAEB
:1006D800440141EAD50181EA910404F0332481EA16
:1006E8008401614002F0703402F0803502F00F326C
:1006F80042EA440242EAD50282EA920404F0332430
:1007080082EA8402624003F0703403F0803503F01B
:100718000F3343EA440343EAD50383EA930404F01E
:10072800332483EA84036340C943DB4381EA00043A
:1007380083EA044686EA020183EA014382EA3345F2
:1007480083EA14435C4084EA00077FEA040A8AEAE1
:10075800024A8AEA010B87EA11488AEA374A80EA9C
:10076800060181EA1A418AEA030A04EA0A004540B6
:1007780088EA040707EA0B0041408AEA0B0608EA00
:10078800060084EA34428AEA3A4602EA06035840F6
:100798004540414087EA37438BEA3B4003EA00097A
:1007A80085EA090582EA0309464006EA0906714016
:1007B80085EA010005EA3546464006EA314181EA04
:1007C800304181EA364606EA304686EA3546344004
:1007D8000F4086EA010508EA050886EA3640024025
:1007E80088EA020881EA314213405C4080EA020349
:1007F80009EA030987EA0907674088EA040806EA5C
:100808000A0601EA0B018AEA0B0425408AEA3A44FF
:10081800204045408BEA3B4B02EA0B02564084EAF3
:100828000B04234059406E40694087EA364080EA0D
:10083800384080EA060380EA104481EA134585EAD5
:10084800344585EA17427D4082EA354180EA054011
:100858003CE9F0006040694072407B40BEF1010E07
:100868003FF6CFAE20BCFFF7C9FC28606960AA60DC
:10087800EB60BDE8F08F00BFFFF76ABE30B44FF001
:10088800000310F8014B11F8015B013A84EA0504F2
:1008980043EA0403F5D1A3F101034FEAD37030BC56
:1008A800704700BF4FF0000310F8012B013943EAED
:1008B8000203F9D1A3F101034FEAD370704700BFD7
:1008C80030B411F8014B12F8015B6C4000F8014B91
:1008D800013BF6D130BC704753B94AB9002908BF6B
:1008E80000281CBF4FF0FF314FF0FF3000F00CB86C
:1008F800ADF1080C6DE904CE00F01AF8DDF804E05B
:10090800DDE9022304B07047704700BF10F8012BDF
:1009180011F8013B012A28BF9A42F7D0D01A704734
:10092800034613F8012B002AFBD1181A0138704727
:100938002DE9F04786468C460846089E15467446BB
:100948001946002B40F0C1808542B2FA82F245D99F
:100958004AB1C2F1200300FA02FC954094402EFAF5
:1009680003F343EA0C0C4FEA154EA8B2230CBCFB68
:10097800FEF80EFB18CC08FB00F943EA0C43994536
:1009880028D9EB1808F1FF3704D2994502D9A8F104
:1009980002072B44A3EB0903A4B2B3FBFEFC0EFB36
:1009A8001C330CFB00F044EA0344A04214D92C1970
:1009B8000CF1FF3304D2A04202D9ACF102032C445B
:1009C800241A43EA07401EB1D44000233460736000
:1009D800BDE8F0874746DDE76346F1E792BB431B76
:1009E80001214FEA154EAFB2200CB3FBFEFC0EFB03
:1009F8001C330CFB07F840EA0343984561D9EB1810
:100A08000CF1FF3004D2984502D9ACF102002B4416
:100A1800A3EB0803A4B2B3FBFEFC0EFB1C330CFBD8
:100A280007F744EA0344A7424DD92C190CF1FF33C8
:100A380004D2A74202D9ACF102032C44E41B43EAD6
:100A48000040C0E7C2F120039540944020FA03F12A
:100A58002EFA03F34FEA154E9040AFB20343B1FBB1
:100A6800FEFC0EFB1C10190C0CFB07F841EA0041B8
:100A7800884522D969180CF1FF3004D2884502D97B
:100A8800ACF102002944A1EB08019BB2B1FBFEFCCA
:100A98000EFB1C110CFB07F743EA01439F420ED9DA
:100AA800EB180CF1FF3104D29F4202D9ACF10201DC
:100AB8002B44DB1B41EA004193E76046E3E76146CC
:100AC800F7E76046A4E76346B8E7834206D916B954
:100AD800002108467CE7C6E900E0F9E7B3FA83F7A6
:100AE8008FB9834201D3724508D8BEEB020460EB8C
:100AF800030301209C461EB9002169E73846FAE73E
:100B0800C6E9004CF8E7C7F1200CBB400EFA07F520
:100B180022FA0CF42EFA0CF1BA401C4320FA0CF31A
:100B2800B8404FEA144901431FFA84FEB3FBF9F8B1
:100B380009FB18300B0C08FB0EFA43EA00439A45F0
:100B480040D9E31808F1FF3004D29A4502D9A8F138
:100B580002002344A3EB0A0389B2B3FBF9F809FBAB
:100B6800183308FB0EFE41EA03418E452CD9611863
:100B780008F1FF3304D28E4502D9A8F102032144BB
:100B880043EA0040A1EB0E01A0FB02984145CE4686
:100B9800434602D306D14D4504D20138B9EB020EC3
:100BA80068EB0403002EA7D0B5EB0E0261EB03013E
:100BB80001FA0CFC22FA07F3F9404CEA0303C6E9F0
:100BC800003199E74046C5E74346D9E700000000F1
:100BD8002DE9F04F824617461C4600259FB0039129
:100BE800387810B9284600F0A9BD252809D00399FE
:100BF800D0470028C0F2A2857B1C01350593059FCC
:100C0800EEE71822002110A81CF072FD7B78252B36
:100C180000F0BC80002398469E469C461846791CE6
:100C28000E4611F8012B2B2A00F0E38000F2DA803F
:100C3800202A00F0E180232A00F0E1802BB19DF802
:100C4800483043F040038DF84830B8F1000F05D024
:100C58009DF8483043F020038DF84830BEF1000F6E
:100C680005D09DF8483043F010038DF84830BCF1AA
:100C7800000F05D09DF8483043F008038DF8483040
:100C880028B19DF8483043F004038DF848309DF8AA
:100C9800483003F04401442903D16FF386138DF8DB
:100CA80048309DF848302A2A43F080030E968DF884
:100CB800483040F0A9809DF8493043F001038DF891
:100CC8004930731C1A782E2A0CBF012100219DF887
:100CD800492061F341028DF849200CD15A1C0E922B
:100CE8005A782A2A40F0A0809DF84920023342F021
:100CF80004028DF849201A786C2A00F0C18000F2AD
:100D0800A380682A00F0A9806A2A00F0C2804C2AD1
:100D180000F0C78013F8012B782A05938DF84B2033
:100D280000F209816D2A00F2C980692A00F2038164
:100D3800572A00F2E280412A04D0A2F14503022B8F
:100D480000F2F98004219DF84A3002F0DF02A2F196
:100D5800410961F30203D9F100029DF8491042EB01
:100D6800090262F3C7110A068DF84A308DF8491056
:100D7800CBB200F11F8103F07802182A40F00981F4
:100D88006FF3C6038DF849300023F8E08DF84B3037
:100D9800BB1C05939DF849309DF84A20DE0702F0F8
:100DA800070040F1098154F8041B0029049108DA6E
:100DB8009DF8481041F004018DF848100499494203
:100DC8000491590740F1008154F8046B002E80F219
:100DD800FF809DF849306FF341038DF849304FF09B
:100DE800FF36F5E02D2A0DD0302A7FF427AF0123F6
:100DF80016E74FF0010C13E74FF0010E10E74FF024
:100E080001080DE701200BE70EA801F05BFA0E9B25
:100E1800B3423FF457AF9DF848201390C00F60F3DA
:100E280041028DF848204DE70EA801F04BFA9DF8D5
:100E380048301490C3F3400242EAD07262F341038F
:100E48008DF848300E9B56E7742A26D07A2A7FF40C
:100E580061AF06219DF849200CE05A78682A9DF870
:100E6800492006D1012161F3C6028DF849200233D9
:100E780050E7022161F3C6028DF84920013349E7A2
:100E88005A786C2A9DF8492001D10421EBE7032107
:100E9800F0E705219DF84920ECE707219DF8492056
:100EA800E8E7BDF8482022F4F04222F0020242F4BA
:100EB800804242F00202ADF84820DFE76E3AD3B232
:100EC80001229A4040F282431A429DF8493039D1B2
:100ED80012F0240F61D1D1072DD503219DF84A20A6
:100EE80003F07803A3F1400861F30202D8F100038C
:100EF8008DF84A2043EB080341E00120A2F1580194
:100F0800C9B200FA01F111F4624F7FF41BAF40F649
:100F1800010319429DF849301AD111F4043F0AD04F
:100F28009DF84A2060F3020203F07803402B8DF805
:100F38004A207FF429AF9DF8483043F001038DF82B
:100F4800483021E702219DF84A2061F30202EBE7CD
:100F580002209DF84A1003F0780360F30201402B49
:100F68008DF84A1002BF9DF8481041F001018DF834
:100F78004810632A7FF408AF003B18BF01239DF88F
:100F88004820C2F340010B4363F341028DF8482027
:100F980000E713F0380FCED1F6E603219DF84A207A
:100FA80013F0780F61F3020214BF012300238DF8B8
:100FB8004A20E4E70123E2E79DF948100029ACBF85
:100FC8004FF0FF311399FBE69E077FF508AF149E9B
:100FD80000230428CDE913339DF8493007D1990738
:100FE80005D49DF949100029ACBF06260D2602F04C
:100FF8000702012AC3F3C30332D1DA1E042A04D834
:10100800DFE802F02045452020002268012B4FEA46
:10101800E271CDE910211BD19DF94020D117CDE90E
:10102800102104349DF84820069292074FD03A4682
:101038005046059B039916F0F6FC0028C0F27E8303
:101048000544DCE554F8042BD117CDE91021E9E774
:10105800022BE6D111B242F3C032CDE91012E0E71B
:10106800022A24D1DA1E042A04D8DFE802F0181074
:1010780010181800012B4FF0000154F8042B14D05D
:10108800022BCDE91021CDD192B21092CAE70734D4
:1010980024F00704F4E80201CDE91001C2E754F88E
:1010A800042B109200221192BCE7D2B2CDE7042A99
:1010B80008D1073424F00704D4E900010834CDE945
:1010C8001001AFE7032AADD154F8042BDDE79DF8F2
:1010D8004B80B8F1780F3FF692ADB8F1570F5CD856
:1010E800B8F1250F00F0A480B8F1240F7FF687AD82
:1010F800B8F1410F04D0A8F14503022B3FF67FADAC
:10110800DDE91023002BC0F24D810699080700F194
:101118004C81C1F300194FEA4919C3F30A51C3F3CB
:101128001303002940F0448152EA030014BF4FF032
:10113800010C4FF0000CD80240EA5250D702CDE91A
:101148000C70B8F1460F47EA010740EAE17008BFA2
:101158004FF06608384300F0B781BCF1000F10D09B
:101168001B0343EA125317033A4618464FF0000C84
:10117800002880F25681BCF1000F40F05981CDE97A
:101188000C730D9BA1F2FE3B43F000430D9300212D
:10119800DDE90C230F46052060E1A8F15802202A5A
:1011A8003FF62DAD01A151F822F000BF7F130000DA
:1011B800070C0000070C0000070C0000070C0000DB
:1011C800070C0000070C0000070C0000070C0000CB
:1011D80009110000070C00002B1300003F1300004A
:1011E800091100000911000009110000070C000096
:1011F8003F130000070C0000070C0000070C00005C
:10120800070C0000851300007F130000CF120000B8
:10121800070C0000070C000049120000070C000032
:101228007F130000070C0000070C00007F1300006C
:1012380040460399D0470028C0F280820135DEE499
:10124800002E109F3BDB314638461CF086FA002FF3
:101258003FF4D5AC4FF000093E18F31B9DF84A2027
:1012680012F01001069100F05E82023312F0400283
:10127800DDF84C80089218BF149A434418BF9B1895
:10128800049ACDF81C80002A40F36882D31A9DF88E
:10129800482004935007C2F3800B00F15F82510687
:1012A80040F14F82B9F1000F07D048460399D04763
:1012B8000028C0F24382D9460135302242E238463E
:1012C800FFF72EFBC6E71098002800F027820DF1E3
:1012D80075030093002117AB12AA01F009F84FF02B
:1012E80000090746BDF84A3003F0EF0343F4F04322
:1012F80043F01003ADF84A30002E0CDB9DF848206F
:101308000DF17503DB1B6FF386129E428DF84820A2
:1013180001D9F31A1393002F3FF471AC0DF1750640
:101328006DE0109B4FF000098DF85C300DF15D0603
:10133800012317AF92E7069B1F0754BFC3F3001999
:101348004FF02B09DDE9102358BF4FEA4919002B4C
:1013580006DA4FF02D09524263EB4303CDE910231F
:10136800DDE910010DF17503009312AA17AB00F027
:10137800BFFF0746C0E74FF00009F1E7109A072BB7
:101388003FF63DACDFE803F00C04060C08080C0C33
:10139800157034E4158032E4EB17C2E900532EE4EB
:1013A80015602CE44FF02D09B7E64FF02B09B4E691
:1013B80040F2FF70814231D1A34908F101085FFA78
:1013C80088F811F80810134301F003011ED1012910
:1013D8000BBF492369234E216E210CBF462266228A
:1013E8008DF85C309DF848308DF85D106FF38613EA
:1013F8008DF85E208DF848300DF15F0617AFF31BAE
:10140800B9F1000F3FF42AAF013327E7012915BFCF
:101418006E234E23612141211A46E1E74FF0000C6B
:1014280089E692184FF0010C01F1FF3140419FE627
:10143800CDE90C20A5E6520842EAC3725B08B3F175
:10144800333F59460BF1010BF5D201F1020B012193
:1014580000FB03FCA2FB0023013F63441BF1020FC6
:10146800E9DB09B1CDE90C23DDE90C32BBF1000F52
:101478002DDCCBF10401A1F120000BF11C0B02FAC9
:101488000BFB22FA00F0CA40CB40079208F0DF02BB
:1014980043EA0B03472A43EA00037BD1F91C01DB2B
:1014A800BE422ADAA8F10208002E5FFA88F87ADD2F
:1014B8009DF84820013E920675D4B6F1000B18BF7E
:1014C8004FF0010B721C26E04FF0000B5FE6023371
:1014D80042F100020CA80BF1FF3B0137CDE90C32B9
:1014E80016F072FADDE90C32DB185241002A0BF1D2
:1014F800FF3BF9DACDE90C32B6E79DF84820F61B38
:1015080090064DD4B6F1000B18BF4FF0010BF2193D
:101518004FF066084AD4102AA8BF10229FED487BD6
:1015280010208DED0E7B0B90DDE90E01002A3FD1D6
:10153800079A1B1842EB0101B1F1805F47D2CDE950
:101548000C31069BB8F1660F03F0200240F0C6800C
:10155800002F47DC30238DF85C30002A76D1002E2E
:1015680040F3BD812E238DF85D3087B17B42B342B5
:10157800A8BF3346002B1393A6EB0306D4BF002362
:1015880001239DF84A2063F345128DF84A200DF196
:101598005E0340E0B8F1660F4FF0000BB7D091E75B
:1015A8004FF0000BB3E74FF0000B8BE70022B5E7D5
:1015B800400840EAC1704908CDE90E010EA8CDE9FE
:1015C800082316F001FA089A099B013AACE75B0870
:1015D80043EAC1730CA84908CDE90C31013716F06C
:1015E800F3F9AEE717AB0B9900290BDD0BA90CA893
:1015F800CDE9063216F000FA069B013F079A03F878
:10160800010BF0D11397AAB9002E40F366812E2161
:1016180003F8011B0027002E21DD0B9A002A1EDD8E
:101628000BA90CA8069316F0E7F9069B013E03F8F0
:10163800010BF0E72E2203F8012BEBE7AFF3008054
:101648000000000000000008A41D02002E238DF8F1
:101658005D30002F9BD0002E88DC0DF15E03BBF1BE
:10166800000F4FD114961E4608F0DF03452B24D1F6
:10167800002FBABF7F422D232B23632FC8BF6422BC
:101688007370C4BFB7FBF2F302FB13774FF00A0283
:10169800C8BF03F13001B7FBF2F3C8BFB17003F163
:1016A800300102FB137386F8008003F13003D4BFC6
:1016B80002360336317073700236139B002B2BDC15
:1016C800149B002BD4BF002301239DF84A2063F309
:1016D800861200238DF84A2033708FE60BA90CA8D8
:1016E800069216F089F9069A30288DF85C0018BF22
:1016F80007F1FF3712B9002E40F3F1802E238DF841
:101708005D3044E71E4616F8012C013B302AF9D01B
:101718002E2A08BF1E46A7E70123D6E7714E814649
:101728000523771F9AE5110748BF01339EE5104648
:1017380009920399D0470028099A05DA1FB0BDE835
:10174800F08F2022DDF810B0594600290BF1FF3B3D
:10175800EDDC049BCDF810B02B445D1AB9F1000FF5
:1017680005D048460399D0470028E7DB0135089B98
:10177800002B77D09DF94930002B28DB3B46DFF85A
:10178800689118789B4619F80020013352073FD416
:101798009DF84A30EF1B98065F4407D44246002A5A
:1017A80008F1FF383BDC079B3B449F1A9BF800007D
:1017B8002E280AD10399D0470028BFDBB8F1000FC3
:1017C80007F1010731DC0BF1010B5D4638E0B94642
:1017D80099F80000C846702809F1010913D1EF1BD8
:1017E800149D47443D44EB1B002B33DC33464246F3
:1017F8005046039916F017F900289FDB3844049ED9
:101808000546064464E00399D0470028E0DA95E7E6
:1018180006930399D0470028069BB2DA8EE730205A
:101828000399D0470028B9DA88E730200399D047D0
:1018380008F1FF38C0E70399D0470028FFF67EAFCC
:101848002878A84619F8003001355907F3D4A7EBD2
:101858000B07C5E730200399D0470028FFF66EAF85
:101868000137C0E79DF84A30DA0601D41B0706D5D0
:1018780030200399D0470028FFF660AF0135069B5A
:101888003BB103999DF84B00D0470028FFF656AFAF
:101898000135A84406E030200399D0470028FFF618
:1018A8004DAF0135A8EB0503002BF4DC33463A466F
:1018B8005046039916F0B7F80028FFF63FAF2844C2
:1018C8009DE720200399D0470028FFF637AF013560
:1018D800731B002BF5DCFFF792B91746BFE60DF135
:1018E8005D03BCE6D1EA0100A51D020008B5002091
:1018F8001AF0A1F9002000F0ADFB0022024B1A708B
:101908001722024B1A8008BD98350020E8050020F0
:1019180008B5084B1B7863B915F025FE064B1B6804
:10192800C01A064B80B218800548BDE808400EF082
:1019380085BE08BD99350020441800208834002051
:10194800F007002038B504460D46C9B900F09EFBE3
:10195800012802D128461AF06BF90025204600F02C
:1019680079FB1722074B08491D70084B20461A803F
:1019780009F09CF815F0F7FD054B1860054B1D8024
:1019880038BD00BF98350020BC010020E8050020C4
:10199800441800208A34002008B551B919F0C8F954
:1019A800044B18801B889BB2F52B82BF0122024B87
:1019B8001A7008BDE8050020983500202DE9F04789
:1019C8006E4F4FF0FF334FF0FF326D480EF0BAFE06
:1019D80000F032FB6B4D6C4B18B91B889BB22B8007
:1019E800EFE76A4A1278002AF7D01C882B88E41A95
:1019F800A4B2B4F5846F29D300F048FB2B2410B9A6
:101A08000122634B1A700026DFF8B88100F014FB3E
:101A180000287ED098F800303B70EFF3118920231E
:101A280083F31288BFF36F8F5A4811F077F8A8B97B
:101A38008823594A59495A4816F015F855495948BA
:101A480016F011F88821544816F004F8172CB8D964
:101A58001823B4FBF3F400F019FBD0E74D4811F05C
:101A680081F800204FF00A0E06EB4601C900434AF0
:101A7800DFF854C189B22B880A3211FA83F3034480
:101A8800C3F309030EFB03F30CEB030A5CF8033002
:101A9800013042F8093CDAF80430182842F8053CCD
:101AA800BAF8083022F8013CE5D13A4811F044F878
:101AB80068B94FF49A73384A3B49394815F0D3FF4F
:101AC80034493A4815F0CFFF4FF49A71BBE789F3D0
:101AD8001188BFF36F8FF12239464FF6FF7019F066
:101AE800C8FA3946A7F8F100002000F07FFA00286C
:101AF80042D12F4A13680133136000F0C7FA18B9AE
:101B08004220002115F03CFD0136B3B2A342FFF498
:101B18007DAF00221E4B1A70EFF31186202383F34A
:101B28001288BFF36F8F1B4810F0F8FF00283FF4AE
:101B38007FAF184811F016F82B8804EB440403EB28
:101B4800C4039BB213482B8010F0F6FF0028B0D0D6
:101B580086F31188BFF36F8F15F005FD154B164AF4
:101B6800186098F80030013388F8003013680133A2
:101B78001360124B1B6824E7114ABBE7A534002009
:101B8800C00700208C3400208E34002098350020B7
:101B98009935002048180020E4E7010011E8010009
:101BA80026E8010043E8010059E8010070E8010057
:101BB8003418002044180020381800203C18002051
:101BC80030180020A43400209A3500202DE9F04375
:101BD800DFF880814F4F504C8BB0504E4FF0FF32A2
:101BE8004FF0FF3340460EF0ADFD3D882388328824
:101BF800ADB29B1A9BB2B3F5806F04D3484A136801
:101C080001331360E9E7474B18683B238DF8073029
:101C18000DF1070304930123059300238DF8183071
:101C280002AB07930623089307238DF824309DF809
:101C38002430826843F002038DF82430D2F80890EB
:101C48006823022204A9C8470028C6DBEFF31189DC
:101C5800202383F31288BFF36F8F334810F05EFFA1
:101C680068B98823314A3249324815F0FCFE2E49BA
:101C7800314815F0F8FE88212C4815F0EBFE2A486B
:101C880010F070FF0A2123882C4AC3F309034B4341
:101C9800B2F800C02A48C11820F803C0BDF80830BF
:101CA8004D805BBA8B80BDF80A301F485BBACB8089
:101CB800BDF80C305BBA0B81238801339BB22380BB
:101CC800138801339BB213801E4A25881368013399
:101CD80013603388ED1AADB210F02EFF68B94FF4D7
:101CE8009A73124A1849134815F0BDFE0E49174851
:101CF80015F0B9FE4FF49A71BEE789F31188BFF366
:101D08006F8FB5F5806FFFF468AF11480EF096FC41
:101D180063E700BF883400208E3400208C34002014
:101D28003C1800204C18002048180020E4E7010067
:101D380011E8010026E8010043E801008A34002088
:101D48009A3500204018002059E8010070E8010089
:101D5800C0070020F00700201FB53C4C3C4820601D
:101D68001AF050FF00286CD06B23206803A9ADF847
:101D78000C3015F007FC002865DB40F6CD4000214B
:101D880015F0FEFB1923206803A9ADF80C3015F0F7
:101D9800F9FB002857DB40F21A33206803A9ADF895
:101DA8000C3015F0EFFB00284DDB41F61C032068D2
:101DB80003A9ADF80C3015F0E5FB002843DB0AF069
:101DC80001FC002004F0F0FB00283CD116F021FDB6
:101DD80000F0CAF8B8BB0123022200931D491E4B2C
:101DE8001E4804F0DDFF70BB15F0BDFB1C4B212223
:101DF800186000231B48CDE9002311F03FFA4FF487
:101E0800A02200231848CDE9002311F037FA00F08A
:101E18003DF90128044611D101460AF0EBFB4FF4C5
:101E28008040002115F0ACFB002120460AF0E2FBBF
:101E38004FF48040002115F0A3FBE8E74FF4004081
:101E4800F8E76FF0120004B010BD00BF4C18002076
:101E580084D9010070DE010068DE0100A8010020BD
:101E68004418002070060020380600204B1E5942F6
:101E78005941014B197070479D5D00204B1E594216
:101E88005941014B197070479C5D0020012B0DD101
:101E98001378012B05D1074A12781AB96FF002009E
:101EA80070470023044A0120137070476FF00C003C
:101EB800704700BF9A5D00209B5D002010B5084C5C
:101EC80086B024788DF81740012402940DF1170488
:101ED8000194BDF82040009418F0B3FE06B010BD80
:101EE8009B5D00201FB522240294044C0194BDF888
:101EF8001840009418F0A5FE04B010BDFD050020A0
:101F08001FB502240294044C0194BDF818400094B3
:101F180018F097FE04B010BDEA0500202DE9FF4136
:101F280005460E46174698461AF0DFFF4FF47A72B8
:101F38008C46A0FB024302FB0C33E40B44EA434407
:101F4800042308493A460C60CDE90113BDF828304E
:101F5800314600932846434618F073FE04B0BDE8A6
:101F6800F08100BF50180020F0B58BB06C462246B7
:101F7800194B03F11006254618685968083303C53C
:101F8800B3422C46F7D11B780D212B70134808F06B
:101F98003DF905AC2246124E124B306003F1100792
:101FA800254618685968083303C5BB422C46F7D143
:101FB8001B780D212B70094808F028F90A4B186086
:101FC800336833B1002814BF00206FF015000BB040
:101FD800F0BD6FF01500FAE73CDE010080DE01007D
:101FE800581800204DDE01005418002070B50F4B22
:101FF80004461B780D4686B0ABB110B90C4B1C6873
:102008008CB10C4B0021182268461E681BF070FB2F
:10201800F32369462046CDE90165ADF80C3008F098
:1020280029FC06B070BD6FF07F00FAE79D5D0020C7
:102038005C18002058180020044B187820B1044B75
:102048001868003818BF0120704700BF9D5D002048
:102058005C18002038B50A4D0446286808B105F018
:1020680005FA34B92C600023064A1370064A137027
:1020780005E0204605F0D2F928600028F3D038BDE5
:102088005C1800209D5D00209C5D0020014B1878A5
:10209800704700BF9B5D0020F8B50F4600293BD074
:1020A80006680122304615F0B9FA01460446304662
:1020B80015F07CFAC3070DD4AF23184A18491948FC
:1020C80015F0D1FC3946184815F0CDFCAF2113485E
:1020D80015F0C0FC2146304615F07EFA2518294631
:1020E8000022304615F062FA2D1AAC420BD0B72305
:1020F8000A4A0E490B4815F0B6FC39460C4815F04B
:10210800B2FCB721E3E72146304615F06BFA2146C9
:10211800BDE8F84015F0A0BBF8BD00BF70E90100AC
:1021280093E9010026E80100A4E90100DCE90100C7
:1021380002EA0100B2F5802F2DE9F04110D2042AFD
:1021480028D8454940F21A23444A454815F08BFCE3
:10215800444815F088FC40F21A21404815F07AFCF2
:102168000823D21ACC1D114424F0070421F00701DA
:10217800091B17294FEAD1060ED83B4940F2232301
:10218800364A374815F06FFC364815F06CFC40F2BB
:102198002321E2E70423E4E70025046031462046D2
:1021A800A660E56015F044FAB6F5004F2CBF082389
:1021B8000423421D92000833D11DDB0803EBD10331
:1021C800B3424FEAD10739D801302946A2F11002AB
:1021D80004F11000B8BF2A461BF08AFA3A4629468D
:1021E800204615F017FA2B462A462946204615F0B0
:1021F800E8F9A6EB070820462946012215F0F2F96E
:102208004246394615F006FA3B462A4639462046E4
:1022180015F0D7F93146204615F0FCF943462A4611
:102228003146204615F0CDF931462046012215F0F9
:10223800D9F93946BDE8F04115F0CCBA0B494FF44D
:102248000E73064A064815F00EFC064815F00BFCFE
:102258004FF40E7181E700BF3EEA010070E901000A
:1022680026E801005FEA010078EA0100A1EA01001E
:10227800014B1B68184700BF1802002007B50B4622
:102288000021024600910348FEF7A2FC03B05DF866
:1022980004FB00BF7922000030B5002587B0CDE9E6
:1022A80003010446009503A905480595FEF790FC2F
:1022B800DDE904309842B8BF255407B030BD00BFEF
:1022C80065790100F0B5024601680A270020074E2B
:1022D8000B461C780131355D6D0701D41360F0BDE4
:1022E80007FB0043A3F13000F2E700BFA51D020081
:1022F8002DE9F84F15469A46D378234A6F2B12F8E2
:1023080003B081460F460BF0030B2BD026D8582B71
:102318000CBF10260A26DDF82880324600234846DE
:102328003946FEF7D9FA092A08F1FF38D4B21ED87F
:102338003034B145E4B277F1000788F8004001D3A2
:10234800D04511D82B789B0605D5082E15D1AB782A
:1023580043F00803AB704046BDE8F88F03F0F7037D
:10236800702BD5E70826D6E781460F46D5E7BBF19F
:10237800010F0CBF37345734DBE7102EEBD1AB78A5
:1023880043F01003E6E700BFA51D02002DE9F84F52
:102398000446A38B08461907154612D4022803F0F1
:1023A800070165D1204615F0E4FB88B101380428FF
:1023B80000F23781DFE810F05C0035018200D400BC
:1023C800040101280CBF43F0100143F02001A18350
:1023D8001434204610F0B0FB002840F09D819A4943
:1023E8004FF49A73994A9A4815F03DFB2146B1E09B
:1023F80003F00702501F01281ED80020062A27686C
:10240800C4E9000014D13A4603E0E08B0130E083D0
:102418001268002AF9D123F0070343F0020220468C
:10242800A28315F0A6FB90B342F02002A2832EE00F
:1024380023F007039AB2F2E7042A33D123F0070303
:102448009AB22046A28315F094FB10B142F0200204
:10245800A283A38B03F00709894540F0EC80A18B88
:10246800CA0640F1508121F01003A38301F007014F
:10247800D4F81880A38BB8F1000FB9DA00222768C6
:1024880023F00703C4E9002243F00103A383A38BCD
:1024980003F00709894540F0CF80002FDFD00026E0
:1024A800B24644E06B4940F21B136B4A684815F08A
:1024B800DAFA40F21B11684815F0CCFA49B16749BD
:1024C8004FF4AB73644A624815F0CDFA4FF4AB7120
:1024D800F1E723684BB9624940F257135E4A5C48FA
:1024E80015F0C1FA40F25711E5E723691E684EB9A5
:1024F8005C494FF4AD73584A554815F0B4FA4FF497
:10250800AD71D8E70F4688464FF00609A38B23F034
:10251800070343F006039BB2A383A268002A40F096
:102528008D80002F40F08D80002E98D0BA4643F061
:10253800080304F1140B5846A38310F0FDFA002891
:1025480040F09A8040494FF49A73404A404815F049
:102558008AFA5946444815F086FA4FF49A71ADE064
:10256800022909D0414940F25D133B4A384815F029
:102578007AFA40F25D119EE7E78B4FB13C494FF480
:10258800AF73354A324815F06EFA4FF4AF7192E7DF
:1025980023695E684EB9334940F261132E4A2C48CC
:1025A80015F061FA40F2611185E7A38BB84623F074
:1025B800070343F004039BB24FF00409A383ACE77D
:1025C800012909D02B494FF4B273234A204815F04A
:1025D8004AFA4FF4B2716EE723684BB9204940F2CA
:1025E80065131D4A1A4815F03EFA40F2651162E774
:1025F80023699E684EB91B494FF4B473164A1448B0
:1026080015F031FA4FF4B47155E70027A38BB8469B
:1026180023F0070343F005039BB24FF00509A3839A
:102628007BE70C4940F26B130B4A094815F01BFA7B
:1026380040F26B113FE7002700266EE74FF0010AD2
:1026480075E7924673E700BF59E80100E4E7010027
:1026580026E80100F8100200D2EA0100F7EA0100BA
:1026680003EB010026EB010070E801003DEB0100DF
:1026780053EB010062EB010085F31188BFF36F8F04
:10268800BAF1000F1CD177BB16B120462549B047D7
:10269800EFF31185202383F31288BFF36F8F584619
:1026A80010F03CFA38BB88231F4A2049204815F00F
:1026B800DAF959461F4815F0D6F988211A48FBE679
:1026C800A1680029DFD00D680029DCD043464A46BE
:1026D8002046D1F804A0D0471DB12B6829461D46D5
:1026E800F2E72B46FAE7394643464A4620463F6812
:1026F80015F06BFAC7E7584610F034FAA38B23F0AD
:102708000803A383ABE68B067FF562AE21F02003B6
:10271800A38301F0070145E685F31188BFF36F8FA6
:10272800BDE8F88F41270000E4E7010011E8010047
:1027380026E8010043E80100F8B504460D4600F11B
:102748001406EFF31187202383F31288BFF36F8FEA
:10275800304610F0E3F968B988230C4A0C490D4853
:1027680015F081F931460C4815F07DF988210748A4
:1027780015F070F9304610F0F5F9A5613A46204693
:10278800BDE8F8400121FFF701BE00BFE4E7010002
:1027980011E8010026E8010043E801002DE9F047AF
:1027A80004460F4615F001FA051E68DB04F114090A
:1027B800EFF3118A202383F31288BFF36F8F484603
:1027C80010F0ACF9804660B98823384A384939484E
:1027D80015F049F94946384815F045F98821334834
:1027E80042E0484610F0BEF94FF6FF72E38BA68B25
:1027F800934206F0070645D0022E15D1354601331F
:10280800E383484610F098F9002841D14FF49A73B1
:10281800264A2A49274815F026F94946284815F036
:1028280022F94FF49A71DAE7062E13D8DFE806F09A
:10283800092D1212090409006FF085054FF00008F0
:10284800DFE700233B60636883B9C4E9007786B19A
:102858003546F3E71B4917484FF4E4731A4A15F055
:1028680002F94FF4E471184815F0F4F81F60676036
:10287800EDE7524602212046FFF788FD35462846F7
:10288800BDE8F0876FF00A05D8E76FF00405D5E7D3
:102898008AF31188BFF36F8FB8F1000FEFD00023D0
:1028A80032463946204615F090F9E8E7E4E701009A
:1028B80011E8010026E8010043E8010059E8010099
:1028C80070E8010062EB0100D2EA0100F8B50546A4
:1028D80000F11406EFF31187202383F31288BFF366
:1028E8006F8F304610F01AF960B98823254A2649B7
:1028F800264815F0B8F83146254815F0B4F888216F
:1029080020482BE0304610F02DF9AC8B04F007047A
:10291800022C17D0012C0CBF6FF004046FF0850453
:10292800304610F009F938BB4FF49A73154A194923
:10293800164815F098F83146174815F094F84FF4F2
:102948009A71DDE7EB8B5BB91449104840F2EF133D
:10295800134A15F088F840F2EF11114815F07AF88B
:10296800013B9BB2EB83002BDAD13A46214628463D
:10297800FFF70CFD2046F8BD87F31188BFF36F8F72
:10298800F8E700BFE4E7010011E8010026E80100CC
:1029980043E8010059E8010070E8010078EB010004
:1029A800D2EA010008B54268034602F00302022A8F
:1029B80081600AD0032A4FF0000103D0012A0AD10E
:1029C800596006E01868596008BD186800225A6006
:1029D80058B90020F8E7064906484523064A15F085
:1029E80042F84521044815F035F810F00DFDF0E7E0
:1029F800F810020026E8010086EB01002DE9F743F4
:102A08000F4606460821C06A15F085F980463C68DD
:102A1800DFF84890241A3C6004EA0905AC4203D860
:102A2800002003B0BDE8F08308236A4621463046FB
:102A380015F009F90028F4D16946304615F075F902
:102A480040B1BDF80230BDF8042005EA0905134479
:102A58001D443C60A4EB0804E0E700BF0000FFFF52
:102A680073B504464FF6FF72C06A082115F053F992
:102A7800002563680F4EADF800208DF80620E26847
:102A8800191833401344181A60606846ADF80210EC
:102A9800ADF8045015F036F96946204615F005FAE8
:102AA8002046211D15F008F9284663683340A360C5
:102AB80002B070BD0000FFFF2DE9F047044688B062
:102AC80000F1140738461AF0EFF8A06A8368DB684B
:102AD8009847E06228B96FF01505284608B0BDE8A8
:102AE800F087A06A8368DB6898470368013B1F2B5F
:102AF800F1D8E368B3F5803FEDD8A06A216805AA4C
:102B080018F0B9FB0028E6D1E568002DE3D0069B54
:102B1800B5FBF3F203FB1255002DDCD1238A012B00
:102B2800D9D9E36A009593F805904FF0FF334FF039
:102B3800FF3238460DF06CFA0821E06A15F0EBF820
:102B4800A8460646238A1FFA85FA534508D8238AD9
:102B5800434523D138460DF02BFB6FF02C05BCE71D
:102B6800E1682B04891B13FA81F14A4608232046A1
:102B7800009115F076F878B16946204615F09CF872
:102B880008F1010808234A46204600991FFA88F8E8
:102B980015F067F80028DAD00135D3E79A450BD14C
:102BA800009908234A462046891B15F05AF818B997
:102BB8006946204615F080F869462046FFF71EFF53
:102BC800054618B138460DF0F3FA86E7009B4FEA40
:102BD80013484FEA08486360C4F80880D4E9011331
:102BE80099420FD30823204601AA15F02CF8054670
:102BF8000028E7D101AB13F8012B914533D10135FA
:102C0800082DF8D1636869461B0C1B042046009305
:102C180015F052F84A462046E368009915F021F865
:102C2800051ECFDB636876D04FF6FF7906EB030805
:102C3800E3681FFA88F29B1B9A42CDF800802ED3D6
:102C480000236168002B43D0090C09042046009139
:102C5800694615F031F82046009915F03AF805460E
:102C6800002D74D0AEE7204601A915F05EF8626821
:102C780010B9921B6260B1E7BDF80850BDF80610A4
:102C8800E06AC4F80880294415F045F840449042A9
:102C9800A060EED1002DECD06FF01C0568E0082391
:102CA8004146204603AA14F0CEFF0546002889D1E4
:102CB800204603A915F039F830B1BDF80C304B4562
:102CC80002D1BDF810300BB1B044B1E70123B8E729
:102CD800204614F0FEFF054600287FF473AF6368B2
:102CE800264AE16813400B44A3EB46036360134094
:102CF8002046A36015F001F9B1E74A4620465B1A61
:102D080014F0AFFF051EFFF65DAF08D0E26AA368B6
:102D180012681344A360D4E901318B42EDD861688D
:102D2800E36801EB46029A429AD1DFF85080A26824
:102D380001EA08039A4293D0204614F0CAFF0546D8
:102D480000287FF43FAF636803EA0803A360E368E1
:102D5800A288A3EB46039A4206D038460DF028FA1B
:102D680001230025A374B8E6204615F0AFF8054600
:102D780038460DF01DFA002DF2D0AEE60000FFFF38
:102D8800034A13680BB9526813600020704700BFEC
:102D98001C02002030B50C460E4985B00291D0F8CF
:102DA800D4110546CDE9003100F1F0014FF0FF33B1
:102DB80020460CF093F950B9012384F86C30D5F80B
:102DC800D03123B1204605B0BDE83040184705B0E2
:102DD80030BD00BFBF84010038B50C46114605461A
:102DE80015F06BFB034638B92846044915F065FB16
:102DF80003460020236038BD0120FBE7541202007F
:102E08002DE9F04F012381460569466891B005F523
:102E18007B77D7E8EF2F002A03D1C7E8E13F0029E5
:102E2800F7D10CBF1A46002240F0BD80B368B16AE2
:102E380005F5F8781C1F104615F0C6FB84427BD8B0
:102E4800013A00F0AA80B2FA82F24FF00044D4406E
:102E580072682046073222F00302C5F83C22B16AA4
:102E680015F0B2FBC5F84002B36A4046634303332A
:102E780023F0030302EB4302230103EB440309336A
:102E880023F0030303EBC403C5F834221A440832C1
:102E9800C5F830227368C5F83842C5F82C32434B60
:102EA800C5E9AD63316800F0F3F90446002841D163
:102EB800D9F810B0D9F804A0D9F800300BF5347956
:102EC800CDE9060005934846DAE90734012B08BF27
:102ED800103C0EF067F8DAF82400354905AB00938A
:102EE80001EB8021234648464FF480620EF074F8C7
:102EF8002021DAF824302F4A0DEB010014F04DFDA3
:102F080008A948460EF098FB2B490BF530700DF0D8
:102F18008DFEDAE9050183685C684CB15B46274A97
:102F2800A047044630B9DAE9050183681B692BB963
:102F38006FF05704002129E001327CE7012298470D
:102F480004460028F6D11E4B2846C5F8D0311D4B43
:102F5800C5F8D4311C4B0393D5F840320293D5F809
:102F68003C32CDE9008305F51173B26AD5F8E81350
:102F780000F056F904460028DCD105F1F0000CF009
:102F880053F90028C5F8F0030ADB0221384615F08A
:102F9800C8FA204611B0BDE8F08F6FF00B04C9E7FE
:102FA8006FF01504C6E76FF07704F2E715850100A6
:102FB800B86B0020ACEB0100FB840100EF8401003A
:102FC800D52F0000A78601005B85010013B50446D4
:102FD80040B100230122CDE90032074BD0E90912A4
:102FE8000CF050F8236F1B6823B1606F02B0BDE886
:102FF8001040184702B010BD5412020013B5044621
:103008000846216901F57B71D1E8AF1F022910D16B
:1030180093B1A0B10121CDE900311346D0E90912DD
:103028000CF030F8074B984208BF6FF00B0002B065
:1030380010BD6FF00F00FAE76FF04C00F7E76FF084
:103048000100F4E72EF8FFFF2DE9F34789461546FE
:10305800066906F57B73D3E8AF3F022B64D113688A
:1030680023B96FF0150002B0BDE8F0871B78002B7C
:10307800F7D0D6F8E8A3BAF1000F36D106F5EC7709
:103088004FF0FF324FF0FF3338460CF0C1FF3046A7
:103098002A6801A9FFF7A0FE019C80461CB93846A2
:1030A80015F03DFADDE705F108032367AB6984F8FD
:1030B8006CA06367646460B1384615F030FA214645
:1030C8003046A36E2A68FFF765FE0020C9F8004065
:1030D800C9E71F22296804F148001AF02BFB38467B
:1030E80084F8678015F01BFAEFE73046104915F0B1
:1030F800E4F904460028B4D0002705F10803036763
:10310800AB6980F86C70436740641F2229684830B7
:103118001AF010FB22460121304684F8677000F04F
:1031280061F80028D1D09CE76FF00F009BE700BF43
:103138005412020010B50C46006900F57B73D3E801
:10314800AF3F022B0FD189B10A4900F530700DF05D
:103158009BFE204619F060FB7822002120461AF0D9
:10316800C7FA002010BD6FF00F00FBE76FF00100F9
:10317800F8E700BF601800202DE9F04F05460E461D
:1031880090460027D0F8C4A085B0AAF5BE742146A1
:103198003046FDF7BBFBE0B9114BA4F1480B029395
:1031A800DAF810303246CDE9008329464FF0FF3374
:1031B8005846AAF5E2790BF091FF60B9782301220D
:1031C80003FB079383F86C20DAF80C300BB15846F0
:1031D8009847783417B105B0BDE8F08F0127D6E7D6
:1031E800D58601001FB5144690B18AB1012912D1C4
:1031F8000A4B00F1F0010293D0F8D4314832019320
:103208004FF0FF33204600930BF068FF04B010BD69
:103218006FF01500FAE70020F8E700BFD586010037
:103228002DE9F04387B00E46DDE90E811446DDE94D
:1032380010251F4630B329B3DFF850C000F1F0095C
:10324800002D08BF65469EB9CDE9034400F5E27438
:103258002046059619F098FC03ABCDE900432A46B1
:103268003B46414648460CF099F907B0BDE8F08363
:10327800002241460E9248462A4607B0BDE8F04370
:103288000CF0E2BA6FF01500EFE700BF81310000E3
:10329800F0B504462B4A87B004AB0E4692E803000B
:1032A80083E80300002C49D018460BF0F1FD0546D1
:1032B800B0B94FF0FF33E16C04F15407A163CDE9D5
:1032C800010000933846236D04F1380218F054FFCA
:1032D800A06C15F02AFAC4F8BC0020B96FF00B05F1
:1032E800284607B0F0BDA06C15F01FFAC4F8C0005E
:1032F8000028F3D0236CD4F8BC10C4F89030042311
:10330800C4F89430C4F8AC300223E3620E4BB4F82E
:103318004820C4F88C10616C236204F18C03C4F853
:10332800A070A4F89820C4F8B870C4F8A810A4F83D
:10333800B020C4F8A400A6612363D1E76FF0150597
:10334800CEE700BFF0DD0100B0DF0100014B0360F4
:1033580000207047DCDF010070B5104B0D461C687B
:10336800B4B10F4B196800238B4202DB6FF00100E8
:1033780070BD224612F8106B864202D01446013303
:10338800F2E7E06819F03EFC28B100202C60EFE776
:103398006FF00C00ECE76FF01200E9E79C020020E8
:1033A80008E0010010B5436888B0029383680C46B2
:1033B800CDE9033200230A68C068CDE90623054930
:1033C80001AA059317F05BFF079808B9059B2360CE
:1033D80008B010BDA58701002DE9F0410C4B05464A
:1033E8001C680E4617467CB100F048F96368204611
:1033F800D3F8108032463B462946C047044600F0C1
:1034080047F92046BDE8F0816FF00104F9E700BFF5
:103418008818002000230360044B5A6812B9C3E9D6
:103428000000704710605860704700BF8C1800207B
:10343800014B1860704700BF88180020002330B582
:1034480085B0CDE902330546019000F017F9094B24
:103458001C6844B9284600F099F8044600F018F9A9
:10346800204605B030BD636820461B6801A998470F
:103478002468EEE78C1800201FB5CDE901010392FE
:1034880000F0FCF8074B1C6824B900F001F920464D
:1034980004B010BD636820461B6801A998472468DA
:1034A800F2E700BF8C1800200022024BC3E900227B
:1034B800704700BF8C1800200022024BC3E900228D
:1034C800FFF7F2BF941800202DE9F74307460C4692
:1034D80009B100230B600026254DDFF8AC904D455F
:1034E80024D924499D23244A244814F0BCFA2448AA
:1034F80014F0B9FA9D21204814F0ACFAD5F80080F0
:103508003846414601AA15F08BF950B116B954B99D
:103518002E4606E000224046316815F081F9002861
:10352800F5D11835DBE7019B2360F1E7E6D3154BAE
:103538001D68C5B155F8188C3846414601AA183D92
:1035480015F06EF950B116B954B92E4606E00022AE
:103558004046316815F064F90028F5D1AD69E8E70F
:10356800019B2360F1E7304603B0BDE8F08300BF5C
:103578006CDD0100EAEB0100B8EB010026E8010070
:1035880012EC010094180020E4DD01002DE9F04759
:1035980080464FF000470026DFF8D890DFF8D8A023
:1035A8003D462F4C4C4530D92E494FF489732E4A4D
:1035B8002E4814F058FA2E4814F055FA4FF4897131
:1035C800294814F047FA2F46EAE7B8F1000F03D16B
:1035D80022694AB91834E5E700224146206815F007
:1035E8001FF90028F4D1F5E76368BB4205DDAF4257
:1035F80009D09D42A8BF1D46ECE7EBD19047002EAD
:1036080008BF0646E6E71D46E4E7DED3DAF80040E1
:1036180004B3183CB8F1000F03D122694AB9A46970
:10362800F6E700224146206815F0FAF80028F4D1A0
:10363800F5E76368BB4205DDBD4209D09D42A8BFDE
:103648001D46ECE7EBD19047002E08BF0646E6E79B
:103658001D46E4E7AF42B6D13046BDE8F08700BF6B
:103668006CDD0100EAEB0100B8EB010026E801007F
:1036780012EC0100E4DD0100941800204FF0FF3245
:103688004FF0FF3301480CF0C3BC00BF980700207F
:1036980001480CF08DBD00BF9807002038B5094DD2
:1036A800FFF7ECFF2B783BB9FFF706FF00F06AF84D
:1036B800044610B901232B700024FFF7E9FF2046C8
:1036C80038BD00BF9E5D00202DE9F04706468946BB
:1036D800048FDFF8ACA0013498B0A4B200F1080759
:1036E800651EADB2B5F5004F47D04A23294605AA55
:1036F800384614F001FE04F57F543F34A4B28046E6
:103708002146012338460DF10B0214F0F5FDB8F1FE
:10371800000F014610DC002810DC338FAB4209D1C2
:1037280032466B1E22F8383F4FF4004102233846D8
:1037380014F0B0FC2C46D3E7002808DC29463846AC
:1037480014F076FD2146384614F072FDE5E708F1DD
:1037580060030DEB03080023524608F84C3C05A80B
:10376800CDF8009003AB0397ADF8104015F08EF834
:103778000028DFD018B0BDE8F0870020FAE700BFC6
:10378800038901007FB50125694628460195FFF7A1
:10379800E3FD044660BB284602AA01A915F020F8FB
:1037A800044610B110F10C0F22D10399B1F5803FF6
:1037B80023D200231846009A9468084484421AD3F6
:1037C8000133082BF9D10E4D69612B8353682846C4
:1037D800AB60D368EB6315F028F9044640B9094E8D
:1037E80028466E60FFF716FE28466E60FFF720FE3B
:1037F800204604B070BD9BB2E5E76FF02004F7E700
:103808009C1800204802002008B5044814F0B8F8B5
:10381800BDE80840024814F0B3B800BF31EC01001D
:1038280066EC0100014811F013B900BFDCDF0100AC
:1038380038B5044618B90F4B0F485B68984761685C
:10384800B1F5683F10D0B1F5680F0DD00B4DA94206
:103858000AD011F46861206807D0014608480CF0C6
:10386800F7FA00232360656038BD142219F040FF81
:10387800F9E700BF2005002094EC01002C5F5CA94B
:10388800DC1D002008B560B34368B3F5683F0ED06F
:10389800B3F5680F18D0144A934220D000684FF04F
:1038A800FF324FF0FF330CF0B3FB58B115E00122A3
:1038B8000368D3E8EF1F002903D1C3E8E02F0028ED
:1038C800F7D10AD1002008BD0368084A1B7803F520
:1038D800807352F82330002BF4D00548F3E70548ED
:1038E800F1E76FF4E040EEE72C5F5CA900000350BD
:1038F800E98FFFFFEA8FFFFF08B520B34368B3F5F0
:10390800683F09D0B3F5680F13D0114A93421DD010
:1039180000680CF04DFC14E000220368D3E8EF1FA8
:10392800012903D1C3E8E02F0028F7D109D00948BD
:1039380008BD00210368084A1B7803F5807342F824
:1039480023100020F4E76FF4E040F1E70348EFE7C5
:103958002C5F5CA9E98FFFFF00000350EA8FFFFF8F
:1039680010B5044618B91D4B1D485B689847636835
:10397800B3F5683F2FD0B3F5680F2CD0194A93429E
:1039880019D1236803BB4FF0FF324FF0FF332146B4
:1039980015480CF0D1F908B923681BB90F4B134827
:1039A8005B68984714220021206819F0A1FE4FF4A3
:1039B8006863636008E0B3F5683F0DD83A2B03D01D
:1039C80040F6BA629342DED1206819F06DF9636857
:1039D80043F03A03636010BD054AF3E72005002071
:1039E80094EC01002C5F5CA9DC1D0020BAEC0100FE
:1039F8003A00003A08B5064940231422054819F050
:103A08003CF9BDE808400449044811F0E5B800BF96
:103A1800DC180020DC1D0020E4DF0100F8DF0100D5
:103A280008B50348034A0021121A15F034F808BDF6
:103A3800F8090020B85F0020074808B5074A084978
:103A4800121A15F02AF8BDE808400648064A074940
:103A5800121A15F022B800BF00000020F809002053
:103A6800A81E02000000002000000020A81E02007E
:103A78002DE9F04107460C4686B000292FD0D1E940
:103A880001231E48096813F07BFFD4E90423E16889
:103A98001B4813F075FFE1691A4813F071FF2646B9
:103AA8000025DFF87080F36A29460493EB1C039322
:103AB800B36A40460293AB1C0193736A10360093B5
:103AC80032696B1C043513F05BFF102DEBD1216EAE
:103AD8000D4813F055FFA1690C4813F051FF012F51
:103AE80005D1EFF305810A48103913F049FF214643
:103AF800384606B0BDE8F0410BF0ECBEE7EC01003B
:103B080017ED010047ED01009BED0100ABED010051
:103B1800DAED010057ED010030BFFFF7FDBF00BF30
:103B2800054B9A699B689A421FBF044A536843F041
:103B380080535360704700BFBC23002000ED00E0B5
:103B480010B5204C204813F01BFFA36A990137D504
:103B58001E4813F015FF1E20A36ADA0103D51C487E
:103B680013F00EFF1F20174CA36ADB0203D5194878
:103B780013F006FF0220A36A1C0303D5164813F0AE
:103B8800FFFE21200F4CA36A590303D5134813F0F5
:103B9800F7FE2220A36A9A0303D5114813F0F0FE1A
:103BA8002320084CA36ADB0303D50E4813F0E8FE74
:103BB8002420A36A6FEA03436FEA1343A36210BD8C
:103BC8001D20C9E700ED00E0EEED010007EE010061
:103BD8001BEE010036EE010061EE010080EE0100EF
:103BE800A6EE0100C1EE010070B5244C064624483B
:103BF8000D4613F0C5FEA36AD90435D5214813F044
:103C0800BFFE1720A36A1A0503D51F4813F0B8FE94
:103C180018201A4CA36A9B050FD51C4813F0B0FE58
:103C2800A16BA36A180407D5194813F0A9FE1EB1A1
:103C3800A36A23F40043A3621920104CA36A590510
:103C480003D5144813F09CFE1A20A36ADA050DD593
:103C5800114813F095FE1B20084A936A43F47F43EA
:103C6800936200232B7070BD1620CBE7A36A9B04D8
:103C7800F2D50A4813F084FE1C20EDE700ED00E0C1
:103C8800EDEE010004EF010016EF01002AEF01003C
:103C980044EF01005AEF010076EF01008FEF0100B9
:103CA80070B5304C064630480D4613F069FEA36ADD
:103CB800D90646D52D4813F063FE1120A36A1A07CA
:103CC80003D52B4813F05CFE1220264CA36A9B07F1
:103CD8000FD5284813F054FE616BA36A180607D560
:103CE800254813F04DFE1EB1A36A23F08003A3629A
:103CF80013201C4CA36ADA0703D5204813F040FEB2
:103D08001420A36A9B0603D51D4813F039FE15201D
:103D1800144B9A6AD60602D49A6A940713D59B6AFA
:103D2800D90610D5174940F22D13174A174813F032
:103D38009AFE174813F097FE40F22D11124813F01F
:103D480089FE1020BAE7074B9A6A920642BF5A6A60
:103D580022F400525A629A6A42F0FF029A620023E1
:103D68002B7070BD00ED00E0BFEF0100D6EF010041
:103D780016EF01000AF0010023F001003AF00100FB
:103D88008FEF01008CF001005AF0010026E80100D5
:103D9800D6F0010070B56C4B0546586800269CB0FB
:103DA800C0F3080386F31188BFF36F8F02F07F44D6
:103DB800B4F17F4F06D102F00C04082C11D16348EE
:103DC80013F0DEFD624940F21443624A624813F080
:103DD8004AFE624813F047FE40F214415D4813F072
:103DE80039FE14074CBF0D460126002DEAD00024E9
:103DF800DA1E8DF80740092A00F29480DFE802F005
:103E080005888C6B929292929290554813F0B8FD67
:103E18008DF807404C4CE36A9A0704D5514813F0D3
:103E2800AFFD002426E0E36A002B01DA4E48F6E7EE
:103E3800E36A5B005FD54D4813F0A2FD6369AA6988
:103E480043F480736361BFF34F8FBFF36F8F636970
:103E580032F8022C23F480736361BFF34F8FBFF3F2
:103E68006F8F4DF602739A421DD12968404813F0AE
:103E780087FD2C689DF807309BB96822294602A85F
:103E880019F00FFC099B002E58D0C3F3080222B981
:103E98006FEA53236FEA43230993204602A9FFF7E9
:103EA800E7FD1CB070BDA36ADBB233B101200DF190
:103EB8000701FFF7F5FE0446DCE7A36A13F47F4F1A
:103EC80005D001200DF10701FFF78EFEF3E7A36A85
:103ED800B3F5803F02D3FFF733FEECE7254940F204
:103EE800ED231C4A1C4813F0BEFD234813F0BBFD0C
:103EF80040F2ED2172E71F494FF43C73154A16480A
:103F080013F0B1FD1D4813F0AEFD4FF43C7165E7A9
:103F180000200DF10701CCE700200DF10701D3E7E0
:103F280017487CE7A3F11002164B10F4F87F1649E6
:103F3800164818BF194613F023FD72E723F4FF73E0
:103F480023F00103A8E700BF00ED00E068F10100DD
:103F580094F101005AF0010026E80100A7F10100E0
:103F6800E5F10100FDF101001FF201002EF2010050
:103F78004EF20100F81002006BF201008FF201000E
:103F8800BFF201004FF101003AF10100E4F2010033
:103F9800064B5A6942F010025A615A6942F480622B
:103FA8005A615A6922F008025A61704700ED00E030
:103FB800EFF30880EFF3098101B57246FFF7EAFED7
:103FC80001BD00BF002080F31488BFF36F8F00206D
:103FD80080F30A8880F30B88104880F30888002053
:103FE8000F49087008F030FB00200E490860BFF345
:103FF8004F8F00F02DF8202080F311880A484FF4E5
:104008000061401880F30988EFF314800221084307
:1040180080F31488BFF36F8F00F024F968950020AF
:10402800B45F002094ED00E0287C002000231846AF
:104038000649D1F89020C2F30722934200DB70476B
:10404800C1F89830C1F8A0000133F6E700ED00E0B0
:1040580010B572B6002484F31388FFF7E7FF2346F0
:104068004FF0FF300C4A03F120010133102B42F8C6
:104078002100F8D100234FF0FF30074A03F1600117
:104088000133102B42F82100F8D162B6BFF34F8FED
:10409800BFF36F8F10BD00BF00E100E0084B9B68C5
:1040A80083420BD1EFF3058343B1064B5A6842F0C4
:1040B80080525A605A6A22F400425A620EF0BABA22
:1040C800BC23002000ED00E023498A6882F8F5E06F
:1040D8004FF030001044EFF3098C80E8F01F1EF019
:1040E800100F03D102F1B40080EC108A202080F375
:1040F8001288BFF36F8F194F4FF000668A698A6084
:104108003E6092F9F5E0D2F8AC000023C2F8AC307A
:1041180080F311881EF0100F03D00023E1EE103A4F
:1041280003E002F1B40090EC108AEFF3148323F05B
:10413800040383F31488BFF36F8F02F1300090E813
:10414800F01F8CF3098802F1000004B514F0B6FCE6
:10415800BDE8044070470000BC23002004ED00E0E7
:104168001EF0040F0CBFEFF30880EFF3098081699C
:1041780011F8021C0229FFD001B5724614F08FFC19
:1041880001BD00BF40B2002807DB01234109034AF3
:1041980000F01F00834042F82130704700E100E042
:1041A80040B200280CDB01220649430900F01F0039
:1041B8008240203341F82320BFF34F8FBFF36F8F26
:1041C800704700BF00E100E0054B420953F8222088
:1041D800012300F01F0003FA00F01040704700BFF1
:1041E80000E100E038B54B1C072B04460D460FD9FB
:1041F8006B23104A1049114813F035FC2946104822
:104208000723224613F02FFC6B210A4813F022FCE7
:1042180040B20028ACBF00F160400A4A4FEA43139D
:10422800DBB2ABBF00F5614000F00F0080F800334F
:10423800135438BDF8F201002FF3010026E80100FD
:104248004AF3010014ED00E0044B054A23F07F0314
:104258009360BFF34F8FBFF36F8F7047000000006C
:1042680000ED00E008B5FFF7EFFF104BD3F888200A
:1042780022F47002C3F88820D3F8882042F4A00200
:10428800C3F888204FF04042C3F83422BFF34F8F61
:10429800BFF36F8F0023E1EE103AFFF7C1FBFFF782
:1042A800CBFB00F077F80BF01BFC00BF00ED00E043
:1042B80042F8203C009B0D4942F81C3C019B21F030
:1042C800010142F8183C029B42F8081C42F8143CD1
:1042D8004FF0807342F8043C0023C0F8AC304FF430
:1042E8007D43203A0265C0F8F4307047BD7901007B
:1042F800104B9B6883421AD1EFF30580B8B9EFF3EE
:104308001181202282F31288BFF36F8F1A7B22F06B
:1043180002021A73EFF3148323F0040383F314885F
:10432800BFF36F8F81F31188BFF36F8F70476FF002
:1043380015007047BC2300200E461546002300B523
:10434800E1EE103AEFF3148323F0040383F31488A7
:10435800BFF36F8FBFF36F8F0A4B9860D0F89C3014
:1043680083F30B882C4686F309880020034B984773
:104378002046002100220023014C2047D38A010057
:10438800BD790100BC2300201022014B1A6170473F
:1043980000ED00E0002320210348C2180133452B1B
:1043A80082F80013F9D1704700E100E008B5EFF397
:1043B8000583064A103B02EBC30152F833004968F3
:1043C8008847BDE80840FFF7ABBB00BFA4D9010090
:1043D8001FB5094C094A23460121094800F0FAF89B
:1043E80000230393074B0121E41A01A801930294C7
:1043F80000F014F904B010BD0000072000000020F0
:104408003CE00100F809002010B50C7A0B6804F0B4
:104418001F0223F01F031A43CB68640923F01F030C
:10442800054943EA440343F00103C1F89800C1F881
:104438009C20C1F8A03010BD00ED00E010B5074B7E
:10444800D3F89030C3F30723013B984202D8FFF713
:10445800DBFF10BD6FF01500FBE700BF00ED00E0CB
:104468002DE9F04F0F46144606464FF000084D4D13
:1044780085B0B84580F29280D6F80490B9F1000F63
:1044880036D0B9F11F0F40F2878019F01F0F40F0A6
:104498008380D6F800A01AF01F0F7DD1504614F083
:1044A80050FB834609EB0A00013814F04AFB8345A8
:1044B80072D11BF1160F6FD05C456DDDC5F898B051
:1044C800D5F89C10C5F898B0D5F8A03021F01F0198
:1044D80043F01F0AD6E900321A44994202F1FF3923
:1044E8001ED1CA4508D131465FFA8BF014F032FB71
:1044F80008F101080C36BCE73146C5F898B0D5F884
:104508009C3022F01F0203F01F031343C5F89C30B0
:10451800E0B214F01FFB10F1160F3DD0441CE7E782
:10452800C5F898B0D5F8A020013B23F01F0302F08E
:104538001F021343CA453146E0B2C5F8A030E8D09F
:1045480014F008FB10F1160F26D0C5F898B0D5F86E
:104558009C209DF808300AF1FF3A62F304038DF8B5
:104568000830D5F8A0309DF808205B0863F347129F
:104578008DF80820D6E900321344009323F01F0376
:104588005344A3EB0903013023F01F036946C0B26B
:104598000393FFF753FFBEE76FF01504204605B0FD
:1045A800BDE8F08F00ED00E00522044BC3F894202D
:1045B800BFF34F8FBFF36F8F704700BF00ED00E070
:1045C800BFF35F8F0022024BC3F89420704700BFEF
:1045D80000ED00E038B50C4D0C462A78FFF740FF97
:1045E800287016300FD14FF4BF73084A084909489C
:1045F80013F039FA2146084813F035FA4FF4BF7121
:10460800024813F027FA38BD9F5D00208AF30100A5
:10461800F810020026E80100B9F301002DE9F74F70
:10462800314E894605464FF00008B3462F4FC8451E
:1046380002DB03B0BDE8F08FD5F804A0BAF1000F93
:104648004CD029680846019114F07BFA0199044678
:104658000AEB0100013814F074FA84424FF0140296
:10466800234B15D002FB08F36FF015024BF803201B
:104678004FF4C7731F4A2049204813F0F4F94946FC
:104688001F4813F0F0F94FF4C7711A4813F0E2F914
:1046980014F1160F3460EBD01978A142E8DD02FB63
:1046A80008B0C7F89840C7F89840D7F89C4000F180
:1046B8000801007B64F304000871D7F8A0000C79A6
:1046C800400860F347140C71D7F89C1021F01F01C3
:1046D8007160D7F8A01021F01F01316108F10108BD
:1046E80014360C35A3E700BFFC1D002000ED00E0E8
:1046F8009F5D00208AF30100F810020026E80100FF
:10470800E5F301002DE9F041574C584ED4F89030AC
:104718003568C3F307239D4286B013D940F2F713D7
:10472800534A5449544813F09EF9D4F89020294626
:104738005248C2F3072213F096F940F2F7114C4899
:1047480013F088F90020FFF73BFF4D4BC4F8C03049
:1047580085421AD14B4C01A82570FEF7F7FD0025BC
:1047680006464FF04108484FAE4215D10020237845
:104778003D49D1F89020C2F3072293426DDB002017
:10478800FFF712FF06B0BDE8F081716801EB001178
:10479800FFF73AFE0130DBE7019A290102EB051326
:1047A800D3F80CC00CEA0700B0F5001F27D0B0F50D
:1047B800800F40D0B0F5801F4DD1586852589B6883
:1047C800CDE902022122013B20F01F010B4423F016
:1047D8001F038DF810200593207802A9FFF72EFEFD
:1047E800002835DA234940F22123214A224813F0D0
:1047F8003AF9264813F037F940F221219FE7586823
:104808009B685258013B20F01F010B4423F01F0303
:104818001CF0010FCDE902028DF810800593DBD062
:104828001B498323124A144813F01DF9194813F041
:104838001AF9832183E758689B685258013B20F096
:104848001F010B44CDE9020223F01F030222C0E737
:10485800237801332370013586E7C1F89830C1F811
:10486800A000013385E700BF00ED00E048E001004B
:104878008AF30100F810020026E8010014F4010090
:10488800AAFF44009F5D00200000F0FF9DF4010096
:1048980048F401006EF4010008B50B4BC3F1005356
:1048A80003F5E023B3F5006F0CD208499223084AB8
:1048B800084813F0D8F8084813F0D5F892210448AE
:1048C80013F0C8F8002008BD08EC002006F5010028
:1048D800D6F4010026E801004FF50100F8B50D46B1
:1048E800094F461EC0F10104A3199D4201DC284668
:1048F800F8BD73780A2B02D10D203B6898473B68B6
:1049080016F8010F9847EFE7A002002008B5052127
:104918000148FFF7E3FFFEE7D6F5010070B54169EE
:104928000446867A0A4D59B1437ADB0706D4342304
:1049380003FB0653DB6A1B689B6898470023636187
:104948003420214606FB0050BDE8704018F0D7B966
:10495800240800203422024B02FB0030704700BFBD
:10496800240800203421827A064B01FB02331A6B9B
:1049780093F82430801A1B3323F00303B0FBF3F0C1
:10498800704700BF2408002038B53424827A064BCB
:1049980004FB0233DB6AD3E901240C601568FFF7D6
:1049A800E1FF04FB005038BD2408002008B5437A15
:1049B8004BB10C495A230C4A0C4813F054F85A21AD
:1049C800094813F047F843683BB109495B23064A95
:1049D800064813F048F85B21F2E703824369C36095
:1049E80008BD00BF01F60100DCF5010026E8010062
:1049F80012F601002DE9FF470546684617461C4692
:104A0800039118F074FADDE9008955B95D494FF44E
:104A180081735D4A5D4813F026F84FF481715A4856
:104A280018E005F11C06EFF3118A202383F312889E
:104A3800BFF36F8F30460EF071F868B98823544A77
:104A48005449524813F00FF83146534813F00BF805
:104A580088214F4812F0FEFF30460EF083F86B8C29
:104A6800002B5CD02A8C9A4239D900220023284690
:104A78000BF058FD0446002831D030460EF05CF8A3
:104A880068B94FF49A73424A4449404812F0EBFF20
:104A98003146434812F0E7FF4FF49A71D9E78AF399
:104AA8001188BFF36F8F039D002D5BD042464B46A4
:104AB800684618F041FA3421A27A3A4B204601FBA5
:104AC8000233DB6A03A91B681E68DDE90023B047CF
:104AD8006061002839D12046FFF720FF30E06C8C58
:104AE8003046631E6B840EF027F80028C9D08AF37D
:104AF8001188BFF36F8F95F824302A8C1B33121B53
:104B08002C6B23F0030302FB0344264B264AEB1AC3
:104B18009B105343A37295F82430E372C3E73046E1
:104B28000EF00AF80028ACD08AF31188BFF36F8F13
:104B380023463A4628460BF0F5FC04460028B2D135
:104B48000024204604B0BDE8F087039B9D420AD9A3
:104B5800164940F257130C4A0C4812F084FF40F2F1
:104B680057115CE76561012300212381039BE27AE9
:104B78006160638204F1180018F0BAFD2046FFF75F
:104B880015FFDEE733000200DCF5010026E801002E
:104B9800E4E7010011E8010043E8010059E80100D9
:104BA80070E8010024080020C54EECC42CF6010072
:104BB80070B50C46054658B928494FF4CF73284AB2
:104BC800284812F050FF4FF4CF71254812F042FFE9
:104BD80049B9254940F29F13214A224812F043FF60
:104BE80040F29F11F1E7EFF31186202383F3128837
:104BF800BFF36F8F1D480DF091FF60B988231C4AE1
:104C08001C49184812F02FFF18491B4812F02BFFB7
:104C180088211748DAE715480DF0A4FF0023236020
:104C28006B689BB9C5E9004410480DF085FF80B951
:104C38004FF49A730E4A11490A4812F014FF0B49AF
:104C48000F4812F010FF4FF49A71E2E71C606C6095
:104C5800EAE786F31188BFF36F8F70BD3DF6010058
:104C6800DCF5010026E801008FF90100101E002084
:104C7800E4E7010011E8010043E8010059E80100F8
:104C880070E8010070B5044658B92349234840F23A
:104C9800AB13234A12F0E7FE40F2AB11204812F0A2
:104CA800D9FEEFF31186202383F31288BFF36F8FA9
:104CB8001C480DF033FF60B988231B4A1B4917486D
:104CC80012F0D1FE17491A4812F0CDFE8821164875
:104CD800E5E714480DF046FF25682DB162682B689A
:104CE8009542236008BF63600E480DF025FF68B940
:104CF8004FF49A730C4A0F49084812F0B4FE094958
:104D08000D4812F0B0FE4FF49A71E0E786F311886F
:104D1800BFF36F8F284670BD3DF6010026E80100FD
:104D2800DCF50100101E0020E4E7010011E8010095
:104D380043E8010059E8010070E80100F8B50546AC
:104D480098B13427184E2C46237A6D68CBB94FF4A6
:104D5800E173164A1649174812F085FE214616488F
:104D680012F081FE4FF4E17108E014494FF4DE734C
:104D78000E4A104812F077FE4FF4DE710B4812F01D
:104D880069FE013BDBB2237253B9E3606360A37A27
:104D9800204607FB03639B6A1BB19847002DD2D1BD
:104DA800F8BDFFF7BBFDF9E724080020DCF501009A
:104DB80042F6010026E801004BF601008FF90100D8
:104DC80008B558B90749084840F2E713074A12F0EE
:104DD8004AFE40F2E711054812F03CFE027A013221
:104DE800027208BD8FF9010026E80100DCF5010018
:104DF80008B5034658B90849084840F23223084A1A
:104E080012F031FE40F23221054812F023FE184616
:104E18005B68002BFBD108BD8FF9010026E8010073
:104E2800DCF5010070B50D46044658B90F4940F24B
:104E38003D230F4A0F4812F016FE40F23D210C4860
:104E480012F008FE49B90C4940F23E23084A0948C5
:104E580012F009FE40F23E21F1E746681EB108460D
:104E6800FFF7C6FF4660656070BD00BF18F9010016
:104E7800DCF5010026E8010060F6010038B50546BA
:104E88000C4659B90C490D4840F249230C4A12F016
:104E9800EAFD40F249210A4812F0DCFD20B9BDE8DC
:104EA80038400846FFF78CBFFFF7A2FF2146FFF7FF
:104EB800B9FF284638BD00BF60F6010026E80100AA
:104EC800DCF5010008B548B90B492B230B4A0C48FF
:104ED80012F0C9FD2B21094812F0BCFD83883BB1B3
:104EE80008492C23054A064812F0BDFD2C21F2E79B
:104EF80083680B44036008BD8FF9010065F6010063
:104F080026E8010091F6010008B5034600689A6892
:104F1800821A91420BD90949094840F25513094AA6
:104F280012F0A1FD40F25511064812F093FD9A883F
:104F3800401A11441860998008BD00BFB0F60100FE
:104F480026E8010065F6010008B5828803468A4212
:104F58000BD20949094840F2C313094A12F083FDEC
:104F680040F2C311064812F075FD521A828000689B
:104F78000844186008BD00BFA0F6010026E801003B
:104F880065F6010008B503469A8800688A420BD284
:104F98000849094840F2CF13084A12F064FD40F26C
:104FA800CF11064812F056FD521A01449A80196032
:104FB80008BD00BFA0F6010026E8010065F6010063
:104FC800F8B5858803680E4604465F1913F014FE89
:104FD800B04209D2064907483E23074A12F043FD6A
:104FE8003E21054812F036FD3544A5803846F8BD07
:104FF800D4F6010026E8010065F60100054B03EB35
:105008008000D0F8003223F0E04343F04053C0F86A
:105018000032704700258450052370B5144D154E95
:105028002C780134B4FBF3F303EB8303E41A16F092
:10503800FBFD114A137823B156F82430C01A07280B
:1050480014D94FF05023D3F8141141B10021C3F8FB
:105058001411D3F814312C700CB9012313702C7867
:1050680016F0E2FD46F82400012070BD0020FCE7A0
:10507800A15D0020141E0020A05D0020012208B5BB
:10508800114B1249C3F8002502230020C1F8D0367D
:10509800FFF7B4FF1046FFF7B1FFC1F80427C1F8C6
:1050A8000429C1F8002B00F0D9F858B1084909487B
:1050B80040F22D23084A12F0D6FC40F22D21064872
:1050C80012F0C8FC08BD00BF00100050004000509E
:1050D80022F7010026E80100F8F6010007B54FF4B1
:1050E8008062114B1149C3F8B8254FF4006210488B
:1050F800C3F83C250DF1070216F0F7FD00280BDA7E
:105108000C490D4840F237230C4A12F0ACFC40F22F
:1051180037210A4812F09EFC9DF8070007F0A6FB0D
:1051280003B05DF804FB00BF00A002502CA00250A1
:1051380028A1025022F7010026E80100F8F6010034
:1051480048B1054B054A1B68B3FBF2F35843044BBF
:1051580043F0010318477047C404002040420F0081
:1051680060DE0100F8B500214FF0FF354FF6FF77FC
:10517800184C194EDFF870C0000714F8013B5A09A3
:105188000DD0012A1DD0154915484FF47473154ADE
:1051980012F069FC4FF47471124812F05BFC25FAA6
:1051A80003F2D207EFD5324602EB8303D3F800228D
:1051B800013122F0E04202430429C3F80022DCD185
:1051C800F8BD03F01F0327FA03F2D207DBD56246C6
:1051D800EAE700BFC6F70100002584505EF701002A
:1051E80026E801002BF70100002884502DE9F04142
:1051F800064601200D46FFF7B5FF4FF47F03D3F8AD
:105208003021D3F83431072A20D1023B032B02D8AE
:10521800114AD35CD3B14FF050244FF00108002756
:105228000520C4F81886C4F8147616F029FD4046FF
:10523800C4F8148616F024FDC4F81476C4F8187659
:1052480030462B46BDE8F041002118474FF0502367
:105258000022C3F81426F3E7C2F701000149024807
:1052680012F0C9BC7CE00100281E00201FB518B34D
:105278000023019303930123694612480293FDF723
:105288008DFA002809DA10495A23104A104812F0FA
:10529800EAFB5A210D4812F0DDFB029B9B0707D061
:1052A80009496223094A0A4812F0DDFB6221F1E745
:1052B800039B05B05DF804FB0248FDF707FB0028D7
:1052C800F7DAEDE7281E0020B9F7010081F70100A1
:1052D80026E8010008B54FF0FF323F230348C0E934
:1052E800002307F09DFA002008BD00BF481E0020DB
:1052F80008B5044817F086FC00280CBF6FF01200B0
:10530800002008BDC4D801002DE9F3410446174622
:105318009846174DD5E8AF3FDA0727D520B96FF083
:10532800010002B0BDE8F08101A913F09DFA11490E
:105338000246204618F0ECF90028F0D1D5E8AF3F36
:10534800C3F3C0061B0711D4A5F1D40407222146D4
:105358004046B847062887BF0723B0FBF3F045F857
:10536800D46CE67194BFC4F80360E0710020D8E7FC
:10537800D40000204D0002002DE9F04188B0DDF88E
:1053880038809C795D791E79DF7893F802C093F8AC
:1053980001E01B78B8F1000F0ED0CDE90638CDE951
:1053A80004CE1346CDE90267CDE90045084A12F05C
:1053B800F4FA08B0BDE8F081CDE905E3CDE9037C56
:1053C8001346CDE90156034A009412F0E6FAF0E7D5
:1053D800E4F7010008F8010070B504461E461546BA
:1053E8008CB0A2B129B10A4602A8042112F048FBE8
:1053F80002A900912B462246242103A8FFF7BCFFEF
:105408003146109A03A8FDF7E7FF0CB070BD0346BC
:105418002421044A03A812F0C0FA0028F0DA6FF039
:105428001500F2E729F8010007B5064B0648DA79B6
:10543800C2EBC202009200221146FFF7CDFF03B073
:105448005DF804FB000000204D00020030B5044662
:1054580015468DB092B129B10A4602A8042112F06E
:105468000FFB02A900912B462246242103A8FFF72F
:1054780083FF03A813F0D0F90DB030BD03462421F3
:10548800044A03A812F089FA0028F2DA6FF015002E
:10549800F2E700BF29F8010007B5009313460A4652
:1054A80001460348FFF798FF03B05DF804FB00BF0F
:1054B800720202000A4601460148FFF7C7BF00BF53
:1054C8007202020007B5009313460A4601460348D4
:1054D800FFF782FF03B05DF804FB00BF6C02020017
:1054E80007B5009313460A4601460348FFF774FFC1
:1054F80003B05DF804FB00BFA601020007B5002257
:105508000346009103481146FFF766FF03B05DF8B4
:1055180004FB00BF6402020008B502480BF0AEFCB1
:10552800002008BD3403002070B5154CD4E8AF3F07
:1055380013F0010F254616D014F8CD3CA4F1D4067B
:105548009BB1D4E8AF3F5A0701D400F043FCD5E83B
:10555800EF3F23F40062C5E8E12F0029F7D11B05CE
:1055680001D5FFF7D9FF002009E001F0A7FA30B90B
:10557800F379002BE5D101F0B1FA0028E1D070BD34
:10558800D400002030B500240A4D0B4B87B02846C4
:105598000393CDE904440BF005FD03AB28460093C3
:1055A8004FF4E1620A2305490BF016FD204607B0C7
:1055B80030BD00BFE00F002032F80100B86F0020B6
:1055C800014601480BF032BEE00F0020037830B5E9
:1055D800012B13D0022B27D07BB90A46184B03F1B5
:1055E800100453F8045BA34242F8045BF9D11B781A
:1055F800137043884B731B0A8B7330BD0A46104BDC
:1056080003F1100453F8045BA34242F8045BF9D198
:105618001B7813704368C3F307224B731B0CCB73BF
:105628001B0A8A730B74E8E700F1100350F8042B87
:10563800984241F8042BF9D103780B70DDE700BFDD
:105648003BF8010070B5044617F0DDFB0A4D18B1B0
:10565800D5E8AF3F63B970BD0CF026FDD5E8AF3F84
:105668001BB9BDE870400CF091BD20469847F8E79B
:105678002046BDE870401847501E002038B5044643
:10568800022C1046194610D0082C16D0202C14D005
:105698001D497A231D4A1E4812F0E5F91D4812F0EB
:1056A800E2F97A21194812F0D5F91B4813F06FFA7C
:1056B800054600BB0025284638BD02460B4617485C
:1056C80013F065FA05460028F4D0082C1AD00CD837
:1056D800012C11D0042C15D011490D485223114A20
:1056E80012F0C1F952210F48DDE7102C01D0202C0F
:1056F800F2D1052400E00424214605F10C0013F042
:105708008FFAD8E70224F7E77BF801004CF801008C
:1057180026E80100C0F80100F40800202408002051
:10572800F8100200E0F801000F2810B50CD80D2879
:105738000CD90A4813F02BFA044618B104210C308E
:1057480013F06EFA204610BD1328F2D009B10448B0
:10575800F0E70220BDE81040FFF790BFC409002021
:10576800C008002038B50B6805460C464BB90E49F1
:105778000E48FA230E4A12F076F9FA210C4812F074
:1057880069F94A68DA600B684A895A820868FFF73B
:10579800D5FA20461022002117F0AAFF2846BDE8B6
:1057A800384013F0F1BA00BF12F9010026E80100F1
:1057B8004CF801002DE9F84305460C461F461646ED
:1057C8004AB92649D623264A264812F04CF9D6214A
:1057D800234812F03FF938B92349D723204A2148F2
:1057E80012F041F9D721F3E701F10C09484613F00B
:1057F800FFF938B91D49DB23194A1A4812F033F961
:10580800DB21E5E7204613F0E7FA804638B118496E
:10581800DD23134A134812F026F9DD21D8E705F1F4
:105828000C01484613F0BDF9484613F0E1F901238D
:1058380010FA86F068826B72314648462E82FFF76E
:1058480083FBE36828467B60638AC4F80C807B810D
:10585800A4F812803C60BDE8F88300BF94100200F1
:105868004CF8010026E801001FF9010024F90100A5
:1058780041F9010070B5C6683378B6F8014083B9BC
:105888000F21204601F00AFFF378054650B90A4A6D
:10589800118831B96FEA04506FEA10501080074A36
:1058A800137070BD4372012101F064FE2846BDE803
:1058B800704001F0DBBD00BF90340020A25D0020E5
:1058C80010B5084C0146062294F86F0002F08CFAD5
:1058D80038B994F86F000522BDE81040024902F07B
:1058E80083BA10BD00000020CAF7010010B50121DD
:1058F80004460C30FFF746FB2146BDE81040002364
:10590800014A007813F0DEBA70E1010010B50121F8
:1059180004460C30FFF736FB2146BDE8104007234C
:10592800014A007813F0CEBA38E1010010B5012120
:1059380004460C30FFF726FB2146BDE81040022341
:10594800014A007813F0BEBA08E101002DE9F843D6
:105958000F461646814600286FD00023DFF8F080F6
:10596800D8E8EF4FC8E8E23F002AF9D1002C64D00C
:105978002046FEF7F7FF0C23314D03FB0050438808
:105988004B4513D0D8E8EF3FC8E8E24F002AF9D1D9
:10599800002B52D02B492C4840F604232B4A12F0F6
:1059A80062F840F60421294812F054F8A64208D0BB
:1059B8002046FEF7FBFF328AF16804F10C0013F071
:1059C80023F92046FEF7CEFF0C2606FB005043685D
:1059D8009BB197B92046FEF7C5FF012106FB005091
:1059E8004268D2E90003127A03F01F06B1405B094E
:1059F800EAB100EB830013F00BFA2046FEF7B2FF82
:105A08000C2606FB0050836863B12046FEF7AAFF08
:105A180070432F542046FEF7A5FF06FB0055A868E3
:105A28000AF00CFE2046BDE8F843FFF787B9C943E2
:105A380000EB830013F05DFADFE7BDE8F88300BFF1
:105A4800541E00208EF9010026E801005AF90100D1
:105A5800480100202DE9F8430C460CF025FBE368CB
:105A6800228A1978022964D0042905D02046FFF734
:105A780065F96FF0150405E0022A08D82046FFF7FB
:105A88005DF900240CF082FB2046BDE8F8835878C5
:105A98003E2808D1032AF1D0DB78012B01D00A2B4C
:105AA80047D1032604E013F0A1F90646F0073ED5D6
:105AB80004F10C05284613F09BF8012107462846F7
:105AC800B4F81090FFF740FA02212846FFF75AFA77
